{
	"FunctionAccessModifiers.sol": {
		"Functions": {
			"abi": [
				{
					"inputs": [
						{
							"internalType": "uint256",
							"name": "y",
							"type": "uint256"
						}
					],
					"name": "add",
					"outputs": [
						{
							"internalType": "uint256",
							"name": "",
							"type": "uint256"
						}
					],
					"stateMutability": "view",
					"type": "function"
				},
				{
					"inputs": [
						{
							"internalType": "uint256",
							"name": "a",
							"type": "uint256"
						},
						{
							"internalType": "uint256",
							"name": "b",
							"type": "uint256"
						}
					],
					"name": "addByPure",
					"outputs": [
						{
							"internalType": "uint256",
							"name": "",
							"type": "uint256"
						}
					],
					"stateMutability": "pure",
					"type": "function"
				},
				{
					"inputs": [
						{
							"internalType": "uint256",
							"name": "a",
							"type": "uint256"
						},
						{
							"internalType": "uint256",
							"name": "b",
							"type": "uint256"
						}
					],
					"name": "addByView",
					"outputs": [
						{
							"internalType": "uint256",
							"name": "",
							"type": "uint256"
						}
					],
					"stateMutability": "view",
					"type": "function"
				},
				{
					"inputs": [],
					"name": "number",
					"outputs": [
						{
							"internalType": "uint256",
							"name": "",
							"type": "uint256"
						}
					],
					"stateMutability": "view",
					"type": "function"
				}
			],
			"devdoc": {
				"kind": "dev",
				"methods": {},
				"version": 1
			},
			"evm": {
				"assembly": "    /* \"FunctionAccessModifiers.sol\":61:788  contract Functions {\r... */\n  mstore(0x40, 0x80)\n    /* \"FunctionAccessModifiers.sol\":248:250  28 */\n  0x1c\n    /* \"FunctionAccessModifiers.sol\":227:250  uint public number = 28 */\n  0x00\n  sstore\n    /* \"FunctionAccessModifiers.sol\":61:788  contract Functions {\r... */\n  callvalue\n  dup1\n  iszero\n  tag_1\n  jumpi\n  0x00\n  dup1\n  revert\ntag_1:\n  pop\n  dataSize(sub_0)\n  dup1\n  dataOffset(sub_0)\n  0x00\n  codecopy\n  0x00\n  return\nstop\n\nsub_0: assembly {\n        /* \"FunctionAccessModifiers.sol\":61:788  contract Functions {\r... */\n      mstore(0x40, 0x80)\n      callvalue\n      dup1\n      iszero\n      tag_1\n      jumpi\n      0x00\n      dup1\n      revert\n    tag_1:\n      pop\n      jumpi(tag_2, lt(calldatasize, 0x04))\n      shr(0xe0, calldataload(0x00))\n      dup1\n      0x1003e2d2\n      eq\n      tag_3\n      jumpi\n      dup1\n      0x8381f58a\n      eq\n      tag_4\n      jumpi\n      dup1\n      0x8ceffa37\n      eq\n      tag_5\n      jumpi\n      dup1\n      0x95d0390d\n      eq\n      tag_6\n      jumpi\n    tag_2:\n      0x00\n      dup1\n      revert\n        /* \"FunctionAccessModifiers.sol\":259:341  function add(uint y) public view returns(uint){\r... */\n    tag_3:\n      tag_7\n      0x04\n      dup1\n      calldatasize\n      sub\n      dup2\n      add\n      swap1\n      tag_8\n      swap2\n      swap1\n      tag_9\n      jump\t// in\n    tag_8:\n      tag_10\n      jump\t// in\n    tag_7:\n      mload(0x40)\n      tag_11\n      swap2\n      swap1\n      tag_12\n      jump\t// in\n    tag_11:\n      mload(0x40)\n      dup1\n      swap2\n      sub\n      swap1\n      return\n        /* \"FunctionAccessModifiers.sol\":227:250  uint public number = 28 */\n    tag_4:\n      tag_13\n      tag_14\n      jump\t// in\n    tag_13:\n      mload(0x40)\n      tag_15\n      swap2\n      swap1\n      tag_12\n      jump\t// in\n    tag_15:\n      mload(0x40)\n      dup1\n      swap2\n      sub\n      swap1\n      return\n        /* \"FunctionAccessModifiers.sol\":681:781  function addByPure(uint a, uint b) public pure returns (uint) {\r... */\n    tag_5:\n      tag_16\n      0x04\n      dup1\n      calldatasize\n      sub\n      dup2\n      add\n      swap1\n      tag_17\n      swap2\n      swap1\n      tag_18\n      jump\t// in\n    tag_17:\n      tag_19\n      jump\t// in\n    tag_16:\n      mload(0x40)\n      tag_20\n      swap2\n      swap1\n      tag_12\n      jump\t// in\n    tag_20:\n      mload(0x40)\n      dup1\n      swap2\n      sub\n      swap1\n      return\n        /* \"FunctionAccessModifiers.sol\":349:466  function addByView(uint a, uint b) public view returns (uint) {\r... */\n    tag_6:\n      tag_21\n      0x04\n      dup1\n      calldatasize\n      sub\n      dup2\n      add\n      swap1\n      tag_22\n      swap2\n      swap1\n      tag_18\n      jump\t// in\n    tag_22:\n      tag_23\n      jump\t// in\n    tag_21:\n      mload(0x40)\n      tag_24\n      swap2\n      swap1\n      tag_12\n      jump\t// in\n    tag_24:\n      mload(0x40)\n      dup1\n      swap2\n      sub\n      swap1\n      return\n        /* \"FunctionAccessModifiers.sol\":259:341  function add(uint y) public view returns(uint){\r... */\n    tag_10:\n        /* \"FunctionAccessModifiers.sol\":300:304  uint */\n      0x00\n        /* \"FunctionAccessModifiers.sol\":332:333  y */\n      dup2\n        /* \"FunctionAccessModifiers.sol\":323:329  number */\n      sload(0x00)\n        /* \"FunctionAccessModifiers.sol\":323:333  number + y */\n      tag_26\n      swap2\n      swap1\n      tag_27\n      jump\t// in\n    tag_26:\n        /* \"FunctionAccessModifiers.sol\":316:333  return number + y */\n      swap1\n      pop\n        /* \"FunctionAccessModifiers.sol\":259:341  function add(uint y) public view returns(uint){\r... */\n      swap2\n      swap1\n      pop\n      jump\t// out\n        /* \"FunctionAccessModifiers.sol\":227:250  uint public number = 28 */\n    tag_14:\n      sload(0x00)\n      dup2\n      jump\t// out\n        /* \"FunctionAccessModifiers.sol\":681:781  function addByPure(uint a, uint b) public pure returns (uint) {\r... */\n    tag_19:\n        /* \"FunctionAccessModifiers.sol\":737:741  uint */\n      0x00\n        /* \"FunctionAccessModifiers.sol\":770:771  5 */\n      0x05\n        /* \"FunctionAccessModifiers.sol\":766:767  b */\n      dup3\n        /* \"FunctionAccessModifiers.sol\":766:771  b + 5 */\n      tag_29\n      swap2\n      swap1\n      tag_27\n      jump\t// in\n    tag_29:\n        /* \"FunctionAccessModifiers.sol\":761:762  a */\n      dup4\n        /* \"FunctionAccessModifiers.sol\":761:772  a * (b + 5) */\n      tag_30\n      swap2\n      swap1\n      tag_31\n      jump\t// in\n    tag_30:\n        /* \"FunctionAccessModifiers.sol\":754:772  return a * (b + 5) */\n      swap1\n      pop\n        /* \"FunctionAccessModifiers.sol\":681:781  function addByPure(uint a, uint b) public pure returns (uint) {\r... */\n      swap3\n      swap2\n      pop\n      pop\n      jump\t// out\n        /* \"FunctionAccessModifiers.sol\":349:466  function addByView(uint a, uint b) public view returns (uint) {\r... */\n    tag_23:\n        /* \"FunctionAccessModifiers.sol\":405:409  uint */\n      0x00\n        /* \"FunctionAccessModifiers.sol\":443:458  block.timestamp */\n      timestamp\n        /* \"FunctionAccessModifiers.sol\":438:439  5 */\n      0x05\n        /* \"FunctionAccessModifiers.sol\":434:435  b */\n      dup4\n        /* \"FunctionAccessModifiers.sol\":434:439  b + 5 */\n      tag_33\n      swap2\n      swap1\n      tag_27\n      jump\t// in\n    tag_33:\n        /* \"FunctionAccessModifiers.sol\":429:430  a */\n      dup5\n        /* \"FunctionAccessModifiers.sol\":429:440  a * (b + 5) */\n      tag_34\n      swap2\n      swap1\n      tag_31\n      jump\t// in\n    tag_34:\n        /* \"FunctionAccessModifiers.sol\":429:458  a * (b + 5) + block.timestamp */\n      tag_35\n      swap2\n      swap1\n      tag_27\n      jump\t// in\n    tag_35:\n        /* \"FunctionAccessModifiers.sol\":422:458  return a * (b + 5) + block.timestamp */\n      swap1\n      pop\n        /* \"FunctionAccessModifiers.sol\":349:466  function addByView(uint a, uint b) public view returns (uint) {\r... */\n      swap3\n      swap2\n      pop\n      pop\n      jump\t// out\n        /* \"#utility.yul\":7:146   */\n    tag_37:\n        /* \"#utility.yul\":53:58   */\n      0x00\n        /* \"#utility.yul\":91:97   */\n      dup2\n        /* \"#utility.yul\":78:98   */\n      calldataload\n        /* \"#utility.yul\":69:98   */\n      swap1\n      pop\n        /* \"#utility.yul\":107:140   */\n      tag_39\n        /* \"#utility.yul\":134:139   */\n      dup2\n        /* \"#utility.yul\":107:140   */\n      tag_40\n      jump\t// in\n    tag_39:\n        /* \"#utility.yul\":7:146   */\n      swap3\n      swap2\n      pop\n      pop\n      jump\t// out\n        /* \"#utility.yul\":152:481   */\n    tag_9:\n        /* \"#utility.yul\":211:217   */\n      0x00\n        /* \"#utility.yul\":260:262   */\n      0x20\n        /* \"#utility.yul\":248:257   */\n      dup3\n        /* \"#utility.yul\":239:246   */\n      dup5\n        /* \"#utility.yul\":235:258   */\n      sub\n        /* \"#utility.yul\":231:263   */\n      slt\n        /* \"#utility.yul\":228:347   */\n      iszero\n      tag_42\n      jumpi\n        /* \"#utility.yul\":266:345   */\n      tag_43\n      tag_44\n      jump\t// in\n    tag_43:\n        /* \"#utility.yul\":228:347   */\n    tag_42:\n        /* \"#utility.yul\":386:387   */\n      0x00\n        /* \"#utility.yul\":411:464   */\n      tag_45\n        /* \"#utility.yul\":456:463   */\n      dup5\n        /* \"#utility.yul\":447:453   */\n      dup3\n        /* \"#utility.yul\":436:445   */\n      dup6\n        /* \"#utility.yul\":432:454   */\n      add\n        /* \"#utility.yul\":411:464   */\n      tag_37\n      jump\t// in\n    tag_45:\n        /* \"#utility.yul\":401:464   */\n      swap2\n      pop\n        /* \"#utility.yul\":357:474   */\n      pop\n        /* \"#utility.yul\":152:481   */\n      swap3\n      swap2\n      pop\n      pop\n      jump\t// out\n        /* \"#utility.yul\":487:961   */\n    tag_18:\n        /* \"#utility.yul\":555:561   */\n      0x00\n        /* \"#utility.yul\":563:569   */\n      dup1\n        /* \"#utility.yul\":612:614   */\n      0x40\n        /* \"#utility.yul\":600:609   */\n      dup4\n        /* \"#utility.yul\":591:598   */\n      dup6\n        /* \"#utility.yul\":587:610   */\n      sub\n        /* \"#utility.yul\":583:615   */\n      slt\n        /* \"#utility.yul\":580:699   */\n      iszero\n      tag_47\n      jumpi\n        /* \"#utility.yul\":618:697   */\n      tag_48\n      tag_44\n      jump\t// in\n    tag_48:\n        /* \"#utility.yul\":580:699   */\n    tag_47:\n        /* \"#utility.yul\":738:739   */\n      0x00\n        /* \"#utility.yul\":763:816   */\n      tag_49\n        /* \"#utility.yul\":808:815   */\n      dup6\n        /* \"#utility.yul\":799:805   */\n      dup3\n        /* \"#utility.yul\":788:797   */\n      dup7\n        /* \"#utility.yul\":784:806   */\n      add\n        /* \"#utility.yul\":763:816   */\n      tag_37\n      jump\t// in\n    tag_49:\n        /* \"#utility.yul\":753:816   */\n      swap3\n      pop\n        /* \"#utility.yul\":709:826   */\n      pop\n        /* \"#utility.yul\":865:867   */\n      0x20\n        /* \"#utility.yul\":891:944   */\n      tag_50\n        /* \"#utility.yul\":936:943   */\n      dup6\n        /* \"#utility.yul\":927:933   */\n      dup3\n        /* \"#utility.yul\":916:925   */\n      dup7\n        /* \"#utility.yul\":912:934   */\n      add\n        /* \"#utility.yul\":891:944   */\n      tag_37\n      jump\t// in\n    tag_50:\n        /* \"#utility.yul\":881:944   */\n      swap2\n      pop\n        /* \"#utility.yul\":836:954   */\n      pop\n        /* \"#utility.yul\":487:961   */\n      swap3\n      pop\n      swap3\n      swap1\n      pop\n      jump\t// out\n        /* \"#utility.yul\":967:1085   */\n    tag_51:\n        /* \"#utility.yul\":1054:1078   */\n      tag_53\n        /* \"#utility.yul\":1072:1077   */\n      dup2\n        /* \"#utility.yul\":1054:1078   */\n      tag_54\n      jump\t// in\n    tag_53:\n        /* \"#utility.yul\":1049:1052   */\n      dup3\n        /* \"#utility.yul\":1042:1079   */\n      mstore\n        /* \"#utility.yul\":967:1085   */\n      pop\n      pop\n      jump\t// out\n        /* \"#utility.yul\":1091:1313   */\n    tag_12:\n        /* \"#utility.yul\":1184:1188   */\n      0x00\n        /* \"#utility.yul\":1222:1224   */\n      0x20\n        /* \"#utility.yul\":1211:1220   */\n      dup3\n        /* \"#utility.yul\":1207:1225   */\n      add\n        /* \"#utility.yul\":1199:1225   */\n      swap1\n      pop\n        /* \"#utility.yul\":1235:1306   */\n      tag_56\n        /* \"#utility.yul\":1303:1304   */\n      0x00\n        /* \"#utility.yul\":1292:1301   */\n      dup4\n        /* \"#utility.yul\":1288:1305   */\n      add\n        /* \"#utility.yul\":1279:1285   */\n      dup5\n        /* \"#utility.yul\":1235:1306   */\n      tag_51\n      jump\t// in\n    tag_56:\n        /* \"#utility.yul\":1091:1313   */\n      swap3\n      swap2\n      pop\n      pop\n      jump\t// out\n        /* \"#utility.yul\":1400:1705   */\n    tag_27:\n        /* \"#utility.yul\":1440:1443   */\n      0x00\n        /* \"#utility.yul\":1459:1479   */\n      tag_60\n        /* \"#utility.yul\":1477:1478   */\n      dup3\n        /* \"#utility.yul\":1459:1479   */\n      tag_54\n      jump\t// in\n    tag_60:\n        /* \"#utility.yul\":1454:1479   */\n      swap2\n      pop\n        /* \"#utility.yul\":1493:1513   */\n      tag_61\n        /* \"#utility.yul\":1511:1512   */\n      dup4\n        /* \"#utility.yul\":1493:1513   */\n      tag_54\n      jump\t// in\n    tag_61:\n        /* \"#utility.yul\":1488:1513   */\n      swap3\n      pop\n        /* \"#utility.yul\":1647:1648   */\n      dup3\n        /* \"#utility.yul\":1579:1645   */\n      0xffffffffffffffffffffffffffffffffffffffffffffffffffffffffffffffff\n        /* \"#utility.yul\":1575:1649   */\n      sub\n        /* \"#utility.yul\":1572:1573   */\n      dup3\n        /* \"#utility.yul\":1569:1650   */\n      gt\n        /* \"#utility.yul\":1566:1673   */\n      iszero\n      tag_62\n      jumpi\n        /* \"#utility.yul\":1653:1671   */\n      tag_63\n      tag_64\n      jump\t// in\n    tag_63:\n        /* \"#utility.yul\":1566:1673   */\n    tag_62:\n        /* \"#utility.yul\":1697:1698   */\n      dup3\n        /* \"#utility.yul\":1694:1695   */\n      dup3\n        /* \"#utility.yul\":1690:1699   */\n      add\n        /* \"#utility.yul\":1683:1699   */\n      swap1\n      pop\n        /* \"#utility.yul\":1400:1705   */\n      swap3\n      swap2\n      pop\n      pop\n      jump\t// out\n        /* \"#utility.yul\":1711:2059   */\n    tag_31:\n        /* \"#utility.yul\":1751:1758   */\n      0x00\n        /* \"#utility.yul\":1774:1794   */\n      tag_66\n        /* \"#utility.yul\":1792:1793   */\n      dup3\n        /* \"#utility.yul\":1774:1794   */\n      tag_54\n      jump\t// in\n    tag_66:\n        /* \"#utility.yul\":1769:1794   */\n      swap2\n      pop\n        /* \"#utility.yul\":1808:1828   */\n      tag_67\n        /* \"#utility.yul\":1826:1827   */\n      dup4\n        /* \"#utility.yul\":1808:1828   */\n      tag_54\n      jump\t// in\n    tag_67:\n        /* \"#utility.yul\":1803:1828   */\n      swap3\n      pop\n        /* \"#utility.yul\":1996:1997   */\n      dup2\n        /* \"#utility.yul\":1928:1994   */\n      0xffffffffffffffffffffffffffffffffffffffffffffffffffffffffffffffff\n        /* \"#utility.yul\":1924:1998   */\n      div\n        /* \"#utility.yul\":1921:1922   */\n      dup4\n        /* \"#utility.yul\":1918:1999   */\n      gt\n        /* \"#utility.yul\":1913:1914   */\n      dup3\n        /* \"#utility.yul\":1906:1915   */\n      iszero\n        /* \"#utility.yul\":1899:1916   */\n      iszero\n        /* \"#utility.yul\":1895:2000   */\n      and\n        /* \"#utility.yul\":1892:2023   */\n      iszero\n      tag_68\n      jumpi\n        /* \"#utility.yul\":2003:2021   */\n      tag_69\n      tag_64\n      jump\t// in\n    tag_69:\n        /* \"#utility.yul\":1892:2023   */\n    tag_68:\n        /* \"#utility.yul\":2051:2052   */\n      dup3\n        /* \"#utility.yul\":2048:2049   */\n      dup3\n        /* \"#utility.yul\":2044:2053   */\n      mul\n        /* \"#utility.yul\":2033:2053   */\n      swap1\n      pop\n        /* \"#utility.yul\":1711:2059   */\n      swap3\n      swap2\n      pop\n      pop\n      jump\t// out\n        /* \"#utility.yul\":2065:2142   */\n    tag_54:\n        /* \"#utility.yul\":2102:2109   */\n      0x00\n        /* \"#utility.yul\":2131:2136   */\n      dup2\n        /* \"#utility.yul\":2120:2136   */\n      swap1\n      pop\n        /* \"#utility.yul\":2065:2142   */\n      swap2\n      swap1\n      pop\n      jump\t// out\n        /* \"#utility.yul\":2148:2328   */\n    tag_64:\n        /* \"#utility.yul\":2196:2273   */\n      0x4e487b7100000000000000000000000000000000000000000000000000000000\n        /* \"#utility.yul\":2193:2194   */\n      0x00\n        /* \"#utility.yul\":2186:2274   */\n      mstore\n        /* \"#utility.yul\":2293:2297   */\n      0x11\n        /* \"#utility.yul\":2290:2291   */\n      0x04\n        /* \"#utility.yul\":2283:2298   */\n      mstore\n        /* \"#utility.yul\":2317:2321   */\n      0x24\n        /* \"#utility.yul\":2314:2315   */\n      0x00\n        /* \"#utility.yul\":2307:2322   */\n      revert\n        /* \"#utility.yul\":2457:2574   */\n    tag_44:\n        /* \"#utility.yul\":2566:2567   */\n      0x00\n        /* \"#utility.yul\":2563:2564   */\n      dup1\n        /* \"#utility.yul\":2556:2568   */\n      revert\n        /* \"#utility.yul\":2580:2702   */\n    tag_40:\n        /* \"#utility.yul\":2653:2677   */\n      tag_76\n        /* \"#utility.yul\":2671:2676   */\n      dup2\n        /* \"#utility.yul\":2653:2677   */\n      tag_54\n      jump\t// in\n    tag_76:\n        /* \"#utility.yul\":2646:2651   */\n      dup2\n        /* \"#utility.yul\":2643:2678   */\n      eq\n        /* \"#utility.yul\":2633:2696   */\n      tag_77\n      jumpi\n        /* \"#utility.yul\":2692:2693   */\n      0x00\n        /* \"#utility.yul\":2689:2690   */\n      dup1\n        /* \"#utility.yul\":2682:2694   */\n      revert\n        /* \"#utility.yul\":2633:2696   */\n    tag_77:\n        /* \"#utility.yul\":2580:2702   */\n      pop\n      jump\t// out\n\n    auxdata: 0xa2646970667358221220b45df335d059b43c82f66a55d1d564ea7d3276b2206b3177916751eb90940dcd64736f6c63430008070033\n}\n",
				"bytecode": {
					"linkReferences": {},
					"object": "6080604052601c60005534801561001557600080fd5b50610352806100256000396000f3fe608060405234801561001057600080fd5b506004361061004c5760003560e01c80631003e2d2146100515780638381f58a146100815780638ceffa371461009f57806395d0390d146100cf575b600080fd5b61006b60048036038101906100669190610180565b6100ff565b60405161007891906101fc565b60405180910390f35b610089610116565b60405161009691906101fc565b60405180910390f35b6100b960048036038101906100b491906101ad565b61011c565b6040516100c691906101fc565b60405180910390f35b6100e960048036038101906100e491906101ad565b61013e565b6040516100f691906101fc565b60405180910390f35b60008160005461010f9190610217565b9050919050565b60005481565b600060058261012b9190610217565b83610136919061026d565b905092915050565b60004260058361014e9190610217565b84610159919061026d565b6101639190610217565b905092915050565b60008135905061017a81610305565b92915050565b60006020828403121561019657610195610300565b5b60006101a48482850161016b565b91505092915050565b600080604083850312156101c4576101c3610300565b5b60006101d28582860161016b565b92505060206101e38582860161016b565b9150509250929050565b6101f6816102c7565b82525050565b600060208201905061021160008301846101ed565b92915050565b6000610222826102c7565b915061022d836102c7565b9250827fffffffffffffffffffffffffffffffffffffffffffffffffffffffffffffffff03821115610262576102616102d1565b5b828201905092915050565b6000610278826102c7565b9150610283836102c7565b9250817fffffffffffffffffffffffffffffffffffffffffffffffffffffffffffffffff04831182151516156102bc576102bb6102d1565b5b828202905092915050565b6000819050919050565b7f4e487b7100000000000000000000000000000000000000000000000000000000600052601160045260246000fd5b600080fd5b61030e816102c7565b811461031957600080fd5b5056fea2646970667358221220b45df335d059b43c82f66a55d1d564ea7d3276b2206b3177916751eb90940dcd64736f6c63430008070033",
					"opcodes": "PUSH1 0x80 PUSH1 0x40 MSTORE PUSH1 0x1C PUSH1 0x0 SSTORE CALLVALUE DUP1 ISZERO PUSH2 0x15 JUMPI PUSH1 0x0 DUP1 REVERT JUMPDEST POP PUSH2 0x352 DUP1 PUSH2 0x25 PUSH1 0x0 CODECOPY PUSH1 0x0 RETURN INVALID PUSH1 0x80 PUSH1 0x40 MSTORE CALLVALUE DUP1 ISZERO PUSH2 0x10 JUMPI PUSH1 0x0 DUP1 REVERT JUMPDEST POP PUSH1 0x4 CALLDATASIZE LT PUSH2 0x4C JUMPI PUSH1 0x0 CALLDATALOAD PUSH1 0xE0 SHR DUP1 PUSH4 0x1003E2D2 EQ PUSH2 0x51 JUMPI DUP1 PUSH4 0x8381F58A EQ PUSH2 0x81 JUMPI DUP1 PUSH4 0x8CEFFA37 EQ PUSH2 0x9F JUMPI DUP1 PUSH4 0x95D0390D EQ PUSH2 0xCF JUMPI JUMPDEST PUSH1 0x0 DUP1 REVERT JUMPDEST PUSH2 0x6B PUSH1 0x4 DUP1 CALLDATASIZE SUB DUP2 ADD SWAP1 PUSH2 0x66 SWAP2 SWAP1 PUSH2 0x180 JUMP JUMPDEST PUSH2 0xFF JUMP JUMPDEST PUSH1 0x40 MLOAD PUSH2 0x78 SWAP2 SWAP1 PUSH2 0x1FC JUMP JUMPDEST PUSH1 0x40 MLOAD DUP1 SWAP2 SUB SWAP1 RETURN JUMPDEST PUSH2 0x89 PUSH2 0x116 JUMP JUMPDEST PUSH1 0x40 MLOAD PUSH2 0x96 SWAP2 SWAP1 PUSH2 0x1FC JUMP JUMPDEST PUSH1 0x40 MLOAD DUP1 SWAP2 SUB SWAP1 RETURN JUMPDEST PUSH2 0xB9 PUSH1 0x4 DUP1 CALLDATASIZE SUB DUP2 ADD SWAP1 PUSH2 0xB4 SWAP2 SWAP1 PUSH2 0x1AD JUMP JUMPDEST PUSH2 0x11C JUMP JUMPDEST PUSH1 0x40 MLOAD PUSH2 0xC6 SWAP2 SWAP1 PUSH2 0x1FC JUMP JUMPDEST PUSH1 0x40 MLOAD DUP1 SWAP2 SUB SWAP1 RETURN JUMPDEST PUSH2 0xE9 PUSH1 0x4 DUP1 CALLDATASIZE SUB DUP2 ADD SWAP1 PUSH2 0xE4 SWAP2 SWAP1 PUSH2 0x1AD JUMP JUMPDEST PUSH2 0x13E JUMP JUMPDEST PUSH1 0x40 MLOAD PUSH2 0xF6 SWAP2 SWAP1 PUSH2 0x1FC JUMP JUMPDEST PUSH1 0x40 MLOAD DUP1 SWAP2 SUB SWAP1 RETURN JUMPDEST PUSH1 0x0 DUP2 PUSH1 0x0 SLOAD PUSH2 0x10F SWAP2 SWAP1 PUSH2 0x217 JUMP JUMPDEST SWAP1 POP SWAP2 SWAP1 POP JUMP JUMPDEST PUSH1 0x0 SLOAD DUP2 JUMP JUMPDEST PUSH1 0x0 PUSH1 0x5 DUP3 PUSH2 0x12B SWAP2 SWAP1 PUSH2 0x217 JUMP JUMPDEST DUP4 PUSH2 0x136 SWAP2 SWAP1 PUSH2 0x26D JUMP JUMPDEST SWAP1 POP SWAP3 SWAP2 POP POP JUMP JUMPDEST PUSH1 0x0 TIMESTAMP PUSH1 0x5 DUP4 PUSH2 0x14E SWAP2 SWAP1 PUSH2 0x217 JUMP JUMPDEST DUP5 PUSH2 0x159 SWAP2 SWAP1 PUSH2 0x26D JUMP JUMPDEST PUSH2 0x163 SWAP2 SWAP1 PUSH2 0x217 JUMP JUMPDEST SWAP1 POP SWAP3 SWAP2 POP POP JUMP JUMPDEST PUSH1 0x0 DUP2 CALLDATALOAD SWAP1 POP PUSH2 0x17A DUP2 PUSH2 0x305 JUMP JUMPDEST SWAP3 SWAP2 POP POP JUMP JUMPDEST PUSH1 0x0 PUSH1 0x20 DUP3 DUP5 SUB SLT ISZERO PUSH2 0x196 JUMPI PUSH2 0x195 PUSH2 0x300 JUMP JUMPDEST JUMPDEST PUSH1 0x0 PUSH2 0x1A4 DUP5 DUP3 DUP6 ADD PUSH2 0x16B JUMP JUMPDEST SWAP2 POP POP SWAP3 SWAP2 POP POP JUMP JUMPDEST PUSH1 0x0 DUP1 PUSH1 0x40 DUP4 DUP6 SUB SLT ISZERO PUSH2 0x1C4 JUMPI PUSH2 0x1C3 PUSH2 0x300 JUMP JUMPDEST JUMPDEST PUSH1 0x0 PUSH2 0x1D2 DUP6 DUP3 DUP7 ADD PUSH2 0x16B JUMP JUMPDEST SWAP3 POP POP PUSH1 0x20 PUSH2 0x1E3 DUP6 DUP3 DUP7 ADD PUSH2 0x16B JUMP JUMPDEST SWAP2 POP POP SWAP3 POP SWAP3 SWAP1 POP JUMP JUMPDEST PUSH2 0x1F6 DUP2 PUSH2 0x2C7 JUMP JUMPDEST DUP3 MSTORE POP POP JUMP JUMPDEST PUSH1 0x0 PUSH1 0x20 DUP3 ADD SWAP1 POP PUSH2 0x211 PUSH1 0x0 DUP4 ADD DUP5 PUSH2 0x1ED JUMP JUMPDEST SWAP3 SWAP2 POP POP JUMP JUMPDEST PUSH1 0x0 PUSH2 0x222 DUP3 PUSH2 0x2C7 JUMP JUMPDEST SWAP2 POP PUSH2 0x22D DUP4 PUSH2 0x2C7 JUMP JUMPDEST SWAP3 POP DUP3 PUSH32 0xFFFFFFFFFFFFFFFFFFFFFFFFFFFFFFFFFFFFFFFFFFFFFFFFFFFFFFFFFFFFFFFF SUB DUP3 GT ISZERO PUSH2 0x262 JUMPI PUSH2 0x261 PUSH2 0x2D1 JUMP JUMPDEST JUMPDEST DUP3 DUP3 ADD SWAP1 POP SWAP3 SWAP2 POP POP JUMP JUMPDEST PUSH1 0x0 PUSH2 0x278 DUP3 PUSH2 0x2C7 JUMP JUMPDEST SWAP2 POP PUSH2 0x283 DUP4 PUSH2 0x2C7 JUMP JUMPDEST SWAP3 POP DUP2 PUSH32 0xFFFFFFFFFFFFFFFFFFFFFFFFFFFFFFFFFFFFFFFFFFFFFFFFFFFFFFFFFFFFFFFF DIV DUP4 GT DUP3 ISZERO ISZERO AND ISZERO PUSH2 0x2BC JUMPI PUSH2 0x2BB PUSH2 0x2D1 JUMP JUMPDEST JUMPDEST DUP3 DUP3 MUL SWAP1 POP SWAP3 SWAP2 POP POP JUMP JUMPDEST PUSH1 0x0 DUP2 SWAP1 POP SWAP2 SWAP1 POP JUMP JUMPDEST PUSH32 0x4E487B7100000000000000000000000000000000000000000000000000000000 PUSH1 0x0 MSTORE PUSH1 0x11 PUSH1 0x4 MSTORE PUSH1 0x24 PUSH1 0x0 REVERT JUMPDEST PUSH1 0x0 DUP1 REVERT JUMPDEST PUSH2 0x30E DUP2 PUSH2 0x2C7 JUMP JUMPDEST DUP2 EQ PUSH2 0x319 JUMPI PUSH1 0x0 DUP1 REVERT JUMPDEST POP JUMP INVALID LOG2 PUSH5 0x6970667358 0x22 SLT KECCAK256 0xB4 0x5D RETURN CALLDATALOAD 0xD0 MSIZE 0xB4 EXTCODECOPY DUP3 0xF6 PUSH11 0x55D1D564EA7D3276B2206B BALANCE PUSH24 0x916751EB90940DCD64736F6C634300080700330000000000 "
				},
				"gasEstimates": {
					"creation": {
						"codeDepositCost": "170000",
						"executionCost": "22320",
						"totalCost": "192320"
					},
					"external": {
						"add(uint256)": "infinite",
						"addByPure(uint256,uint256)": "infinite",
						"addByView(uint256,uint256)": "infinite",
						"number()": "2429"
					}
				},
				"methodIdentifiers": {
					"add(uint256)": "1003e2d2",
					"addByPure(uint256,uint256)": "8ceffa37",
					"addByView(uint256,uint256)": "95d0390d",
					"number()": "8381f58a"
				}
			},
			"storageLayout": {
				"storage": [
					{
						"astId": 4,
						"contract": "FunctionAccessModifiers.sol:Functions",
						"label": "number",
						"offset": 0,
						"slot": "0",
						"type": "t_uint256"
					}
				],
				"types": {
					"t_uint256": {
						"encoding": "inplace",
						"label": "uint256",
						"numberOfBytes": "32"
					}
				}
			},
			"userdoc": {
				"kind": "user",
				"methods": {},
				"version": 1
			}
		}
	}
}