{
	"Library.sol": {
		"Search": {
			"abi": [
				{
					"inputs": [
						{
							"internalType": "uint256[]",
							"name": "list",
							"type": "uint256[]"
						},
						{
							"internalType": "uint256",
							"name": "data",
							"type": "uint256"
						}
					],
					"name": "indexOf",
					"outputs": [
						{
							"internalType": "uint256",
							"name": "",
							"type": "uint256"
						}
					],
					"stateMutability": "pure",
					"type": "function"
				}
			],
			"devdoc": {
				"kind": "dev",
				"methods": {},
				"version": 1
			},
			"evm": {
				"assembly": "    /* \"Library.sol\":854:1129  library Search {\r... */\n  dataSize(sub_0)\n  dataOffset(sub_0)\n  0x0b\n  dup3\n  dup3\n  dup3\n  codecopy\n  dup1\n  mload\n  0x00\n  byte\n  0x73\n  eq\n  tag_1\n  jumpi\n  mstore(0x00, 0x4e487b7100000000000000000000000000000000000000000000000000000000)\n  mstore(0x04, 0x00)\n  revert(0x00, 0x24)\ntag_1:\n  mstore(0x00, address)\n  0x73\n  dup2\n  mstore8\n  dup3\n  dup2\n  return\nstop\n\nsub_0: assembly {\n        /* \"Library.sol\":854:1129  library Search {\r... */\n      eq(address, deployTimeAddress())\n      mstore(0x40, 0x80)\n      jumpi(tag_1, lt(calldatasize, 0x04))\n      shr(0xe0, calldataload(0x00))\n      dup1\n      0x6457237b\n      eq\n      tag_2\n      jumpi\n    tag_1:\n      0x00\n      dup1\n      revert\n        /* \"Library.sol\":876:1126  function indexOf(uint[] memory list, uint data) public pure returns(uint) {\r... */\n    tag_2:\n      tag_3\n      0x04\n      dup1\n      calldatasize\n      sub\n      dup2\n      add\n      swap1\n      tag_4\n      swap2\n      swap1\n      tag_5\n      jump\t// in\n    tag_4:\n      tag_6\n      jump\t// in\n    tag_3:\n      mload(0x40)\n      tag_7\n      swap2\n      swap1\n      tag_8\n      jump\t// in\n    tag_7:\n      mload(0x40)\n      dup1\n      swap2\n      sub\n      swap1\n      return\n    tag_6:\n        /* \"Library.sol\":944:948  uint */\n      0x00\n        /* \"Library.sol\":966:972  uint i */\n      dup1\n        /* \"Library.sol\":975:976  0 */\n      0x00\n        /* \"Library.sol\":966:976  uint i = 0 */\n      swap1\n      pop\n        /* \"Library.sol\":961:1090  for (uint i = 0; i < list.length; i++) {\r... */\n    tag_10:\n        /* \"Library.sol\":982:986  list */\n      dup4\n        /* \"Library.sol\":982:993  list.length */\n      mload\n        /* \"Library.sol\":978:979  i */\n      dup2\n        /* \"Library.sol\":978:993  i < list.length */\n      lt\n        /* \"Library.sol\":961:1090  for (uint i = 0; i < list.length; i++) {\r... */\n      iszero\n      tag_11\n      jumpi\n        /* \"Library.sol\":1030:1034  data */\n      dup3\n        /* \"Library.sol\":1019:1023  list */\n      dup5\n        /* \"Library.sol\":1024:1025  i */\n      dup3\n        /* \"Library.sol\":1019:1026  list[i] */\n      dup2\n      mload\n      dup2\n      lt\n      tag_13\n      jumpi\n      tag_14\n      tag_15\n      jump\t// in\n    tag_14:\n    tag_13:\n      0x20\n      mul\n      0x20\n      add\n      add\n      mload\n        /* \"Library.sol\":1019:1034  list[i] == data */\n      eq\n        /* \"Library.sol\":1015:1079  if (list[i] == data) {\r... */\n      iszero\n      tag_16\n      jumpi\n        /* \"Library.sol\":1062:1063  i */\n      dup1\n        /* \"Library.sol\":1055:1063  return i */\n      swap2\n      pop\n      pop\n      jump(tag_9)\n        /* \"Library.sol\":1015:1079  if (list[i] == data) {\r... */\n    tag_16:\n        /* \"Library.sol\":995:998  i++ */\n      dup1\n      dup1\n      tag_17\n      swap1\n      tag_18\n      jump\t// in\n    tag_17:\n      swap2\n      pop\n      pop\n        /* \"Library.sol\":961:1090  for (uint i = 0; i < list.length; i++) {\r... */\n      jump(tag_10)\n    tag_11:\n      pop\n        /* \"Library.sol\":1107:1111  list */\n      dup3\n        /* \"Library.sol\":1107:1118  list.length */\n      mload\n        /* \"Library.sol\":1100:1118  return list.length */\n      swap1\n      pop\n        /* \"Library.sol\":876:1126  function indexOf(uint[] memory list, uint data) public pure returns(uint) {\r... */\n    tag_9:\n      swap3\n      swap2\n      pop\n      pop\n      jump\t// out\n        /* \"#utility.yul\":24:746   */\n    tag_20:\n        /* \"#utility.yul\":120:125   */\n      0x00\n        /* \"#utility.yul\":145:226   */\n      tag_22\n        /* \"#utility.yul\":161:225   */\n      tag_23\n        /* \"#utility.yul\":218:224   */\n      dup5\n        /* \"#utility.yul\":161:225   */\n      tag_24\n      jump\t// in\n    tag_23:\n        /* \"#utility.yul\":145:226   */\n      tag_25\n      jump\t// in\n    tag_22:\n        /* \"#utility.yul\":136:226   */\n      swap1\n      pop\n        /* \"#utility.yul\":246:251   */\n      dup1\n        /* \"#utility.yul\":275:281   */\n      dup4\n        /* \"#utility.yul\":268:273   */\n      dup3\n        /* \"#utility.yul\":261:282   */\n      mstore\n        /* \"#utility.yul\":309:313   */\n      0x20\n        /* \"#utility.yul\":302:307   */\n      dup3\n        /* \"#utility.yul\":298:314   */\n      add\n        /* \"#utility.yul\":291:314   */\n      swap1\n      pop\n        /* \"#utility.yul\":335:341   */\n      dup3\n        /* \"#utility.yul\":385:388   */\n      dup6\n        /* \"#utility.yul\":377:381   */\n      0x20\n        /* \"#utility.yul\":369:375   */\n      dup7\n        /* \"#utility.yul\":365:382   */\n      mul\n        /* \"#utility.yul\":360:363   */\n      dup3\n        /* \"#utility.yul\":356:383   */\n      add\n        /* \"#utility.yul\":353:389   */\n      gt\n        /* \"#utility.yul\":350:493   */\n      iszero\n      tag_26\n      jumpi\n        /* \"#utility.yul\":404:483   */\n      tag_27\n      tag_28\n      jump\t// in\n    tag_27:\n        /* \"#utility.yul\":350:493   */\n    tag_26:\n        /* \"#utility.yul\":517:518   */\n      0x00\n        /* \"#utility.yul\":502:740   */\n    tag_29:\n        /* \"#utility.yul\":527:533   */\n      dup6\n        /* \"#utility.yul\":524:525   */\n      dup2\n        /* \"#utility.yul\":521:534   */\n      lt\n        /* \"#utility.yul\":502:740   */\n      iszero\n      tag_31\n      jumpi\n        /* \"#utility.yul\":595:598   */\n      dup2\n        /* \"#utility.yul\":624:661   */\n      tag_32\n        /* \"#utility.yul\":657:660   */\n      dup9\n        /* \"#utility.yul\":645:655   */\n      dup3\n        /* \"#utility.yul\":624:661   */\n      tag_33\n      jump\t// in\n    tag_32:\n        /* \"#utility.yul\":619:622   */\n      dup5\n        /* \"#utility.yul\":612:662   */\n      mstore\n        /* \"#utility.yul\":691:695   */\n      0x20\n        /* \"#utility.yul\":686:689   */\n      dup5\n        /* \"#utility.yul\":682:696   */\n      add\n        /* \"#utility.yul\":675:696   */\n      swap4\n      pop\n        /* \"#utility.yul\":725:729   */\n      0x20\n        /* \"#utility.yul\":720:723   */\n      dup4\n        /* \"#utility.yul\":716:730   */\n      add\n        /* \"#utility.yul\":709:730   */\n      swap3\n      pop\n        /* \"#utility.yul\":562:740   */\n      pop\n        /* \"#utility.yul\":549:550   */\n      0x01\n        /* \"#utility.yul\":546:547   */\n      dup2\n        /* \"#utility.yul\":542:551   */\n      add\n        /* \"#utility.yul\":537:551   */\n      swap1\n      pop\n        /* \"#utility.yul\":502:740   */\n      jump(tag_29)\n    tag_31:\n        /* \"#utility.yul\":506:520   */\n      pop\n        /* \"#utility.yul\":126:746   */\n      pop\n      pop\n        /* \"#utility.yul\":24:746   */\n      swap4\n      swap3\n      pop\n      pop\n      pop\n      jump\t// out\n        /* \"#utility.yul\":769:1139   */\n    tag_34:\n        /* \"#utility.yul\":840:845   */\n      0x00\n        /* \"#utility.yul\":889:892   */\n      dup3\n        /* \"#utility.yul\":882:886   */\n      0x1f\n        /* \"#utility.yul\":874:880   */\n      dup4\n        /* \"#utility.yul\":870:887   */\n      add\n        /* \"#utility.yul\":866:893   */\n      slt\n        /* \"#utility.yul\":856:978   */\n      tag_36\n      jumpi\n        /* \"#utility.yul\":897:976   */\n      tag_37\n      tag_38\n      jump\t// in\n    tag_37:\n        /* \"#utility.yul\":856:978   */\n    tag_36:\n        /* \"#utility.yul\":1014:1020   */\n      dup2\n        /* \"#utility.yul\":1001:1021   */\n      calldataload\n        /* \"#utility.yul\":1039:1133   */\n      tag_39\n        /* \"#utility.yul\":1129:1132   */\n      dup5\n        /* \"#utility.yul\":1121:1127   */\n      dup3\n        /* \"#utility.yul\":1114:1118   */\n      0x20\n        /* \"#utility.yul\":1106:1112   */\n      dup7\n        /* \"#utility.yul\":1102:1119   */\n      add\n        /* \"#utility.yul\":1039:1133   */\n      tag_20\n      jump\t// in\n    tag_39:\n        /* \"#utility.yul\":1030:1133   */\n      swap2\n      pop\n        /* \"#utility.yul\":846:1139   */\n      pop\n        /* \"#utility.yul\":769:1139   */\n      swap3\n      swap2\n      pop\n      pop\n      jump\t// out\n        /* \"#utility.yul\":1145:1284   */\n    tag_33:\n        /* \"#utility.yul\":1191:1196   */\n      0x00\n        /* \"#utility.yul\":1229:1235   */\n      dup2\n        /* \"#utility.yul\":1216:1236   */\n      calldataload\n        /* \"#utility.yul\":1207:1236   */\n      swap1\n      pop\n        /* \"#utility.yul\":1245:1278   */\n      tag_41\n        /* \"#utility.yul\":1272:1277   */\n      dup2\n        /* \"#utility.yul\":1245:1278   */\n      tag_42\n      jump\t// in\n    tag_41:\n        /* \"#utility.yul\":1145:1284   */\n      swap3\n      swap2\n      pop\n      pop\n      jump\t// out\n        /* \"#utility.yul\":1290:1974   */\n    tag_5:\n        /* \"#utility.yul\":1383:1389   */\n      0x00\n        /* \"#utility.yul\":1391:1397   */\n      dup1\n        /* \"#utility.yul\":1440:1442   */\n      0x40\n        /* \"#utility.yul\":1428:1437   */\n      dup4\n        /* \"#utility.yul\":1419:1426   */\n      dup6\n        /* \"#utility.yul\":1415:1438   */\n      sub\n        /* \"#utility.yul\":1411:1443   */\n      slt\n        /* \"#utility.yul\":1408:1527   */\n      iszero\n      tag_44\n      jumpi\n        /* \"#utility.yul\":1446:1525   */\n      tag_45\n      tag_46\n      jump\t// in\n    tag_45:\n        /* \"#utility.yul\":1408:1527   */\n    tag_44:\n        /* \"#utility.yul\":1594:1595   */\n      0x00\n        /* \"#utility.yul\":1583:1592   */\n      dup4\n        /* \"#utility.yul\":1579:1596   */\n      add\n        /* \"#utility.yul\":1566:1597   */\n      calldataload\n        /* \"#utility.yul\":1624:1642   */\n      0xffffffffffffffff\n        /* \"#utility.yul\":1616:1622   */\n      dup2\n        /* \"#utility.yul\":1613:1643   */\n      gt\n        /* \"#utility.yul\":1610:1727   */\n      iszero\n      tag_47\n      jumpi\n        /* \"#utility.yul\":1646:1725   */\n      tag_48\n      tag_49\n      jump\t// in\n    tag_48:\n        /* \"#utility.yul\":1610:1727   */\n    tag_47:\n        /* \"#utility.yul\":1751:1829   */\n      tag_50\n        /* \"#utility.yul\":1821:1828   */\n      dup6\n        /* \"#utility.yul\":1812:1818   */\n      dup3\n        /* \"#utility.yul\":1801:1810   */\n      dup7\n        /* \"#utility.yul\":1797:1819   */\n      add\n        /* \"#utility.yul\":1751:1829   */\n      tag_34\n      jump\t// in\n    tag_50:\n        /* \"#utility.yul\":1741:1829   */\n      swap3\n      pop\n        /* \"#utility.yul\":1537:1839   */\n      pop\n        /* \"#utility.yul\":1878:1880   */\n      0x20\n        /* \"#utility.yul\":1904:1957   */\n      tag_51\n        /* \"#utility.yul\":1949:1956   */\n      dup6\n        /* \"#utility.yul\":1940:1946   */\n      dup3\n        /* \"#utility.yul\":1929:1938   */\n      dup7\n        /* \"#utility.yul\":1925:1947   */\n      add\n        /* \"#utility.yul\":1904:1957   */\n      tag_33\n      jump\t// in\n    tag_51:\n        /* \"#utility.yul\":1894:1957   */\n      swap2\n      pop\n        /* \"#utility.yul\":1849:1967   */\n      pop\n        /* \"#utility.yul\":1290:1974   */\n      swap3\n      pop\n      swap3\n      swap1\n      pop\n      jump\t// out\n        /* \"#utility.yul\":1980:2106   */\n    tag_52:\n        /* \"#utility.yul\":2075:2099   */\n      tag_54\n        /* \"#utility.yul\":2093:2098   */\n      dup2\n        /* \"#utility.yul\":2075:2099   */\n      tag_55\n      jump\t// in\n    tag_54:\n        /* \"#utility.yul\":2070:2073   */\n      dup3\n        /* \"#utility.yul\":2063:2100   */\n      mstore\n        /* \"#utility.yul\":1980:2106   */\n      pop\n      pop\n      jump\t// out\n        /* \"#utility.yul\":2112:2350   */\n    tag_8:\n        /* \"#utility.yul\":2213:2217   */\n      0x00\n        /* \"#utility.yul\":2251:2253   */\n      0x20\n        /* \"#utility.yul\":2240:2249   */\n      dup3\n        /* \"#utility.yul\":2236:2254   */\n      add\n        /* \"#utility.yul\":2228:2254   */\n      swap1\n      pop\n        /* \"#utility.yul\":2264:2343   */\n      tag_57\n        /* \"#utility.yul\":2340:2341   */\n      0x00\n        /* \"#utility.yul\":2329:2338   */\n      dup4\n        /* \"#utility.yul\":2325:2342   */\n      add\n        /* \"#utility.yul\":2316:2322   */\n      dup5\n        /* \"#utility.yul\":2264:2343   */\n      tag_52\n      jump\t// in\n    tag_57:\n        /* \"#utility.yul\":2112:2350   */\n      swap3\n      swap2\n      pop\n      pop\n      jump\t// out\n        /* \"#utility.yul\":2356:2485   */\n    tag_25:\n        /* \"#utility.yul\":2390:2396   */\n      0x00\n        /* \"#utility.yul\":2417:2437   */\n      tag_59\n      tag_60\n      jump\t// in\n    tag_59:\n        /* \"#utility.yul\":2407:2437   */\n      swap1\n      pop\n        /* \"#utility.yul\":2446:2479   */\n      tag_61\n        /* \"#utility.yul\":2474:2478   */\n      dup3\n        /* \"#utility.yul\":2466:2472   */\n      dup3\n        /* \"#utility.yul\":2446:2479   */\n      tag_62\n      jump\t// in\n    tag_61:\n        /* \"#utility.yul\":2356:2485   */\n      swap2\n      swap1\n      pop\n      jump\t// out\n        /* \"#utility.yul\":2491:2566   */\n    tag_60:\n        /* \"#utility.yul\":2524:2530   */\n      0x00\n        /* \"#utility.yul\":2557:2559   */\n      0x40\n        /* \"#utility.yul\":2551:2560   */\n      mload\n        /* \"#utility.yul\":2541:2560   */\n      swap1\n      pop\n        /* \"#utility.yul\":2491:2566   */\n      swap1\n      jump\t// out\n        /* \"#utility.yul\":2572:2883   */\n    tag_24:\n        /* \"#utility.yul\":2649:2653   */\n      0x00\n        /* \"#utility.yul\":2739:2757   */\n      0xffffffffffffffff\n        /* \"#utility.yul\":2731:2737   */\n      dup3\n        /* \"#utility.yul\":2728:2758   */\n      gt\n        /* \"#utility.yul\":2725:2781   */\n      iszero\n      tag_65\n      jumpi\n        /* \"#utility.yul\":2761:2779   */\n      tag_66\n      tag_67\n      jump\t// in\n    tag_66:\n        /* \"#utility.yul\":2725:2781   */\n    tag_65:\n        /* \"#utility.yul\":2811:2815   */\n      0x20\n        /* \"#utility.yul\":2803:2809   */\n      dup3\n        /* \"#utility.yul\":2799:2816   */\n      mul\n        /* \"#utility.yul\":2791:2816   */\n      swap1\n      pop\n        /* \"#utility.yul\":2871:2875   */\n      0x20\n        /* \"#utility.yul\":2865:2869   */\n      dup2\n        /* \"#utility.yul\":2861:2876   */\n      add\n        /* \"#utility.yul\":2853:2876   */\n      swap1\n      pop\n        /* \"#utility.yul\":2572:2883   */\n      swap2\n      swap1\n      pop\n      jump\t// out\n        /* \"#utility.yul\":2889:2966   */\n    tag_55:\n        /* \"#utility.yul\":2926:2933   */\n      0x00\n        /* \"#utility.yul\":2955:2960   */\n      dup2\n        /* \"#utility.yul\":2944:2960   */\n      swap1\n      pop\n        /* \"#utility.yul\":2889:2966   */\n      swap2\n      swap1\n      pop\n      jump\t// out\n        /* \"#utility.yul\":2972:3253   */\n    tag_62:\n        /* \"#utility.yul\":3055:3082   */\n      tag_70\n        /* \"#utility.yul\":3077:3081   */\n      dup3\n        /* \"#utility.yul\":3055:3082   */\n      tag_71\n      jump\t// in\n    tag_70:\n        /* \"#utility.yul\":3047:3053   */\n      dup2\n        /* \"#utility.yul\":3043:3083   */\n      add\n        /* \"#utility.yul\":3185:3191   */\n      dup2\n        /* \"#utility.yul\":3173:3183   */\n      dup2\n        /* \"#utility.yul\":3170:3192   */\n      lt\n        /* \"#utility.yul\":3149:3167   */\n      0xffffffffffffffff\n        /* \"#utility.yul\":3137:3147   */\n      dup3\n        /* \"#utility.yul\":3134:3168   */\n      gt\n        /* \"#utility.yul\":3131:3193   */\n      or\n        /* \"#utility.yul\":3128:3216   */\n      iszero\n      tag_72\n      jumpi\n        /* \"#utility.yul\":3196:3214   */\n      tag_73\n      tag_67\n      jump\t// in\n    tag_73:\n        /* \"#utility.yul\":3128:3216   */\n    tag_72:\n        /* \"#utility.yul\":3236:3246   */\n      dup1\n        /* \"#utility.yul\":3232:3234   */\n      0x40\n        /* \"#utility.yul\":3225:3247   */\n      mstore\n        /* \"#utility.yul\":3015:3253   */\n      pop\n        /* \"#utility.yul\":2972:3253   */\n      pop\n      pop\n      jump\t// out\n        /* \"#utility.yul\":3259:3492   */\n    tag_18:\n        /* \"#utility.yul\":3298:3301   */\n      0x00\n        /* \"#utility.yul\":3321:3345   */\n      tag_75\n        /* \"#utility.yul\":3339:3344   */\n      dup3\n        /* \"#utility.yul\":3321:3345   */\n      tag_55\n      jump\t// in\n    tag_75:\n        /* \"#utility.yul\":3312:3345   */\n      swap2\n      pop\n        /* \"#utility.yul\":3367:3433   */\n      0xffffffffffffffffffffffffffffffffffffffffffffffffffffffffffffffff\n        /* \"#utility.yul\":3360:3365   */\n      dup3\n        /* \"#utility.yul\":3357:3434   */\n      eq\n        /* \"#utility.yul\":3354:3457   */\n      iszero\n      tag_76\n      jumpi\n        /* \"#utility.yul\":3437:3455   */\n      tag_77\n      tag_78\n      jump\t// in\n    tag_77:\n        /* \"#utility.yul\":3354:3457   */\n    tag_76:\n        /* \"#utility.yul\":3484:3485   */\n      0x01\n        /* \"#utility.yul\":3477:3482   */\n      dup3\n        /* \"#utility.yul\":3473:3486   */\n      add\n        /* \"#utility.yul\":3466:3486   */\n      swap1\n      pop\n        /* \"#utility.yul\":3259:3492   */\n      swap2\n      swap1\n      pop\n      jump\t// out\n        /* \"#utility.yul\":3498:3678   */\n    tag_78:\n        /* \"#utility.yul\":3546:3623   */\n      0x4e487b7100000000000000000000000000000000000000000000000000000000\n        /* \"#utility.yul\":3543:3544   */\n      0x00\n        /* \"#utility.yul\":3536:3624   */\n      mstore\n        /* \"#utility.yul\":3643:3647   */\n      0x11\n        /* \"#utility.yul\":3640:3641   */\n      0x04\n        /* \"#utility.yul\":3633:3648   */\n      mstore\n        /* \"#utility.yul\":3667:3671   */\n      0x24\n        /* \"#utility.yul\":3664:3665   */\n      0x00\n        /* \"#utility.yul\":3657:3672   */\n      revert\n        /* \"#utility.yul\":3684:3864   */\n    tag_15:\n        /* \"#utility.yul\":3732:3809   */\n      0x4e487b7100000000000000000000000000000000000000000000000000000000\n        /* \"#utility.yul\":3729:3730   */\n      0x00\n        /* \"#utility.yul\":3722:3810   */\n      mstore\n        /* \"#utility.yul\":3829:3833   */\n      0x32\n        /* \"#utility.yul\":3826:3827   */\n      0x04\n        /* \"#utility.yul\":3819:3834   */\n      mstore\n        /* \"#utility.yul\":3853:3857   */\n      0x24\n        /* \"#utility.yul\":3850:3851   */\n      0x00\n        /* \"#utility.yul\":3843:3858   */\n      revert\n        /* \"#utility.yul\":3870:4050   */\n    tag_67:\n        /* \"#utility.yul\":3918:3995   */\n      0x4e487b7100000000000000000000000000000000000000000000000000000000\n        /* \"#utility.yul\":3915:3916   */\n      0x00\n        /* \"#utility.yul\":3908:3996   */\n      mstore\n        /* \"#utility.yul\":4015:4019   */\n      0x41\n        /* \"#utility.yul\":4012:4013   */\n      0x04\n        /* \"#utility.yul\":4005:4020   */\n      mstore\n        /* \"#utility.yul\":4039:4043   */\n      0x24\n        /* \"#utility.yul\":4036:4037   */\n      0x00\n        /* \"#utility.yul\":4029:4044   */\n      revert\n        /* \"#utility.yul\":4056:4173   */\n    tag_38:\n        /* \"#utility.yul\":4165:4166   */\n      0x00\n        /* \"#utility.yul\":4162:4163   */\n      dup1\n        /* \"#utility.yul\":4155:4167   */\n      revert\n        /* \"#utility.yul\":4179:4296   */\n    tag_28:\n        /* \"#utility.yul\":4288:4289   */\n      0x00\n        /* \"#utility.yul\":4285:4286   */\n      dup1\n        /* \"#utility.yul\":4278:4290   */\n      revert\n        /* \"#utility.yul\":4302:4419   */\n    tag_49:\n        /* \"#utility.yul\":4411:4412   */\n      0x00\n        /* \"#utility.yul\":4408:4409   */\n      dup1\n        /* \"#utility.yul\":4401:4413   */\n      revert\n        /* \"#utility.yul\":4425:4542   */\n    tag_46:\n        /* \"#utility.yul\":4534:4535   */\n      0x00\n        /* \"#utility.yul\":4531:4532   */\n      dup1\n        /* \"#utility.yul\":4524:4536   */\n      revert\n        /* \"#utility.yul\":4548:4650   */\n    tag_71:\n        /* \"#utility.yul\":4589:4595   */\n      0x00\n        /* \"#utility.yul\":4640:4642   */\n      0x1f\n        /* \"#utility.yul\":4636:4643   */\n      not\n        /* \"#utility.yul\":4631:4633   */\n      0x1f\n        /* \"#utility.yul\":4624:4629   */\n      dup4\n        /* \"#utility.yul\":4620:4634   */\n      add\n        /* \"#utility.yul\":4616:4644   */\n      and\n        /* \"#utility.yul\":4606:4644   */\n      swap1\n      pop\n        /* \"#utility.yul\":4548:4650   */\n      swap2\n      swap1\n      pop\n      jump\t// out\n        /* \"#utility.yul\":4656:4778   */\n    tag_42:\n        /* \"#utility.yul\":4729:4753   */\n      tag_88\n        /* \"#utility.yul\":4747:4752   */\n      dup2\n        /* \"#utility.yul\":4729:4753   */\n      tag_55\n      jump\t// in\n    tag_88:\n        /* \"#utility.yul\":4722:4727   */\n      dup2\n        /* \"#utility.yul\":4719:4754   */\n      eq\n        /* \"#utility.yul\":4709:4772   */\n      tag_89\n      jumpi\n        /* \"#utility.yul\":4768:4769   */\n      0x00\n        /* \"#utility.yul\":4765:4766   */\n      dup1\n        /* \"#utility.yul\":4758:4770   */\n      revert\n        /* \"#utility.yul\":4709:4772   */\n    tag_89:\n        /* \"#utility.yul\":4656:4778   */\n      pop\n      jump\t// out\n\n    auxdata: 0xa2646970667358221220c7a1f567b777d40161bd6dc9bd7dd23ec1046e49f03688c36445213550663e0a64736f6c63430008070033\n}\n",
				"bytecode": {
					"linkReferences": {},
					"object": "6103d2610053600b82828239805160001a607314610046577f4e487b7100000000000000000000000000000000000000000000000000000000600052600060045260246000fd5b30600052607381538281f3fe73000000000000000000000000000000000000000030146080604052600436106100355760003560e01c80636457237b1461003a575b600080fd5b610054600480360381019061004f9190610178565b61006a565b60405161006191906101e3565b60405180910390f35b600080600090505b83518110156100b9578284828151811061008f5761008e610302565b5b602002602001015114156100a657809150506100bf565b80806100b19061028a565b915050610072565b50825190505b92915050565b60006100d86100d384610223565b6101fe565b905080838252602082019050828560208602820111156100fb576100fa610365565b5b60005b8581101561012b57816101118882610163565b8452602084019350602083019250506001810190506100fe565b5050509392505050565b600082601f83011261014a57610149610360565b5b813561015a8482602086016100c5565b91505092915050565b60008135905061017281610385565b92915050565b6000806040838503121561018f5761018e61036f565b5b600083013567ffffffffffffffff8111156101ad576101ac61036a565b5b6101b985828601610135565b92505060206101ca85828601610163565b9150509250929050565b6101dd8161024f565b82525050565b60006020820190506101f860008301846101d4565b92915050565b6000610208610219565b90506102148282610259565b919050565b6000604051905090565b600067ffffffffffffffff82111561023e5761023d610331565b5b602082029050602081019050919050565b6000819050919050565b61026282610374565b810181811067ffffffffffffffff8211171561028157610280610331565b5b80604052505050565b60006102958261024f565b91507fffffffffffffffffffffffffffffffffffffffffffffffffffffffffffffffff8214156102c8576102c76102d3565b5b600182019050919050565b7f4e487b7100000000000000000000000000000000000000000000000000000000600052601160045260246000fd5b7f4e487b7100000000000000000000000000000000000000000000000000000000600052603260045260246000fd5b7f4e487b7100000000000000000000000000000000000000000000000000000000600052604160045260246000fd5b600080fd5b600080fd5b600080fd5b600080fd5b6000601f19601f8301169050919050565b61038e8161024f565b811461039957600080fd5b5056fea2646970667358221220c7a1f567b777d40161bd6dc9bd7dd23ec1046e49f03688c36445213550663e0a64736f6c63430008070033",
					"opcodes": "PUSH2 0x3D2 PUSH2 0x53 PUSH1 0xB DUP3 DUP3 DUP3 CODECOPY DUP1 MLOAD PUSH1 0x0 BYTE PUSH1 0x73 EQ PUSH2 0x46 JUMPI PUSH32 0x4E487B7100000000000000000000000000000000000000000000000000000000 PUSH1 0x0 MSTORE PUSH1 0x0 PUSH1 0x4 MSTORE PUSH1 0x24 PUSH1 0x0 REVERT JUMPDEST ADDRESS PUSH1 0x0 MSTORE PUSH1 0x73 DUP2 MSTORE8 DUP3 DUP2 RETURN INVALID PUSH20 0x0 ADDRESS EQ PUSH1 0x80 PUSH1 0x40 MSTORE PUSH1 0x4 CALLDATASIZE LT PUSH2 0x35 JUMPI PUSH1 0x0 CALLDATALOAD PUSH1 0xE0 SHR DUP1 PUSH4 0x6457237B EQ PUSH2 0x3A JUMPI JUMPDEST PUSH1 0x0 DUP1 REVERT JUMPDEST PUSH2 0x54 PUSH1 0x4 DUP1 CALLDATASIZE SUB DUP2 ADD SWAP1 PUSH2 0x4F SWAP2 SWAP1 PUSH2 0x178 JUMP JUMPDEST PUSH2 0x6A JUMP JUMPDEST PUSH1 0x40 MLOAD PUSH2 0x61 SWAP2 SWAP1 PUSH2 0x1E3 JUMP JUMPDEST PUSH1 0x40 MLOAD DUP1 SWAP2 SUB SWAP1 RETURN JUMPDEST PUSH1 0x0 DUP1 PUSH1 0x0 SWAP1 POP JUMPDEST DUP4 MLOAD DUP2 LT ISZERO PUSH2 0xB9 JUMPI DUP3 DUP5 DUP3 DUP2 MLOAD DUP2 LT PUSH2 0x8F JUMPI PUSH2 0x8E PUSH2 0x302 JUMP JUMPDEST JUMPDEST PUSH1 0x20 MUL PUSH1 0x20 ADD ADD MLOAD EQ ISZERO PUSH2 0xA6 JUMPI DUP1 SWAP2 POP POP PUSH2 0xBF JUMP JUMPDEST DUP1 DUP1 PUSH2 0xB1 SWAP1 PUSH2 0x28A JUMP JUMPDEST SWAP2 POP POP PUSH2 0x72 JUMP JUMPDEST POP DUP3 MLOAD SWAP1 POP JUMPDEST SWAP3 SWAP2 POP POP JUMP JUMPDEST PUSH1 0x0 PUSH2 0xD8 PUSH2 0xD3 DUP5 PUSH2 0x223 JUMP JUMPDEST PUSH2 0x1FE JUMP JUMPDEST SWAP1 POP DUP1 DUP4 DUP3 MSTORE PUSH1 0x20 DUP3 ADD SWAP1 POP DUP3 DUP6 PUSH1 0x20 DUP7 MUL DUP3 ADD GT ISZERO PUSH2 0xFB JUMPI PUSH2 0xFA PUSH2 0x365 JUMP JUMPDEST JUMPDEST PUSH1 0x0 JUMPDEST DUP6 DUP2 LT ISZERO PUSH2 0x12B JUMPI DUP2 PUSH2 0x111 DUP9 DUP3 PUSH2 0x163 JUMP JUMPDEST DUP5 MSTORE PUSH1 0x20 DUP5 ADD SWAP4 POP PUSH1 0x20 DUP4 ADD SWAP3 POP POP PUSH1 0x1 DUP2 ADD SWAP1 POP PUSH2 0xFE JUMP JUMPDEST POP POP POP SWAP4 SWAP3 POP POP POP JUMP JUMPDEST PUSH1 0x0 DUP3 PUSH1 0x1F DUP4 ADD SLT PUSH2 0x14A JUMPI PUSH2 0x149 PUSH2 0x360 JUMP JUMPDEST JUMPDEST DUP2 CALLDATALOAD PUSH2 0x15A DUP5 DUP3 PUSH1 0x20 DUP7 ADD PUSH2 0xC5 JUMP JUMPDEST SWAP2 POP POP SWAP3 SWAP2 POP POP JUMP JUMPDEST PUSH1 0x0 DUP2 CALLDATALOAD SWAP1 POP PUSH2 0x172 DUP2 PUSH2 0x385 JUMP JUMPDEST SWAP3 SWAP2 POP POP JUMP JUMPDEST PUSH1 0x0 DUP1 PUSH1 0x40 DUP4 DUP6 SUB SLT ISZERO PUSH2 0x18F JUMPI PUSH2 0x18E PUSH2 0x36F JUMP JUMPDEST JUMPDEST PUSH1 0x0 DUP4 ADD CALLDATALOAD PUSH8 0xFFFFFFFFFFFFFFFF DUP2 GT ISZERO PUSH2 0x1AD JUMPI PUSH2 0x1AC PUSH2 0x36A JUMP JUMPDEST JUMPDEST PUSH2 0x1B9 DUP6 DUP3 DUP7 ADD PUSH2 0x135 JUMP JUMPDEST SWAP3 POP POP PUSH1 0x20 PUSH2 0x1CA DUP6 DUP3 DUP7 ADD PUSH2 0x163 JUMP JUMPDEST SWAP2 POP POP SWAP3 POP SWAP3 SWAP1 POP JUMP JUMPDEST PUSH2 0x1DD DUP2 PUSH2 0x24F JUMP JUMPDEST DUP3 MSTORE POP POP JUMP JUMPDEST PUSH1 0x0 PUSH1 0x20 DUP3 ADD SWAP1 POP PUSH2 0x1F8 PUSH1 0x0 DUP4 ADD DUP5 PUSH2 0x1D4 JUMP JUMPDEST SWAP3 SWAP2 POP POP JUMP JUMPDEST PUSH1 0x0 PUSH2 0x208 PUSH2 0x219 JUMP JUMPDEST SWAP1 POP PUSH2 0x214 DUP3 DUP3 PUSH2 0x259 JUMP JUMPDEST SWAP2 SWAP1 POP JUMP JUMPDEST PUSH1 0x0 PUSH1 0x40 MLOAD SWAP1 POP SWAP1 JUMP JUMPDEST PUSH1 0x0 PUSH8 0xFFFFFFFFFFFFFFFF DUP3 GT ISZERO PUSH2 0x23E JUMPI PUSH2 0x23D PUSH2 0x331 JUMP JUMPDEST JUMPDEST PUSH1 0x20 DUP3 MUL SWAP1 POP PUSH1 0x20 DUP2 ADD SWAP1 POP SWAP2 SWAP1 POP JUMP JUMPDEST PUSH1 0x0 DUP2 SWAP1 POP SWAP2 SWAP1 POP JUMP JUMPDEST PUSH2 0x262 DUP3 PUSH2 0x374 JUMP JUMPDEST DUP2 ADD DUP2 DUP2 LT PUSH8 0xFFFFFFFFFFFFFFFF DUP3 GT OR ISZERO PUSH2 0x281 JUMPI PUSH2 0x280 PUSH2 0x331 JUMP JUMPDEST JUMPDEST DUP1 PUSH1 0x40 MSTORE POP POP POP JUMP JUMPDEST PUSH1 0x0 PUSH2 0x295 DUP3 PUSH2 0x24F JUMP JUMPDEST SWAP2 POP PUSH32 0xFFFFFFFFFFFFFFFFFFFFFFFFFFFFFFFFFFFFFFFFFFFFFFFFFFFFFFFFFFFFFFFF DUP3 EQ ISZERO PUSH2 0x2C8 JUMPI PUSH2 0x2C7 PUSH2 0x2D3 JUMP JUMPDEST JUMPDEST PUSH1 0x1 DUP3 ADD SWAP1 POP SWAP2 SWAP1 POP JUMP JUMPDEST PUSH32 0x4E487B7100000000000000000000000000000000000000000000000000000000 PUSH1 0x0 MSTORE PUSH1 0x11 PUSH1 0x4 MSTORE PUSH1 0x24 PUSH1 0x0 REVERT JUMPDEST PUSH32 0x4E487B7100000000000000000000000000000000000000000000000000000000 PUSH1 0x0 MSTORE PUSH1 0x32 PUSH1 0x4 MSTORE PUSH1 0x24 PUSH1 0x0 REVERT JUMPDEST PUSH32 0x4E487B7100000000000000000000000000000000000000000000000000000000 PUSH1 0x0 MSTORE PUSH1 0x41 PUSH1 0x4 MSTORE PUSH1 0x24 PUSH1 0x0 REVERT JUMPDEST PUSH1 0x0 DUP1 REVERT JUMPDEST PUSH1 0x0 DUP1 REVERT JUMPDEST PUSH1 0x0 DUP1 REVERT JUMPDEST PUSH1 0x0 DUP1 REVERT JUMPDEST PUSH1 0x0 PUSH1 0x1F NOT PUSH1 0x1F DUP4 ADD AND SWAP1 POP SWAP2 SWAP1 POP JUMP JUMPDEST PUSH2 0x38E DUP2 PUSH2 0x24F JUMP JUMPDEST DUP2 EQ PUSH2 0x399 JUMPI PUSH1 0x0 DUP1 REVERT JUMPDEST POP JUMP INVALID LOG2 PUSH5 0x6970667358 0x22 SLT KECCAK256 0xC7 LOG1 CREATE2 PUSH8 0xB777D40161BD6DC9 0xBD PUSH30 0xD23EC1046E49F03688C36445213550663E0A64736F6C6343000807003300 "
				},
				"gasEstimates": {
					"creation": {
						"codeDepositCost": "195600",
						"executionCost": "263",
						"totalCost": "195863"
					},
					"external": {
						"indexOf(uint256[],uint256)": "infinite"
					}
				},
				"methodIdentifiers": {
					"indexOf(uint256[],uint256)": "6457237b"
				}
			},
			"storageLayout": {
				"storage": [],
				"types": null
			},
			"userdoc": {
				"kind": "user",
				"methods": {},
				"version": 1
			}
		}
	}
}