{
	"Library.sol": {
		"Library": {
			"abi": [
				{
					"inputs": [
						{
							"internalType": "uint256[]",
							"name": "x",
							"type": "uint256[]"
						},
						{
							"internalType": "uint256",
							"name": "y",
							"type": "uint256"
						}
					],
					"name": "trial1",
					"outputs": [
						{
							"internalType": "uint256",
							"name": "",
							"type": "uint256"
						}
					],
					"stateMutability": "pure",
					"type": "function"
				}
			],
			"devdoc": {
				"kind": "dev",
				"methods": {},
				"version": 1
			},
			"evm": {
				"assembly": "    /* \"Library.sol\":1133:1371  contract Library {\r... */\n  mstore(0x40, 0x80)\n  callvalue\n  dup1\n  iszero\n  tag_1\n  jumpi\n  0x00\n  dup1\n  revert\ntag_1:\n  pop\n  dataSize(sub_0)\n  dup1\n  dataOffset(sub_0)\n  0x00\n  codecopy\n  0x00\n  return\nstop\n\nsub_0: assembly {\n        /* \"Library.sol\":1133:1371  contract Library {\r... */\n      mstore(0x40, 0x80)\n      callvalue\n      dup1\n      iszero\n      tag_1\n      jumpi\n      0x00\n      dup1\n      revert\n    tag_1:\n      pop\n      jumpi(tag_2, lt(calldatasize, 0x04))\n      shr(0xe0, calldataload(0x00))\n      dup1\n      0x3d80de1a\n      eq\n      tag_3\n      jumpi\n    tag_2:\n      0x00\n      dup1\n      revert\n        /* \"Library.sol\":1217:1362  function trial1(uint[] memory x, uint y) public pure returns(uint) {\r... */\n    tag_3:\n      tag_4\n      0x04\n      dup1\n      calldatasize\n      sub\n      dup2\n      add\n      swap1\n      tag_5\n      swap2\n      swap1\n      tag_6\n      jump\t// in\n    tag_5:\n      tag_7\n      jump\t// in\n    tag_4:\n      mload(0x40)\n      tag_8\n      swap2\n      swap1\n      tag_9\n      jump\t// in\n    tag_8:\n      mload(0x40)\n      dup1\n      swap2\n      sub\n      swap1\n      return\n    tag_7:\n        /* \"Library.sol\":1278:1282  uint */\n      0x00\n        /* \"Library.sol\":1302:1303  x */\n      dup3\n        /* \"Library.sol\":1302:1311  x.indexOf */\n      linkerSymbol(\"170af23aaaff0e5c26bbdc0e5c800e3b994ab927cf16a8f085080e4632c4da5d\")\n      0x6457237b\n      swap1\n      swap2\n        /* \"Library.sol\":1312:1313  y */\n      dup5\n        /* \"Library.sol\":1302:1314  x.indexOf(y) */\n      mload(0x40)\n      dup4\n      0xffffffff\n      and\n      0xe0\n      shl\n      dup2\n      mstore\n      0x04\n      add\n      tag_11\n      swap3\n      swap2\n      swap1\n      tag_12\n      jump\t// in\n    tag_11:\n      0x20\n      mload(0x40)\n      dup1\n      dup4\n      sub\n      dup2\n      dup7\n      dup1\n      extcodesize\n      iszero\n      dup1\n      iszero\n      tag_13\n      jumpi\n      0x00\n      dup1\n      revert\n    tag_13:\n      pop\n      gas\n      delegatecall\n      iszero\n      dup1\n      iszero\n      tag_15\n      jumpi\n      returndatasize\n      0x00\n      dup1\n      returndatacopy\n      revert(0x00, returndatasize)\n    tag_15:\n      pop\n      pop\n      pop\n      pop\n      mload(0x40)\n      returndatasize\n      not(0x1f)\n      0x1f\n      dup3\n      add\n      and\n      dup3\n      add\n      dup1\n      0x40\n      mstore\n      pop\n      dup2\n      add\n      swap1\n      tag_16\n      swap2\n      swap1\n      tag_17\n      jump\t// in\n    tag_16:\n        /* \"Library.sol\":1295:1314  return x.indexOf(y) */\n      swap1\n      pop\n        /* \"Library.sol\":1217:1362  function trial1(uint[] memory x, uint y) public pure returns(uint) {\r... */\n      swap3\n      swap2\n      pop\n      pop\n      jump\t// out\n        /* \"#utility.yul\":24:746   */\n    tag_19:\n        /* \"#utility.yul\":120:125   */\n      0x00\n        /* \"#utility.yul\":145:226   */\n      tag_21\n        /* \"#utility.yul\":161:225   */\n      tag_22\n        /* \"#utility.yul\":218:224   */\n      dup5\n        /* \"#utility.yul\":161:225   */\n      tag_23\n      jump\t// in\n    tag_22:\n        /* \"#utility.yul\":145:226   */\n      tag_24\n      jump\t// in\n    tag_21:\n        /* \"#utility.yul\":136:226   */\n      swap1\n      pop\n        /* \"#utility.yul\":246:251   */\n      dup1\n        /* \"#utility.yul\":275:281   */\n      dup4\n        /* \"#utility.yul\":268:273   */\n      dup3\n        /* \"#utility.yul\":261:282   */\n      mstore\n        /* \"#utility.yul\":309:313   */\n      0x20\n        /* \"#utility.yul\":302:307   */\n      dup3\n        /* \"#utility.yul\":298:314   */\n      add\n        /* \"#utility.yul\":291:314   */\n      swap1\n      pop\n        /* \"#utility.yul\":335:341   */\n      dup3\n        /* \"#utility.yul\":385:388   */\n      dup6\n        /* \"#utility.yul\":377:381   */\n      0x20\n        /* \"#utility.yul\":369:375   */\n      dup7\n        /* \"#utility.yul\":365:382   */\n      mul\n        /* \"#utility.yul\":360:363   */\n      dup3\n        /* \"#utility.yul\":356:383   */\n      add\n        /* \"#utility.yul\":353:389   */\n      gt\n        /* \"#utility.yul\":350:493   */\n      iszero\n      tag_25\n      jumpi\n        /* \"#utility.yul\":404:483   */\n      tag_26\n      tag_27\n      jump\t// in\n    tag_26:\n        /* \"#utility.yul\":350:493   */\n    tag_25:\n        /* \"#utility.yul\":517:518   */\n      0x00\n        /* \"#utility.yul\":502:740   */\n    tag_28:\n        /* \"#utility.yul\":527:533   */\n      dup6\n        /* \"#utility.yul\":524:525   */\n      dup2\n        /* \"#utility.yul\":521:534   */\n      lt\n        /* \"#utility.yul\":502:740   */\n      iszero\n      tag_30\n      jumpi\n        /* \"#utility.yul\":595:598   */\n      dup2\n        /* \"#utility.yul\":624:661   */\n      tag_31\n        /* \"#utility.yul\":657:660   */\n      dup9\n        /* \"#utility.yul\":645:655   */\n      dup3\n        /* \"#utility.yul\":624:661   */\n      tag_32\n      jump\t// in\n    tag_31:\n        /* \"#utility.yul\":619:622   */\n      dup5\n        /* \"#utility.yul\":612:662   */\n      mstore\n        /* \"#utility.yul\":691:695   */\n      0x20\n        /* \"#utility.yul\":686:689   */\n      dup5\n        /* \"#utility.yul\":682:696   */\n      add\n        /* \"#utility.yul\":675:696   */\n      swap4\n      pop\n        /* \"#utility.yul\":725:729   */\n      0x20\n        /* \"#utility.yul\":720:723   */\n      dup4\n        /* \"#utility.yul\":716:730   */\n      add\n        /* \"#utility.yul\":709:730   */\n      swap3\n      pop\n        /* \"#utility.yul\":562:740   */\n      pop\n        /* \"#utility.yul\":549:550   */\n      0x01\n        /* \"#utility.yul\":546:547   */\n      dup2\n        /* \"#utility.yul\":542:551   */\n      add\n        /* \"#utility.yul\":537:551   */\n      swap1\n      pop\n        /* \"#utility.yul\":502:740   */\n      jump(tag_28)\n    tag_30:\n        /* \"#utility.yul\":506:520   */\n      pop\n        /* \"#utility.yul\":126:746   */\n      pop\n      pop\n        /* \"#utility.yul\":24:746   */\n      swap4\n      swap3\n      pop\n      pop\n      pop\n      jump\t// out\n        /* \"#utility.yul\":769:1139   */\n    tag_33:\n        /* \"#utility.yul\":840:845   */\n      0x00\n        /* \"#utility.yul\":889:892   */\n      dup3\n        /* \"#utility.yul\":882:886   */\n      0x1f\n        /* \"#utility.yul\":874:880   */\n      dup4\n        /* \"#utility.yul\":870:887   */\n      add\n        /* \"#utility.yul\":866:893   */\n      slt\n        /* \"#utility.yul\":856:978   */\n      tag_35\n      jumpi\n        /* \"#utility.yul\":897:976   */\n      tag_36\n      tag_37\n      jump\t// in\n    tag_36:\n        /* \"#utility.yul\":856:978   */\n    tag_35:\n        /* \"#utility.yul\":1014:1020   */\n      dup2\n        /* \"#utility.yul\":1001:1021   */\n      calldataload\n        /* \"#utility.yul\":1039:1133   */\n      tag_38\n        /* \"#utility.yul\":1129:1132   */\n      dup5\n        /* \"#utility.yul\":1121:1127   */\n      dup3\n        /* \"#utility.yul\":1114:1118   */\n      0x20\n        /* \"#utility.yul\":1106:1112   */\n      dup7\n        /* \"#utility.yul\":1102:1119   */\n      add\n        /* \"#utility.yul\":1039:1133   */\n      tag_19\n      jump\t// in\n    tag_38:\n        /* \"#utility.yul\":1030:1133   */\n      swap2\n      pop\n        /* \"#utility.yul\":846:1139   */\n      pop\n        /* \"#utility.yul\":769:1139   */\n      swap3\n      swap2\n      pop\n      pop\n      jump\t// out\n        /* \"#utility.yul\":1145:1284   */\n    tag_32:\n        /* \"#utility.yul\":1191:1196   */\n      0x00\n        /* \"#utility.yul\":1229:1235   */\n      dup2\n        /* \"#utility.yul\":1216:1236   */\n      calldataload\n        /* \"#utility.yul\":1207:1236   */\n      swap1\n      pop\n        /* \"#utility.yul\":1245:1278   */\n      tag_40\n        /* \"#utility.yul\":1272:1277   */\n      dup2\n        /* \"#utility.yul\":1245:1278   */\n      tag_41\n      jump\t// in\n    tag_40:\n        /* \"#utility.yul\":1145:1284   */\n      swap3\n      swap2\n      pop\n      pop\n      jump\t// out\n        /* \"#utility.yul\":1290:1433   */\n    tag_42:\n        /* \"#utility.yul\":1347:1352   */\n      0x00\n        /* \"#utility.yul\":1378:1384   */\n      dup2\n        /* \"#utility.yul\":1372:1385   */\n      mload\n        /* \"#utility.yul\":1363:1385   */\n      swap1\n      pop\n        /* \"#utility.yul\":1394:1427   */\n      tag_44\n        /* \"#utility.yul\":1421:1426   */\n      dup2\n        /* \"#utility.yul\":1394:1427   */\n      tag_41\n      jump\t// in\n    tag_44:\n        /* \"#utility.yul\":1290:1433   */\n      swap3\n      swap2\n      pop\n      pop\n      jump\t// out\n        /* \"#utility.yul\":1439:2123   */\n    tag_6:\n        /* \"#utility.yul\":1532:1538   */\n      0x00\n        /* \"#utility.yul\":1540:1546   */\n      dup1\n        /* \"#utility.yul\":1589:1591   */\n      0x40\n        /* \"#utility.yul\":1577:1586   */\n      dup4\n        /* \"#utility.yul\":1568:1575   */\n      dup6\n        /* \"#utility.yul\":1564:1587   */\n      sub\n        /* \"#utility.yul\":1560:1592   */\n      slt\n        /* \"#utility.yul\":1557:1676   */\n      iszero\n      tag_46\n      jumpi\n        /* \"#utility.yul\":1595:1674   */\n      tag_47\n      tag_48\n      jump\t// in\n    tag_47:\n        /* \"#utility.yul\":1557:1676   */\n    tag_46:\n        /* \"#utility.yul\":1743:1744   */\n      0x00\n        /* \"#utility.yul\":1732:1741   */\n      dup4\n        /* \"#utility.yul\":1728:1745   */\n      add\n        /* \"#utility.yul\":1715:1746   */\n      calldataload\n        /* \"#utility.yul\":1773:1791   */\n      0xffffffffffffffff\n        /* \"#utility.yul\":1765:1771   */\n      dup2\n        /* \"#utility.yul\":1762:1792   */\n      gt\n        /* \"#utility.yul\":1759:1876   */\n      iszero\n      tag_49\n      jumpi\n        /* \"#utility.yul\":1795:1874   */\n      tag_50\n      tag_51\n      jump\t// in\n    tag_50:\n        /* \"#utility.yul\":1759:1876   */\n    tag_49:\n        /* \"#utility.yul\":1900:1978   */\n      tag_52\n        /* \"#utility.yul\":1970:1977   */\n      dup6\n        /* \"#utility.yul\":1961:1967   */\n      dup3\n        /* \"#utility.yul\":1950:1959   */\n      dup7\n        /* \"#utility.yul\":1946:1968   */\n      add\n        /* \"#utility.yul\":1900:1978   */\n      tag_33\n      jump\t// in\n    tag_52:\n        /* \"#utility.yul\":1890:1978   */\n      swap3\n      pop\n        /* \"#utility.yul\":1686:1988   */\n      pop\n        /* \"#utility.yul\":2027:2029   */\n      0x20\n        /* \"#utility.yul\":2053:2106   */\n      tag_53\n        /* \"#utility.yul\":2098:2105   */\n      dup6\n        /* \"#utility.yul\":2089:2095   */\n      dup3\n        /* \"#utility.yul\":2078:2087   */\n      dup7\n        /* \"#utility.yul\":2074:2096   */\n      add\n        /* \"#utility.yul\":2053:2106   */\n      tag_32\n      jump\t// in\n    tag_53:\n        /* \"#utility.yul\":2043:2106   */\n      swap2\n      pop\n        /* \"#utility.yul\":1998:2116   */\n      pop\n        /* \"#utility.yul\":1439:2123   */\n      swap3\n      pop\n      swap3\n      swap1\n      pop\n      jump\t// out\n        /* \"#utility.yul\":2129:2480   */\n    tag_17:\n        /* \"#utility.yul\":2199:2205   */\n      0x00\n        /* \"#utility.yul\":2248:2250   */\n      0x20\n        /* \"#utility.yul\":2236:2245   */\n      dup3\n        /* \"#utility.yul\":2227:2234   */\n      dup5\n        /* \"#utility.yul\":2223:2246   */\n      sub\n        /* \"#utility.yul\":2219:2251   */\n      slt\n        /* \"#utility.yul\":2216:2335   */\n      iszero\n      tag_55\n      jumpi\n        /* \"#utility.yul\":2254:2333   */\n      tag_56\n      tag_48\n      jump\t// in\n    tag_56:\n        /* \"#utility.yul\":2216:2335   */\n    tag_55:\n        /* \"#utility.yul\":2374:2375   */\n      0x00\n        /* \"#utility.yul\":2399:2463   */\n      tag_57\n        /* \"#utility.yul\":2455:2462   */\n      dup5\n        /* \"#utility.yul\":2446:2452   */\n      dup3\n        /* \"#utility.yul\":2435:2444   */\n      dup6\n        /* \"#utility.yul\":2431:2453   */\n      add\n        /* \"#utility.yul\":2399:2463   */\n      tag_42\n      jump\t// in\n    tag_57:\n        /* \"#utility.yul\":2389:2463   */\n      swap2\n      pop\n        /* \"#utility.yul\":2345:2473   */\n      pop\n        /* \"#utility.yul\":2129:2480   */\n      swap3\n      swap2\n      pop\n      pop\n      jump\t// out\n        /* \"#utility.yul\":2486:2681   */\n    tag_58:\n        /* \"#utility.yul\":2563:2573   */\n      0x00\n        /* \"#utility.yul\":2584:2638   */\n      tag_60\n        /* \"#utility.yul\":2634:2637   */\n      dup4\n        /* \"#utility.yul\":2626:2632   */\n      dup4\n        /* \"#utility.yul\":2584:2638   */\n      tag_61\n      jump\t// in\n    tag_60:\n        /* \"#utility.yul\":2670:2674   */\n      0x20\n        /* \"#utility.yul\":2665:2668   */\n      dup4\n        /* \"#utility.yul\":2661:2675   */\n      add\n        /* \"#utility.yul\":2647:2675   */\n      swap1\n      pop\n        /* \"#utility.yul\":2486:2681   */\n      swap3\n      swap2\n      pop\n      pop\n      jump\t// out\n        /* \"#utility.yul\":2717:3473   */\n    tag_62:\n        /* \"#utility.yul\":2844:2847   */\n      0x00\n        /* \"#utility.yul\":2873:2927   */\n      tag_64\n        /* \"#utility.yul\":2921:2926   */\n      dup3\n        /* \"#utility.yul\":2873:2927   */\n      tag_65\n      jump\t// in\n    tag_64:\n        /* \"#utility.yul\":2943:3037   */\n      tag_66\n        /* \"#utility.yul\":3030:3036   */\n      dup2\n        /* \"#utility.yul\":3025:3028   */\n      dup6\n        /* \"#utility.yul\":2943:3037   */\n      tag_67\n      jump\t// in\n    tag_66:\n        /* \"#utility.yul\":2936:3037   */\n      swap4\n      pop\n        /* \"#utility.yul\":3061:3117   */\n      tag_68\n        /* \"#utility.yul\":3111:3116   */\n      dup4\n        /* \"#utility.yul\":3061:3117   */\n      tag_69\n      jump\t// in\n    tag_68:\n        /* \"#utility.yul\":3140:3147   */\n      dup1\n        /* \"#utility.yul\":3171:3172   */\n      0x00\n        /* \"#utility.yul\":3156:3448   */\n    tag_70:\n        /* \"#utility.yul\":3181:3187   */\n      dup4\n        /* \"#utility.yul\":3178:3179   */\n      dup2\n        /* \"#utility.yul\":3175:3188   */\n      lt\n        /* \"#utility.yul\":3156:3448   */\n      iszero\n      tag_72\n      jumpi\n        /* \"#utility.yul\":3257:3263   */\n      dup2\n        /* \"#utility.yul\":3251:3264   */\n      mload\n        /* \"#utility.yul\":3284:3355   */\n      tag_73\n        /* \"#utility.yul\":3351:3354   */\n      dup9\n        /* \"#utility.yul\":3336:3349   */\n      dup3\n        /* \"#utility.yul\":3284:3355   */\n      tag_58\n      jump\t// in\n    tag_73:\n        /* \"#utility.yul\":3277:3355   */\n      swap8\n      pop\n        /* \"#utility.yul\":3378:3438   */\n      tag_74\n        /* \"#utility.yul\":3431:3437   */\n      dup4\n        /* \"#utility.yul\":3378:3438   */\n      tag_75\n      jump\t// in\n    tag_74:\n        /* \"#utility.yul\":3368:3438   */\n      swap3\n      pop\n        /* \"#utility.yul\":3216:3448   */\n      pop\n        /* \"#utility.yul\":3203:3204   */\n      0x01\n        /* \"#utility.yul\":3200:3201   */\n      dup2\n        /* \"#utility.yul\":3196:3205   */\n      add\n        /* \"#utility.yul\":3191:3205   */\n      swap1\n      pop\n        /* \"#utility.yul\":3156:3448   */\n      jump(tag_70)\n    tag_72:\n        /* \"#utility.yul\":3160:3174   */\n      pop\n        /* \"#utility.yul\":3464:3467   */\n      dup6\n        /* \"#utility.yul\":3457:3467   */\n      swap4\n      pop\n        /* \"#utility.yul\":2849:3473   */\n      pop\n      pop\n      pop\n        /* \"#utility.yul\":2717:3473   */\n      swap3\n      swap2\n      pop\n      pop\n      jump\t// out\n        /* \"#utility.yul\":3479:3597   */\n    tag_76:\n        /* \"#utility.yul\":3566:3590   */\n      tag_78\n        /* \"#utility.yul\":3584:3589   */\n      dup2\n        /* \"#utility.yul\":3566:3590   */\n      tag_79\n      jump\t// in\n    tag_78:\n        /* \"#utility.yul\":3561:3564   */\n      dup3\n        /* \"#utility.yul\":3554:3591   */\n      mstore\n        /* \"#utility.yul\":3479:3597   */\n      pop\n      pop\n      jump\t// out\n        /* \"#utility.yul\":3603:3729   */\n    tag_80:\n        /* \"#utility.yul\":3698:3722   */\n      tag_82\n        /* \"#utility.yul\":3716:3721   */\n      dup2\n        /* \"#utility.yul\":3698:3722   */\n      tag_79\n      jump\t// in\n    tag_82:\n        /* \"#utility.yul\":3693:3696   */\n      dup3\n        /* \"#utility.yul\":3686:3723   */\n      mstore\n        /* \"#utility.yul\":3603:3729   */\n      pop\n      pop\n      jump\t// out\n        /* \"#utility.yul\":3735:3851   */\n    tag_61:\n        /* \"#utility.yul\":3820:3844   */\n      tag_84\n        /* \"#utility.yul\":3838:3843   */\n      dup2\n        /* \"#utility.yul\":3820:3844   */\n      tag_79\n      jump\t// in\n    tag_84:\n        /* \"#utility.yul\":3815:3818   */\n      dup3\n        /* \"#utility.yul\":3808:3845   */\n      mstore\n        /* \"#utility.yul\":3735:3851   */\n      pop\n      pop\n      jump\t// out\n        /* \"#utility.yul\":3857:4364   */\n    tag_12:\n        /* \"#utility.yul\":4036:4040   */\n      0x00\n        /* \"#utility.yul\":4074:4076   */\n      0x40\n        /* \"#utility.yul\":4063:4072   */\n      dup3\n        /* \"#utility.yul\":4059:4077   */\n      add\n        /* \"#utility.yul\":4051:4077   */\n      swap1\n      pop\n        /* \"#utility.yul\":4123:4132   */\n      dup2\n        /* \"#utility.yul\":4117:4121   */\n      dup2\n        /* \"#utility.yul\":4113:4133   */\n      sub\n        /* \"#utility.yul\":4109:4110   */\n      0x00\n        /* \"#utility.yul\":4098:4107   */\n      dup4\n        /* \"#utility.yul\":4094:4111   */\n      add\n        /* \"#utility.yul\":4087:4134   */\n      mstore\n        /* \"#utility.yul\":4151:4267   */\n      tag_86\n        /* \"#utility.yul\":4262:4266   */\n      dup2\n        /* \"#utility.yul\":4253:4259   */\n      dup6\n        /* \"#utility.yul\":4151:4267   */\n      tag_62\n      jump\t// in\n    tag_86:\n        /* \"#utility.yul\":4143:4267   */\n      swap1\n      pop\n        /* \"#utility.yul\":4277:4357   */\n      tag_87\n        /* \"#utility.yul\":4353:4355   */\n      0x20\n        /* \"#utility.yul\":4342:4351   */\n      dup4\n        /* \"#utility.yul\":4338:4356   */\n      add\n        /* \"#utility.yul\":4329:4335   */\n      dup5\n        /* \"#utility.yul\":4277:4357   */\n      tag_80\n      jump\t// in\n    tag_87:\n        /* \"#utility.yul\":3857:4364   */\n      swap4\n      swap3\n      pop\n      pop\n      pop\n      jump\t// out\n        /* \"#utility.yul\":4370:4592   */\n    tag_9:\n        /* \"#utility.yul\":4463:4467   */\n      0x00\n        /* \"#utility.yul\":4501:4503   */\n      0x20\n        /* \"#utility.yul\":4490:4499   */\n      dup3\n        /* \"#utility.yul\":4486:4504   */\n      add\n        /* \"#utility.yul\":4478:4504   */\n      swap1\n      pop\n        /* \"#utility.yul\":4514:4585   */\n      tag_89\n        /* \"#utility.yul\":4582:4583   */\n      0x00\n        /* \"#utility.yul\":4571:4580   */\n      dup4\n        /* \"#utility.yul\":4567:4584   */\n      add\n        /* \"#utility.yul\":4558:4564   */\n      dup5\n        /* \"#utility.yul\":4514:4585   */\n      tag_76\n      jump\t// in\n    tag_89:\n        /* \"#utility.yul\":4370:4592   */\n      swap3\n      swap2\n      pop\n      pop\n      jump\t// out\n        /* \"#utility.yul\":4598:4727   */\n    tag_24:\n        /* \"#utility.yul\":4632:4638   */\n      0x00\n        /* \"#utility.yul\":4659:4679   */\n      tag_91\n      tag_92\n      jump\t// in\n    tag_91:\n        /* \"#utility.yul\":4649:4679   */\n      swap1\n      pop\n        /* \"#utility.yul\":4688:4721   */\n      tag_93\n        /* \"#utility.yul\":4716:4720   */\n      dup3\n        /* \"#utility.yul\":4708:4714   */\n      dup3\n        /* \"#utility.yul\":4688:4721   */\n      tag_94\n      jump\t// in\n    tag_93:\n        /* \"#utility.yul\":4598:4727   */\n      swap2\n      swap1\n      pop\n      jump\t// out\n        /* \"#utility.yul\":4733:4808   */\n    tag_92:\n        /* \"#utility.yul\":4766:4772   */\n      0x00\n        /* \"#utility.yul\":4799:4801   */\n      0x40\n        /* \"#utility.yul\":4793:4802   */\n      mload\n        /* \"#utility.yul\":4783:4802   */\n      swap1\n      pop\n        /* \"#utility.yul\":4733:4808   */\n      swap1\n      jump\t// out\n        /* \"#utility.yul\":4814:5125   */\n    tag_23:\n        /* \"#utility.yul\":4891:4895   */\n      0x00\n        /* \"#utility.yul\":4981:4999   */\n      0xffffffffffffffff\n        /* \"#utility.yul\":4973:4979   */\n      dup3\n        /* \"#utility.yul\":4970:5000   */\n      gt\n        /* \"#utility.yul\":4967:5023   */\n      iszero\n      tag_97\n      jumpi\n        /* \"#utility.yul\":5003:5021   */\n      tag_98\n      tag_99\n      jump\t// in\n    tag_98:\n        /* \"#utility.yul\":4967:5023   */\n    tag_97:\n        /* \"#utility.yul\":5053:5057   */\n      0x20\n        /* \"#utility.yul\":5045:5051   */\n      dup3\n        /* \"#utility.yul\":5041:5058   */\n      mul\n        /* \"#utility.yul\":5033:5058   */\n      swap1\n      pop\n        /* \"#utility.yul\":5113:5117   */\n      0x20\n        /* \"#utility.yul\":5107:5111   */\n      dup2\n        /* \"#utility.yul\":5103:5118   */\n      add\n        /* \"#utility.yul\":5095:5118   */\n      swap1\n      pop\n        /* \"#utility.yul\":4814:5125   */\n      swap2\n      swap1\n      pop\n      jump\t// out\n        /* \"#utility.yul\":5131:5263   */\n    tag_69:\n        /* \"#utility.yul\":5198:5202   */\n      0x00\n        /* \"#utility.yul\":5221:5224   */\n      dup2\n        /* \"#utility.yul\":5213:5224   */\n      swap1\n      pop\n        /* \"#utility.yul\":5251:5255   */\n      0x20\n        /* \"#utility.yul\":5246:5249   */\n      dup3\n        /* \"#utility.yul\":5242:5256   */\n      add\n        /* \"#utility.yul\":5234:5256   */\n      swap1\n      pop\n        /* \"#utility.yul\":5131:5263   */\n      swap2\n      swap1\n      pop\n      jump\t// out\n        /* \"#utility.yul\":5269:5383   */\n    tag_65:\n        /* \"#utility.yul\":5336:5342   */\n      0x00\n        /* \"#utility.yul\":5370:5375   */\n      dup2\n        /* \"#utility.yul\":5364:5376   */\n      mload\n        /* \"#utility.yul\":5354:5376   */\n      swap1\n      pop\n        /* \"#utility.yul\":5269:5383   */\n      swap2\n      swap1\n      pop\n      jump\t// out\n        /* \"#utility.yul\":5389:5502   */\n    tag_75:\n        /* \"#utility.yul\":5459:5463   */\n      0x00\n        /* \"#utility.yul\":5491:5495   */\n      0x20\n        /* \"#utility.yul\":5486:5489   */\n      dup3\n        /* \"#utility.yul\":5482:5496   */\n      add\n        /* \"#utility.yul\":5474:5496   */\n      swap1\n      pop\n        /* \"#utility.yul\":5389:5502   */\n      swap2\n      swap1\n      pop\n      jump\t// out\n        /* \"#utility.yul\":5508:5700   */\n    tag_67:\n        /* \"#utility.yul\":5615:5626   */\n      0x00\n        /* \"#utility.yul\":5649:5655   */\n      dup3\n        /* \"#utility.yul\":5644:5647   */\n      dup3\n        /* \"#utility.yul\":5637:5656   */\n      mstore\n        /* \"#utility.yul\":5689:5693   */\n      0x20\n        /* \"#utility.yul\":5684:5687   */\n      dup3\n        /* \"#utility.yul\":5680:5694   */\n      add\n        /* \"#utility.yul\":5665:5694   */\n      swap1\n      pop\n        /* \"#utility.yul\":5508:5700   */\n      swap3\n      swap2\n      pop\n      pop\n      jump\t// out\n        /* \"#utility.yul\":5706:5783   */\n    tag_79:\n        /* \"#utility.yul\":5743:5750   */\n      0x00\n        /* \"#utility.yul\":5772:5777   */\n      dup2\n        /* \"#utility.yul\":5761:5777   */\n      swap1\n      pop\n        /* \"#utility.yul\":5706:5783   */\n      swap2\n      swap1\n      pop\n      jump\t// out\n        /* \"#utility.yul\":5789:6070   */\n    tag_94:\n        /* \"#utility.yul\":5872:5899   */\n      tag_106\n        /* \"#utility.yul\":5894:5898   */\n      dup3\n        /* \"#utility.yul\":5872:5899   */\n      tag_107\n      jump\t// in\n    tag_106:\n        /* \"#utility.yul\":5864:5870   */\n      dup2\n        /* \"#utility.yul\":5860:5900   */\n      add\n        /* \"#utility.yul\":6002:6008   */\n      dup2\n        /* \"#utility.yul\":5990:6000   */\n      dup2\n        /* \"#utility.yul\":5987:6009   */\n      lt\n        /* \"#utility.yul\":5966:5984   */\n      0xffffffffffffffff\n        /* \"#utility.yul\":5954:5964   */\n      dup3\n        /* \"#utility.yul\":5951:5985   */\n      gt\n        /* \"#utility.yul\":5948:6010   */\n      or\n        /* \"#utility.yul\":5945:6033   */\n      iszero\n      tag_108\n      jumpi\n        /* \"#utility.yul\":6013:6031   */\n      tag_109\n      tag_99\n      jump\t// in\n    tag_109:\n        /* \"#utility.yul\":5945:6033   */\n    tag_108:\n        /* \"#utility.yul\":6053:6063   */\n      dup1\n        /* \"#utility.yul\":6049:6051   */\n      0x40\n        /* \"#utility.yul\":6042:6064   */\n      mstore\n        /* \"#utility.yul\":5832:6070   */\n      pop\n        /* \"#utility.yul\":5789:6070   */\n      pop\n      pop\n      jump\t// out\n        /* \"#utility.yul\":6076:6256   */\n    tag_99:\n        /* \"#utility.yul\":6124:6201   */\n      0x4e487b7100000000000000000000000000000000000000000000000000000000\n        /* \"#utility.yul\":6121:6122   */\n      0x00\n        /* \"#utility.yul\":6114:6202   */\n      mstore\n        /* \"#utility.yul\":6221:6225   */\n      0x41\n        /* \"#utility.yul\":6218:6219   */\n      0x04\n        /* \"#utility.yul\":6211:6226   */\n      mstore\n        /* \"#utility.yul\":6245:6249   */\n      0x24\n        /* \"#utility.yul\":6242:6243   */\n      0x00\n        /* \"#utility.yul\":6235:6250   */\n      revert\n        /* \"#utility.yul\":6262:6379   */\n    tag_37:\n        /* \"#utility.yul\":6371:6372   */\n      0x00\n        /* \"#utility.yul\":6368:6369   */\n      dup1\n        /* \"#utility.yul\":6361:6373   */\n      revert\n        /* \"#utility.yul\":6385:6502   */\n    tag_27:\n        /* \"#utility.yul\":6494:6495   */\n      0x00\n        /* \"#utility.yul\":6491:6492   */\n      dup1\n        /* \"#utility.yul\":6484:6496   */\n      revert\n        /* \"#utility.yul\":6508:6625   */\n    tag_51:\n        /* \"#utility.yul\":6617:6618   */\n      0x00\n        /* \"#utility.yul\":6614:6615   */\n      dup1\n        /* \"#utility.yul\":6607:6619   */\n      revert\n        /* \"#utility.yul\":6631:6748   */\n    tag_48:\n        /* \"#utility.yul\":6740:6741   */\n      0x00\n        /* \"#utility.yul\":6737:6738   */\n      dup1\n        /* \"#utility.yul\":6730:6742   */\n      revert\n        /* \"#utility.yul\":6754:6856   */\n    tag_107:\n        /* \"#utility.yul\":6795:6801   */\n      0x00\n        /* \"#utility.yul\":6846:6848   */\n      0x1f\n        /* \"#utility.yul\":6842:6849   */\n      not\n        /* \"#utility.yul\":6837:6839   */\n      0x1f\n        /* \"#utility.yul\":6830:6835   */\n      dup4\n        /* \"#utility.yul\":6826:6840   */\n      add\n        /* \"#utility.yul\":6822:6850   */\n      and\n        /* \"#utility.yul\":6812:6850   */\n      swap1\n      pop\n        /* \"#utility.yul\":6754:6856   */\n      swap2\n      swap1\n      pop\n      jump\t// out\n        /* \"#utility.yul\":6862:6984   */\n    tag_41:\n        /* \"#utility.yul\":6935:6959   */\n      tag_117\n        /* \"#utility.yul\":6953:6958   */\n      dup2\n        /* \"#utility.yul\":6935:6959   */\n      tag_79\n      jump\t// in\n    tag_117:\n        /* \"#utility.yul\":6928:6933   */\n      dup2\n        /* \"#utility.yul\":6925:6960   */\n      eq\n        /* \"#utility.yul\":6915:6978   */\n      tag_118\n      jumpi\n        /* \"#utility.yul\":6974:6975   */\n      0x00\n        /* \"#utility.yul\":6971:6972   */\n      dup1\n        /* \"#utility.yul\":6964:6976   */\n      revert\n        /* \"#utility.yul\":6915:6978   */\n    tag_118:\n        /* \"#utility.yul\":6862:6984   */\n      pop\n      jump\t// out\n\n    auxdata: 0xa26469706673582212201b87688539477c6cd08affbec4d441f93401f10eea82ff25512cbf7a43378e4764736f6c63430008070033\n}\n",
				"bytecode": {
					"linkReferences": {
						"Library.sol": {
							"Search": [
								{
									"length": 20,
									"start": 133
								}
							]
						}
					},
					"object": "608060405234801561001057600080fd5b5061049a806100206000396000f3fe608060405234801561001057600080fd5b506004361061002b5760003560e01c80633d80de1a14610030575b600080fd5b61004a600480360381019061004591906101bd565b610060565b6040516100579190610319565b60405180910390f35b60008273__$170af23aaaff0e5c26bbdc0e5c800e3b99$__636457237b9091846040518363ffffffff1660e01b815260040161009d9291906102e9565b60206040518083038186803b1580156100b557600080fd5b505af41580156100c9573d6000803e3d6000fd5b505050506040513d601f19601f820116820180604052508101906100ed9190610219565b905092915050565b600061010861010384610359565b610334565b9050808382526020820190508285602086028201111561012b5761012a61042d565b5b60005b8581101561015b57816101418882610193565b84526020840193506020830192505060018101905061012e565b5050509392505050565b600082601f83011261017a57610179610428565b5b813561018a8482602086016100f5565b91505092915050565b6000813590506101a28161044d565b92915050565b6000815190506101b78161044d565b92915050565b600080604083850312156101d4576101d3610437565b5b600083013567ffffffffffffffff8111156101f2576101f1610432565b5b6101fe85828601610165565b925050602061020f85828601610193565b9150509250929050565b60006020828403121561022f5761022e610437565b5b600061023d848285016101a8565b91505092915050565b600061025283836102da565b60208301905092915050565b600061026982610395565b61027381856103ad565b935061027e83610385565b8060005b838110156102af5781516102968882610246565b97506102a1836103a0565b925050600181019050610282565b5085935050505092915050565b6102c5816103be565b82525050565b6102d4816103be565b82525050565b6102e3816103be565b82525050565b60006040820190508181036000830152610303818561025e565b905061031260208301846102cb565b9392505050565b600060208201905061032e60008301846102bc565b92915050565b600061033e61034f565b905061034a82826103c8565b919050565b6000604051905090565b600067ffffffffffffffff821115610374576103736103f9565b5b602082029050602081019050919050565b6000819050602082019050919050565b600081519050919050565b6000602082019050919050565b600082825260208201905092915050565b6000819050919050565b6103d18261043c565b810181811067ffffffffffffffff821117156103f0576103ef6103f9565b5b80604052505050565b7f4e487b7100000000000000000000000000000000000000000000000000000000600052604160045260246000fd5b600080fd5b600080fd5b600080fd5b600080fd5b6000601f19601f8301169050919050565b610456816103be565b811461046157600080fd5b5056fea26469706673582212201b87688539477c6cd08affbec4d441f93401f10eea82ff25512cbf7a43378e4764736f6c63430008070033",
					"opcodes": "PUSH1 0x80 PUSH1 0x40 MSTORE CALLVALUE DUP1 ISZERO PUSH2 0x10 JUMPI PUSH1 0x0 DUP1 REVERT JUMPDEST POP PUSH2 0x49A DUP1 PUSH2 0x20 PUSH1 0x0 CODECOPY PUSH1 0x0 RETURN INVALID PUSH1 0x80 PUSH1 0x40 MSTORE CALLVALUE DUP1 ISZERO PUSH2 0x10 JUMPI PUSH1 0x0 DUP1 REVERT JUMPDEST POP PUSH1 0x4 CALLDATASIZE LT PUSH2 0x2B JUMPI PUSH1 0x0 CALLDATALOAD PUSH1 0xE0 SHR DUP1 PUSH4 0x3D80DE1A EQ PUSH2 0x30 JUMPI JUMPDEST PUSH1 0x0 DUP1 REVERT JUMPDEST PUSH2 0x4A PUSH1 0x4 DUP1 CALLDATASIZE SUB DUP2 ADD SWAP1 PUSH2 0x45 SWAP2 SWAP1 PUSH2 0x1BD JUMP JUMPDEST PUSH2 0x60 JUMP JUMPDEST PUSH1 0x40 MLOAD PUSH2 0x57 SWAP2 SWAP1 PUSH2 0x319 JUMP JUMPDEST PUSH1 0x40 MLOAD DUP1 SWAP2 SUB SWAP1 RETURN JUMPDEST PUSH1 0x0 DUP3 PUSH20 0x0 PUSH4 0x6457237B SWAP1 SWAP2 DUP5 PUSH1 0x40 MLOAD DUP4 PUSH4 0xFFFFFFFF AND PUSH1 0xE0 SHL DUP2 MSTORE PUSH1 0x4 ADD PUSH2 0x9D SWAP3 SWAP2 SWAP1 PUSH2 0x2E9 JUMP JUMPDEST PUSH1 0x20 PUSH1 0x40 MLOAD DUP1 DUP4 SUB DUP2 DUP7 DUP1 EXTCODESIZE ISZERO DUP1 ISZERO PUSH2 0xB5 JUMPI PUSH1 0x0 DUP1 REVERT JUMPDEST POP GAS DELEGATECALL ISZERO DUP1 ISZERO PUSH2 0xC9 JUMPI RETURNDATASIZE PUSH1 0x0 DUP1 RETURNDATACOPY RETURNDATASIZE PUSH1 0x0 REVERT JUMPDEST POP POP POP POP PUSH1 0x40 MLOAD RETURNDATASIZE PUSH1 0x1F NOT PUSH1 0x1F DUP3 ADD AND DUP3 ADD DUP1 PUSH1 0x40 MSTORE POP DUP2 ADD SWAP1 PUSH2 0xED SWAP2 SWAP1 PUSH2 0x219 JUMP JUMPDEST SWAP1 POP SWAP3 SWAP2 POP POP JUMP JUMPDEST PUSH1 0x0 PUSH2 0x108 PUSH2 0x103 DUP5 PUSH2 0x359 JUMP JUMPDEST PUSH2 0x334 JUMP JUMPDEST SWAP1 POP DUP1 DUP4 DUP3 MSTORE PUSH1 0x20 DUP3 ADD SWAP1 POP DUP3 DUP6 PUSH1 0x20 DUP7 MUL DUP3 ADD GT ISZERO PUSH2 0x12B JUMPI PUSH2 0x12A PUSH2 0x42D JUMP JUMPDEST JUMPDEST PUSH1 0x0 JUMPDEST DUP6 DUP2 LT ISZERO PUSH2 0x15B JUMPI DUP2 PUSH2 0x141 DUP9 DUP3 PUSH2 0x193 JUMP JUMPDEST DUP5 MSTORE PUSH1 0x20 DUP5 ADD SWAP4 POP PUSH1 0x20 DUP4 ADD SWAP3 POP POP PUSH1 0x1 DUP2 ADD SWAP1 POP PUSH2 0x12E JUMP JUMPDEST POP POP POP SWAP4 SWAP3 POP POP POP JUMP JUMPDEST PUSH1 0x0 DUP3 PUSH1 0x1F DUP4 ADD SLT PUSH2 0x17A JUMPI PUSH2 0x179 PUSH2 0x428 JUMP JUMPDEST JUMPDEST DUP2 CALLDATALOAD PUSH2 0x18A DUP5 DUP3 PUSH1 0x20 DUP7 ADD PUSH2 0xF5 JUMP JUMPDEST SWAP2 POP POP SWAP3 SWAP2 POP POP JUMP JUMPDEST PUSH1 0x0 DUP2 CALLDATALOAD SWAP1 POP PUSH2 0x1A2 DUP2 PUSH2 0x44D JUMP JUMPDEST SWAP3 SWAP2 POP POP JUMP JUMPDEST PUSH1 0x0 DUP2 MLOAD SWAP1 POP PUSH2 0x1B7 DUP2 PUSH2 0x44D JUMP JUMPDEST SWAP3 SWAP2 POP POP JUMP JUMPDEST PUSH1 0x0 DUP1 PUSH1 0x40 DUP4 DUP6 SUB SLT ISZERO PUSH2 0x1D4 JUMPI PUSH2 0x1D3 PUSH2 0x437 JUMP JUMPDEST JUMPDEST PUSH1 0x0 DUP4 ADD CALLDATALOAD PUSH8 0xFFFFFFFFFFFFFFFF DUP2 GT ISZERO PUSH2 0x1F2 JUMPI PUSH2 0x1F1 PUSH2 0x432 JUMP JUMPDEST JUMPDEST PUSH2 0x1FE DUP6 DUP3 DUP7 ADD PUSH2 0x165 JUMP JUMPDEST SWAP3 POP POP PUSH1 0x20 PUSH2 0x20F DUP6 DUP3 DUP7 ADD PUSH2 0x193 JUMP JUMPDEST SWAP2 POP POP SWAP3 POP SWAP3 SWAP1 POP JUMP JUMPDEST PUSH1 0x0 PUSH1 0x20 DUP3 DUP5 SUB SLT ISZERO PUSH2 0x22F JUMPI PUSH2 0x22E PUSH2 0x437 JUMP JUMPDEST JUMPDEST PUSH1 0x0 PUSH2 0x23D DUP5 DUP3 DUP6 ADD PUSH2 0x1A8 JUMP JUMPDEST SWAP2 POP POP SWAP3 SWAP2 POP POP JUMP JUMPDEST PUSH1 0x0 PUSH2 0x252 DUP4 DUP4 PUSH2 0x2DA JUMP JUMPDEST PUSH1 0x20 DUP4 ADD SWAP1 POP SWAP3 SWAP2 POP POP JUMP JUMPDEST PUSH1 0x0 PUSH2 0x269 DUP3 PUSH2 0x395 JUMP JUMPDEST PUSH2 0x273 DUP2 DUP6 PUSH2 0x3AD JUMP JUMPDEST SWAP4 POP PUSH2 0x27E DUP4 PUSH2 0x385 JUMP JUMPDEST DUP1 PUSH1 0x0 JUMPDEST DUP4 DUP2 LT ISZERO PUSH2 0x2AF JUMPI DUP2 MLOAD PUSH2 0x296 DUP9 DUP3 PUSH2 0x246 JUMP JUMPDEST SWAP8 POP PUSH2 0x2A1 DUP4 PUSH2 0x3A0 JUMP JUMPDEST SWAP3 POP POP PUSH1 0x1 DUP2 ADD SWAP1 POP PUSH2 0x282 JUMP JUMPDEST POP DUP6 SWAP4 POP POP POP POP SWAP3 SWAP2 POP POP JUMP JUMPDEST PUSH2 0x2C5 DUP2 PUSH2 0x3BE JUMP JUMPDEST DUP3 MSTORE POP POP JUMP JUMPDEST PUSH2 0x2D4 DUP2 PUSH2 0x3BE JUMP JUMPDEST DUP3 MSTORE POP POP JUMP JUMPDEST PUSH2 0x2E3 DUP2 PUSH2 0x3BE JUMP JUMPDEST DUP3 MSTORE POP POP JUMP JUMPDEST PUSH1 0x0 PUSH1 0x40 DUP3 ADD SWAP1 POP DUP2 DUP2 SUB PUSH1 0x0 DUP4 ADD MSTORE PUSH2 0x303 DUP2 DUP6 PUSH2 0x25E JUMP JUMPDEST SWAP1 POP PUSH2 0x312 PUSH1 0x20 DUP4 ADD DUP5 PUSH2 0x2CB JUMP JUMPDEST SWAP4 SWAP3 POP POP POP JUMP JUMPDEST PUSH1 0x0 PUSH1 0x20 DUP3 ADD SWAP1 POP PUSH2 0x32E PUSH1 0x0 DUP4 ADD DUP5 PUSH2 0x2BC JUMP JUMPDEST SWAP3 SWAP2 POP POP JUMP JUMPDEST PUSH1 0x0 PUSH2 0x33E PUSH2 0x34F JUMP JUMPDEST SWAP1 POP PUSH2 0x34A DUP3 DUP3 PUSH2 0x3C8 JUMP JUMPDEST SWAP2 SWAP1 POP JUMP JUMPDEST PUSH1 0x0 PUSH1 0x40 MLOAD SWAP1 POP SWAP1 JUMP JUMPDEST PUSH1 0x0 PUSH8 0xFFFFFFFFFFFFFFFF DUP3 GT ISZERO PUSH2 0x374 JUMPI PUSH2 0x373 PUSH2 0x3F9 JUMP JUMPDEST JUMPDEST PUSH1 0x20 DUP3 MUL SWAP1 POP PUSH1 0x20 DUP2 ADD SWAP1 POP SWAP2 SWAP1 POP JUMP JUMPDEST PUSH1 0x0 DUP2 SWAP1 POP PUSH1 0x20 DUP3 ADD SWAP1 POP SWAP2 SWAP1 POP JUMP JUMPDEST PUSH1 0x0 DUP2 MLOAD SWAP1 POP SWAP2 SWAP1 POP JUMP JUMPDEST PUSH1 0x0 PUSH1 0x20 DUP3 ADD SWAP1 POP SWAP2 SWAP1 POP JUMP JUMPDEST PUSH1 0x0 DUP3 DUP3 MSTORE PUSH1 0x20 DUP3 ADD SWAP1 POP SWAP3 SWAP2 POP POP JUMP JUMPDEST PUSH1 0x0 DUP2 SWAP1 POP SWAP2 SWAP1 POP JUMP JUMPDEST PUSH2 0x3D1 DUP3 PUSH2 0x43C JUMP JUMPDEST DUP2 ADD DUP2 DUP2 LT PUSH8 0xFFFFFFFFFFFFFFFF DUP3 GT OR ISZERO PUSH2 0x3F0 JUMPI PUSH2 0x3EF PUSH2 0x3F9 JUMP JUMPDEST JUMPDEST DUP1 PUSH1 0x40 MSTORE POP POP POP JUMP JUMPDEST PUSH32 0x4E487B7100000000000000000000000000000000000000000000000000000000 PUSH1 0x0 MSTORE PUSH1 0x41 PUSH1 0x4 MSTORE PUSH1 0x24 PUSH1 0x0 REVERT JUMPDEST PUSH1 0x0 DUP1 REVERT JUMPDEST PUSH1 0x0 DUP1 REVERT JUMPDEST PUSH1 0x0 DUP1 REVERT JUMPDEST PUSH1 0x0 DUP1 REVERT JUMPDEST PUSH1 0x0 PUSH1 0x1F NOT PUSH1 0x1F DUP4 ADD AND SWAP1 POP SWAP2 SWAP1 POP JUMP JUMPDEST PUSH2 0x456 DUP2 PUSH2 0x3BE JUMP JUMPDEST DUP2 EQ PUSH2 0x461 JUMPI PUSH1 0x0 DUP1 REVERT JUMPDEST POP JUMP INVALID LOG2 PUSH5 0x6970667358 0x22 SLT KECCAK256 SHL DUP8 PUSH9 0x8539477C6CD08AFFBE 0xC4 0xD4 COINBASE 0xF9 CALLVALUE ADD CALL 0xE 0xEA DUP3 SELFDESTRUCT 0x25 MLOAD 0x2C 0xBF PUSH27 0x43378E4764736F6C63430008070033000000000000000000000000 "
				},
				"gasEstimates": {
					"creation": {
						"codeDepositCost": "235600",
						"executionCost": "275",
						"totalCost": "235875"
					},
					"external": {
						"trial1(uint256[],uint256)": "infinite"
					}
				},
				"methodIdentifiers": {
					"trial1(uint256[],uint256)": "3d80de1a"
				}
			},
			"storageLayout": {
				"storage": [],
				"types": null
			},
			"userdoc": {
				"kind": "user",
				"methods": {},
				"version": 1
			}
		}
	}
}