{
	"FunctionAccessModifiers.sol": {
		"Functions": {
			"abi": [
				{
					"inputs": [],
					"name": "HelloWorld",
					"outputs": [
						{
							"internalType": "string",
							"name": "",
							"type": "string"
						}
					],
					"stateMutability": "pure",
					"type": "function"
				},
				{
					"inputs": [
						{
							"internalType": "uint256",
							"name": "a",
							"type": "uint256"
						},
						{
							"internalType": "uint256",
							"name": "b",
							"type": "uint256"
						}
					],
					"name": "addAndPure",
					"outputs": [
						{
							"internalType": "uint256",
							"name": "",
							"type": "uint256"
						}
					],
					"stateMutability": "pure",
					"type": "function"
				},
				{
					"inputs": [
						{
							"internalType": "uint256",
							"name": "a",
							"type": "uint256"
						},
						{
							"internalType": "uint256",
							"name": "b",
							"type": "uint256"
						}
					],
					"name": "addAndView",
					"outputs": [
						{
							"internalType": "uint256",
							"name": "",
							"type": "uint256"
						}
					],
					"stateMutability": "view",
					"type": "function"
				},
				{
					"inputs": [
						{
							"internalType": "uint256",
							"name": "y",
							"type": "uint256"
						}
					],
					"name": "addToX",
					"outputs": [
						{
							"internalType": "uint256",
							"name": "",
							"type": "uint256"
						}
					],
					"stateMutability": "view",
					"type": "function"
				},
				{
					"inputs": [],
					"name": "number",
					"outputs": [
						{
							"internalType": "uint256",
							"name": "",
							"type": "uint256"
						}
					],
					"stateMutability": "view",
					"type": "function"
				}
			],
			"devdoc": {
				"kind": "dev",
				"methods": {},
				"version": 1
			},
			"evm": {
				"assembly": "    /* \"FunctionAccessModifiers.sol\":61:901  contract Functions {\r... */\n  mstore(0x40, 0x80)\n    /* \"FunctionAccessModifiers.sol\":248:249  3 */\n  0x03\n    /* \"FunctionAccessModifiers.sol\":227:249  uint public number = 3 */\n  0x00\n  sstore\n    /* \"FunctionAccessModifiers.sol\":61:901  contract Functions {\r... */\n  callvalue\n  dup1\n  iszero\n  tag_1\n  jumpi\n  0x00\n  dup1\n  revert\ntag_1:\n  pop\n  dataSize(sub_0)\n  dup1\n  dataOffset(sub_0)\n  0x00\n  codecopy\n  0x00\n  return\nstop\n\nsub_0: assembly {\n        /* \"FunctionAccessModifiers.sol\":61:901  contract Functions {\r... */\n      mstore(0x40, 0x80)\n      callvalue\n      dup1\n      iszero\n      tag_1\n      jumpi\n      0x00\n      dup1\n      revert\n    tag_1:\n      pop\n      jumpi(tag_2, lt(calldatasize, 0x04))\n      shr(0xe0, calldataload(0x00))\n      dup1\n      0x5965da77\n      eq\n      tag_3\n      jumpi\n      dup1\n      0x7fffb7bd\n      eq\n      tag_4\n      jumpi\n      dup1\n      0x8381f58a\n      eq\n      tag_5\n      jumpi\n      dup1\n      0xeb825fa0\n      eq\n      tag_6\n      jumpi\n      dup1\n      0xf8190642\n      eq\n      tag_7\n      jumpi\n    tag_2:\n      0x00\n      dup1\n      revert\n        /* \"FunctionAccessModifiers.sol\":258:343  function addToX(uint y) public view returns(uint){\r... */\n    tag_3:\n      tag_8\n      0x04\n      dup1\n      calldatasize\n      sub\n      dup2\n      add\n      swap1\n      tag_9\n      swap2\n      swap1\n      tag_10\n      jump\t// in\n    tag_9:\n      tag_11\n      jump\t// in\n    tag_8:\n      mload(0x40)\n      tag_12\n      swap2\n      swap1\n      tag_13\n      jump\t// in\n    tag_12:\n      mload(0x40)\n      dup1\n      swap2\n      sub\n      swap1\n      return\n        /* \"FunctionAccessModifiers.sol\":795:892  function HelloWorld() pure public returns(string memory) {\r... */\n    tag_4:\n      tag_14\n      tag_15\n      jump\t// in\n    tag_14:\n      mload(0x40)\n      tag_16\n      swap2\n      swap1\n      tag_17\n      jump\t// in\n    tag_16:\n      mload(0x40)\n      dup1\n      swap2\n      sub\n      swap1\n      return\n        /* \"FunctionAccessModifiers.sol\":227:249  uint public number = 3 */\n    tag_5:\n      tag_18\n      tag_19\n      jump\t// in\n    tag_18:\n      mload(0x40)\n      tag_20\n      swap2\n      swap1\n      tag_13\n      jump\t// in\n    tag_20:\n      mload(0x40)\n      dup1\n      swap2\n      sub\n      swap1\n      return\n        /* \"FunctionAccessModifiers.sol\":685:787  function addAndPure(uint a, uint b) public pure returns (uint) {\r... */\n    tag_6:\n      tag_21\n      0x04\n      dup1\n      calldatasize\n      sub\n      dup2\n      add\n      swap1\n      tag_22\n      swap2\n      swap1\n      tag_23\n      jump\t// in\n    tag_22:\n      tag_24\n      jump\t// in\n    tag_21:\n      mload(0x40)\n      tag_25\n      swap2\n      swap1\n      tag_13\n      jump\t// in\n    tag_25:\n      mload(0x40)\n      dup1\n      swap2\n      sub\n      swap1\n      return\n        /* \"FunctionAccessModifiers.sol\":351:470  function addAndView(uint a, uint b) public view returns (uint) {\r... */\n    tag_7:\n      tag_26\n      0x04\n      dup1\n      calldatasize\n      sub\n      dup2\n      add\n      swap1\n      tag_27\n      swap2\n      swap1\n      tag_23\n      jump\t// in\n    tag_27:\n      tag_28\n      jump\t// in\n    tag_26:\n      mload(0x40)\n      tag_29\n      swap2\n      swap1\n      tag_13\n      jump\t// in\n    tag_29:\n      mload(0x40)\n      dup1\n      swap2\n      sub\n      swap1\n      return\n        /* \"FunctionAccessModifiers.sol\":258:343  function addToX(uint y) public view returns(uint){\r... */\n    tag_11:\n        /* \"FunctionAccessModifiers.sol\":302:306  uint */\n      0x00\n        /* \"FunctionAccessModifiers.sol\":334:335  y */\n      dup2\n        /* \"FunctionAccessModifiers.sol\":325:331  number */\n      sload(0x00)\n        /* \"FunctionAccessModifiers.sol\":325:335  number + y */\n      tag_31\n      swap2\n      swap1\n      tag_32\n      jump\t// in\n    tag_31:\n        /* \"FunctionAccessModifiers.sol\":318:335  return number + y */\n      swap1\n      pop\n        /* \"FunctionAccessModifiers.sol\":258:343  function addToX(uint y) public view returns(uint){\r... */\n      swap2\n      swap1\n      pop\n      jump\t// out\n        /* \"FunctionAccessModifiers.sol\":795:892  function HelloWorld() pure public returns(string memory) {\r... */\n    tag_15:\n        /* \"FunctionAccessModifiers.sol\":837:850  string memory */\n      0x60\n        /* \"FunctionAccessModifiers.sol\":863:884  return 'Hello World!' */\n      mload(0x40)\n      dup1\n      0x40\n      add\n      0x40\n      mstore\n      dup1\n      0x0c\n      dup2\n      mstore\n      0x20\n      add\n      0x48656c6c6f20576f726c64210000000000000000000000000000000000000000\n      dup2\n      mstore\n      pop\n      swap1\n      pop\n        /* \"FunctionAccessModifiers.sol\":795:892  function HelloWorld() pure public returns(string memory) {\r... */\n      swap1\n      jump\t// out\n        /* \"FunctionAccessModifiers.sol\":227:249  uint public number = 3 */\n    tag_19:\n      sload(0x00)\n      dup2\n      jump\t// out\n        /* \"FunctionAccessModifiers.sol\":685:787  function addAndPure(uint a, uint b) public pure returns (uint) {\r... */\n    tag_24:\n        /* \"FunctionAccessModifiers.sol\":742:746  uint */\n      0x00\n        /* \"FunctionAccessModifiers.sol\":775:777  42 */\n      0x2a\n        /* \"FunctionAccessModifiers.sol\":771:772  b */\n      dup3\n        /* \"FunctionAccessModifiers.sol\":771:777  b + 42 */\n      tag_35\n      swap2\n      swap1\n      tag_32\n      jump\t// in\n    tag_35:\n        /* \"FunctionAccessModifiers.sol\":766:767  a */\n      dup4\n        /* \"FunctionAccessModifiers.sol\":766:778  a * (b + 42) */\n      tag_36\n      swap2\n      swap1\n      tag_37\n      jump\t// in\n    tag_36:\n        /* \"FunctionAccessModifiers.sol\":759:778  return a * (b + 42) */\n      swap1\n      pop\n        /* \"FunctionAccessModifiers.sol\":685:787  function addAndPure(uint a, uint b) public pure returns (uint) {\r... */\n      swap3\n      swap2\n      pop\n      pop\n      jump\t// out\n        /* \"FunctionAccessModifiers.sol\":351:470  function addAndView(uint a, uint b) public view returns (uint) {\r... */\n    tag_28:\n        /* \"FunctionAccessModifiers.sol\":408:412  uint */\n      0x00\n        /* \"FunctionAccessModifiers.sol\":447:462  block.timestamp */\n      timestamp\n        /* \"FunctionAccessModifiers.sol\":441:443  42 */\n      0x2a\n        /* \"FunctionAccessModifiers.sol\":437:438  b */\n      dup4\n        /* \"FunctionAccessModifiers.sol\":437:443  b + 42 */\n      tag_39\n      swap2\n      swap1\n      tag_32\n      jump\t// in\n    tag_39:\n        /* \"FunctionAccessModifiers.sol\":432:433  a */\n      dup5\n        /* \"FunctionAccessModifiers.sol\":432:444  a * (b + 42) */\n      tag_40\n      swap2\n      swap1\n      tag_37\n      jump\t// in\n    tag_40:\n        /* \"FunctionAccessModifiers.sol\":432:462  a * (b + 42) + block.timestamp */\n      tag_41\n      swap2\n      swap1\n      tag_32\n      jump\t// in\n    tag_41:\n        /* \"FunctionAccessModifiers.sol\":425:462  return a * (b + 42) + block.timestamp */\n      swap1\n      pop\n        /* \"FunctionAccessModifiers.sol\":351:470  function addAndView(uint a, uint b) public view returns (uint) {\r... */\n      swap3\n      swap2\n      pop\n      pop\n      jump\t// out\n        /* \"#utility.yul\":7:146   */\n    tag_43:\n        /* \"#utility.yul\":53:58   */\n      0x00\n        /* \"#utility.yul\":91:97   */\n      dup2\n        /* \"#utility.yul\":78:98   */\n      calldataload\n        /* \"#utility.yul\":69:98   */\n      swap1\n      pop\n        /* \"#utility.yul\":107:140   */\n      tag_45\n        /* \"#utility.yul\":134:139   */\n      dup2\n        /* \"#utility.yul\":107:140   */\n      tag_46\n      jump\t// in\n    tag_45:\n        /* \"#utility.yul\":7:146   */\n      swap3\n      swap2\n      pop\n      pop\n      jump\t// out\n        /* \"#utility.yul\":152:481   */\n    tag_10:\n        /* \"#utility.yul\":211:217   */\n      0x00\n        /* \"#utility.yul\":260:262   */\n      0x20\n        /* \"#utility.yul\":248:257   */\n      dup3\n        /* \"#utility.yul\":239:246   */\n      dup5\n        /* \"#utility.yul\":235:258   */\n      sub\n        /* \"#utility.yul\":231:263   */\n      slt\n        /* \"#utility.yul\":228:347   */\n      iszero\n      tag_48\n      jumpi\n        /* \"#utility.yul\":266:345   */\n      tag_49\n      tag_50\n      jump\t// in\n    tag_49:\n        /* \"#utility.yul\":228:347   */\n    tag_48:\n        /* \"#utility.yul\":386:387   */\n      0x00\n        /* \"#utility.yul\":411:464   */\n      tag_51\n        /* \"#utility.yul\":456:463   */\n      dup5\n        /* \"#utility.yul\":447:453   */\n      dup3\n        /* \"#utility.yul\":436:445   */\n      dup6\n        /* \"#utility.yul\":432:454   */\n      add\n        /* \"#utility.yul\":411:464   */\n      tag_43\n      jump\t// in\n    tag_51:\n        /* \"#utility.yul\":401:464   */\n      swap2\n      pop\n        /* \"#utility.yul\":357:474   */\n      pop\n        /* \"#utility.yul\":152:481   */\n      swap3\n      swap2\n      pop\n      pop\n      jump\t// out\n        /* \"#utility.yul\":487:961   */\n    tag_23:\n        /* \"#utility.yul\":555:561   */\n      0x00\n        /* \"#utility.yul\":563:569   */\n      dup1\n        /* \"#utility.yul\":612:614   */\n      0x40\n        /* \"#utility.yul\":600:609   */\n      dup4\n        /* \"#utility.yul\":591:598   */\n      dup6\n        /* \"#utility.yul\":587:610   */\n      sub\n        /* \"#utility.yul\":583:615   */\n      slt\n        /* \"#utility.yul\":580:699   */\n      iszero\n      tag_53\n      jumpi\n        /* \"#utility.yul\":618:697   */\n      tag_54\n      tag_50\n      jump\t// in\n    tag_54:\n        /* \"#utility.yul\":580:699   */\n    tag_53:\n        /* \"#utility.yul\":738:739   */\n      0x00\n        /* \"#utility.yul\":763:816   */\n      tag_55\n        /* \"#utility.yul\":808:815   */\n      dup6\n        /* \"#utility.yul\":799:805   */\n      dup3\n        /* \"#utility.yul\":788:797   */\n      dup7\n        /* \"#utility.yul\":784:806   */\n      add\n        /* \"#utility.yul\":763:816   */\n      tag_43\n      jump\t// in\n    tag_55:\n        /* \"#utility.yul\":753:816   */\n      swap3\n      pop\n        /* \"#utility.yul\":709:826   */\n      pop\n        /* \"#utility.yul\":865:867   */\n      0x20\n        /* \"#utility.yul\":891:944   */\n      tag_56\n        /* \"#utility.yul\":936:943   */\n      dup6\n        /* \"#utility.yul\":927:933   */\n      dup3\n        /* \"#utility.yul\":916:925   */\n      dup7\n        /* \"#utility.yul\":912:934   */\n      add\n        /* \"#utility.yul\":891:944   */\n      tag_43\n      jump\t// in\n    tag_56:\n        /* \"#utility.yul\":881:944   */\n      swap2\n      pop\n        /* \"#utility.yul\":836:954   */\n      pop\n        /* \"#utility.yul\":487:961   */\n      swap3\n      pop\n      swap3\n      swap1\n      pop\n      jump\t// out\n        /* \"#utility.yul\":967:1331   */\n    tag_57:\n        /* \"#utility.yul\":1055:1058   */\n      0x00\n        /* \"#utility.yul\":1083:1122   */\n      tag_59\n        /* \"#utility.yul\":1116:1121   */\n      dup3\n        /* \"#utility.yul\":1083:1122   */\n      tag_60\n      jump\t// in\n    tag_59:\n        /* \"#utility.yul\":1138:1209   */\n      tag_61\n        /* \"#utility.yul\":1202:1208   */\n      dup2\n        /* \"#utility.yul\":1197:1200   */\n      dup6\n        /* \"#utility.yul\":1138:1209   */\n      tag_62\n      jump\t// in\n    tag_61:\n        /* \"#utility.yul\":1131:1209   */\n      swap4\n      pop\n        /* \"#utility.yul\":1218:1270   */\n      tag_63\n        /* \"#utility.yul\":1263:1269   */\n      dup2\n        /* \"#utility.yul\":1258:1261   */\n      dup6\n        /* \"#utility.yul\":1251:1255   */\n      0x20\n        /* \"#utility.yul\":1244:1249   */\n      dup7\n        /* \"#utility.yul\":1240:1256   */\n      add\n        /* \"#utility.yul\":1218:1270   */\n      tag_64\n      jump\t// in\n    tag_63:\n        /* \"#utility.yul\":1295:1324   */\n      tag_65\n        /* \"#utility.yul\":1317:1323   */\n      dup2\n        /* \"#utility.yul\":1295:1324   */\n      tag_66\n      jump\t// in\n    tag_65:\n        /* \"#utility.yul\":1290:1293   */\n      dup5\n        /* \"#utility.yul\":1286:1325   */\n      add\n        /* \"#utility.yul\":1279:1325   */\n      swap2\n      pop\n        /* \"#utility.yul\":1059:1331   */\n      pop\n        /* \"#utility.yul\":967:1331   */\n      swap3\n      swap2\n      pop\n      pop\n      jump\t// out\n        /* \"#utility.yul\":1337:1455   */\n    tag_67:\n        /* \"#utility.yul\":1424:1448   */\n      tag_69\n        /* \"#utility.yul\":1442:1447   */\n      dup2\n        /* \"#utility.yul\":1424:1448   */\n      tag_70\n      jump\t// in\n    tag_69:\n        /* \"#utility.yul\":1419:1422   */\n      dup3\n        /* \"#utility.yul\":1412:1449   */\n      mstore\n        /* \"#utility.yul\":1337:1455   */\n      pop\n      pop\n      jump\t// out\n        /* \"#utility.yul\":1461:1774   */\n    tag_17:\n        /* \"#utility.yul\":1574:1578   */\n      0x00\n        /* \"#utility.yul\":1612:1614   */\n      0x20\n        /* \"#utility.yul\":1601:1610   */\n      dup3\n        /* \"#utility.yul\":1597:1615   */\n      add\n        /* \"#utility.yul\":1589:1615   */\n      swap1\n      pop\n        /* \"#utility.yul\":1661:1670   */\n      dup2\n        /* \"#utility.yul\":1655:1659   */\n      dup2\n        /* \"#utility.yul\":1651:1671   */\n      sub\n        /* \"#utility.yul\":1647:1648   */\n      0x00\n        /* \"#utility.yul\":1636:1645   */\n      dup4\n        /* \"#utility.yul\":1632:1649   */\n      add\n        /* \"#utility.yul\":1625:1672   */\n      mstore\n        /* \"#utility.yul\":1689:1767   */\n      tag_72\n        /* \"#utility.yul\":1762:1766   */\n      dup2\n        /* \"#utility.yul\":1753:1759   */\n      dup5\n        /* \"#utility.yul\":1689:1767   */\n      tag_57\n      jump\t// in\n    tag_72:\n        /* \"#utility.yul\":1681:1767   */\n      swap1\n      pop\n        /* \"#utility.yul\":1461:1774   */\n      swap3\n      swap2\n      pop\n      pop\n      jump\t// out\n        /* \"#utility.yul\":1780:2002   */\n    tag_13:\n        /* \"#utility.yul\":1873:1877   */\n      0x00\n        /* \"#utility.yul\":1911:1913   */\n      0x20\n        /* \"#utility.yul\":1900:1909   */\n      dup3\n        /* \"#utility.yul\":1896:1914   */\n      add\n        /* \"#utility.yul\":1888:1914   */\n      swap1\n      pop\n        /* \"#utility.yul\":1924:1995   */\n      tag_74\n        /* \"#utility.yul\":1992:1993   */\n      0x00\n        /* \"#utility.yul\":1981:1990   */\n      dup4\n        /* \"#utility.yul\":1977:1994   */\n      add\n        /* \"#utility.yul\":1968:1974   */\n      dup5\n        /* \"#utility.yul\":1924:1995   */\n      tag_67\n      jump\t// in\n    tag_74:\n        /* \"#utility.yul\":1780:2002   */\n      swap3\n      swap2\n      pop\n      pop\n      jump\t// out\n        /* \"#utility.yul\":2089:2188   */\n    tag_60:\n        /* \"#utility.yul\":2141:2147   */\n      0x00\n        /* \"#utility.yul\":2175:2180   */\n      dup2\n        /* \"#utility.yul\":2169:2181   */\n      mload\n        /* \"#utility.yul\":2159:2181   */\n      swap1\n      pop\n        /* \"#utility.yul\":2089:2188   */\n      swap2\n      swap1\n      pop\n      jump\t// out\n        /* \"#utility.yul\":2194:2363   */\n    tag_62:\n        /* \"#utility.yul\":2278:2289   */\n      0x00\n        /* \"#utility.yul\":2312:2318   */\n      dup3\n        /* \"#utility.yul\":2307:2310   */\n      dup3\n        /* \"#utility.yul\":2300:2319   */\n      mstore\n        /* \"#utility.yul\":2352:2356   */\n      0x20\n        /* \"#utility.yul\":2347:2350   */\n      dup3\n        /* \"#utility.yul\":2343:2357   */\n      add\n        /* \"#utility.yul\":2328:2357   */\n      swap1\n      pop\n        /* \"#utility.yul\":2194:2363   */\n      swap3\n      swap2\n      pop\n      pop\n      jump\t// out\n        /* \"#utility.yul\":2369:2674   */\n    tag_32:\n        /* \"#utility.yul\":2409:2412   */\n      0x00\n        /* \"#utility.yul\":2428:2448   */\n      tag_80\n        /* \"#utility.yul\":2446:2447   */\n      dup3\n        /* \"#utility.yul\":2428:2448   */\n      tag_70\n      jump\t// in\n    tag_80:\n        /* \"#utility.yul\":2423:2448   */\n      swap2\n      pop\n        /* \"#utility.yul\":2462:2482   */\n      tag_81\n        /* \"#utility.yul\":2480:2481   */\n      dup4\n        /* \"#utility.yul\":2462:2482   */\n      tag_70\n      jump\t// in\n    tag_81:\n        /* \"#utility.yul\":2457:2482   */\n      swap3\n      pop\n        /* \"#utility.yul\":2616:2617   */\n      dup3\n        /* \"#utility.yul\":2548:2614   */\n      0xffffffffffffffffffffffffffffffffffffffffffffffffffffffffffffffff\n        /* \"#utility.yul\":2544:2618   */\n      sub\n        /* \"#utility.yul\":2541:2542   */\n      dup3\n        /* \"#utility.yul\":2538:2619   */\n      gt\n        /* \"#utility.yul\":2535:2642   */\n      iszero\n      tag_82\n      jumpi\n        /* \"#utility.yul\":2622:2640   */\n      tag_83\n      tag_84\n      jump\t// in\n    tag_83:\n        /* \"#utility.yul\":2535:2642   */\n    tag_82:\n        /* \"#utility.yul\":2666:2667   */\n      dup3\n        /* \"#utility.yul\":2663:2664   */\n      dup3\n        /* \"#utility.yul\":2659:2668   */\n      add\n        /* \"#utility.yul\":2652:2668   */\n      swap1\n      pop\n        /* \"#utility.yul\":2369:2674   */\n      swap3\n      swap2\n      pop\n      pop\n      jump\t// out\n        /* \"#utility.yul\":2680:3028   */\n    tag_37:\n        /* \"#utility.yul\":2720:2727   */\n      0x00\n        /* \"#utility.yul\":2743:2763   */\n      tag_86\n        /* \"#utility.yul\":2761:2762   */\n      dup3\n        /* \"#utility.yul\":2743:2763   */\n      tag_70\n      jump\t// in\n    tag_86:\n        /* \"#utility.yul\":2738:2763   */\n      swap2\n      pop\n        /* \"#utility.yul\":2777:2797   */\n      tag_87\n        /* \"#utility.yul\":2795:2796   */\n      dup4\n        /* \"#utility.yul\":2777:2797   */\n      tag_70\n      jump\t// in\n    tag_87:\n        /* \"#utility.yul\":2772:2797   */\n      swap3\n      pop\n        /* \"#utility.yul\":2965:2966   */\n      dup2\n        /* \"#utility.yul\":2897:2963   */\n      0xffffffffffffffffffffffffffffffffffffffffffffffffffffffffffffffff\n        /* \"#utility.yul\":2893:2967   */\n      div\n        /* \"#utility.yul\":2890:2891   */\n      dup4\n        /* \"#utility.yul\":2887:2968   */\n      gt\n        /* \"#utility.yul\":2882:2883   */\n      dup3\n        /* \"#utility.yul\":2875:2884   */\n      iszero\n        /* \"#utility.yul\":2868:2885   */\n      iszero\n        /* \"#utility.yul\":2864:2969   */\n      and\n        /* \"#utility.yul\":2861:2992   */\n      iszero\n      tag_88\n      jumpi\n        /* \"#utility.yul\":2972:2990   */\n      tag_89\n      tag_84\n      jump\t// in\n    tag_89:\n        /* \"#utility.yul\":2861:2992   */\n    tag_88:\n        /* \"#utility.yul\":3020:3021   */\n      dup3\n        /* \"#utility.yul\":3017:3018   */\n      dup3\n        /* \"#utility.yul\":3013:3022   */\n      mul\n        /* \"#utility.yul\":3002:3022   */\n      swap1\n      pop\n        /* \"#utility.yul\":2680:3028   */\n      swap3\n      swap2\n      pop\n      pop\n      jump\t// out\n        /* \"#utility.yul\":3034:3111   */\n    tag_70:\n        /* \"#utility.yul\":3071:3078   */\n      0x00\n        /* \"#utility.yul\":3100:3105   */\n      dup2\n        /* \"#utility.yul\":3089:3105   */\n      swap1\n      pop\n        /* \"#utility.yul\":3034:3111   */\n      swap2\n      swap1\n      pop\n      jump\t// out\n        /* \"#utility.yul\":3117:3424   */\n    tag_64:\n        /* \"#utility.yul\":3185:3186   */\n      0x00\n        /* \"#utility.yul\":3195:3308   */\n    tag_92:\n        /* \"#utility.yul\":3209:3215   */\n      dup4\n        /* \"#utility.yul\":3206:3207   */\n      dup2\n        /* \"#utility.yul\":3203:3216   */\n      lt\n        /* \"#utility.yul\":3195:3308   */\n      iszero\n      tag_94\n      jumpi\n        /* \"#utility.yul\":3294:3295   */\n      dup1\n        /* \"#utility.yul\":3289:3292   */\n      dup3\n        /* \"#utility.yul\":3285:3296   */\n      add\n        /* \"#utility.yul\":3279:3297   */\n      mload\n        /* \"#utility.yul\":3275:3276   */\n      dup2\n        /* \"#utility.yul\":3270:3273   */\n      dup5\n        /* \"#utility.yul\":3266:3277   */\n      add\n        /* \"#utility.yul\":3259:3298   */\n      mstore\n        /* \"#utility.yul\":3231:3233   */\n      0x20\n        /* \"#utility.yul\":3228:3229   */\n      dup2\n        /* \"#utility.yul\":3224:3234   */\n      add\n        /* \"#utility.yul\":3219:3234   */\n      swap1\n      pop\n        /* \"#utility.yul\":3195:3308   */\n      jump(tag_92)\n    tag_94:\n        /* \"#utility.yul\":3326:3332   */\n      dup4\n        /* \"#utility.yul\":3323:3324   */\n      dup2\n        /* \"#utility.yul\":3320:3333   */\n      gt\n        /* \"#utility.yul\":3317:3418   */\n      iszero\n      tag_95\n      jumpi\n        /* \"#utility.yul\":3406:3407   */\n      0x00\n        /* \"#utility.yul\":3397:3403   */\n      dup5\n        /* \"#utility.yul\":3392:3395   */\n      dup5\n        /* \"#utility.yul\":3388:3404   */\n      add\n        /* \"#utility.yul\":3381:3408   */\n      mstore\n        /* \"#utility.yul\":3317:3418   */\n    tag_95:\n        /* \"#utility.yul\":3166:3424   */\n      pop\n        /* \"#utility.yul\":3117:3424   */\n      pop\n      pop\n      pop\n      jump\t// out\n        /* \"#utility.yul\":3430:3610   */\n    tag_84:\n        /* \"#utility.yul\":3478:3555   */\n      0x4e487b7100000000000000000000000000000000000000000000000000000000\n        /* \"#utility.yul\":3475:3476   */\n      0x00\n        /* \"#utility.yul\":3468:3556   */\n      mstore\n        /* \"#utility.yul\":3575:3579   */\n      0x11\n        /* \"#utility.yul\":3572:3573   */\n      0x04\n        /* \"#utility.yul\":3565:3580   */\n      mstore\n        /* \"#utility.yul\":3599:3603   */\n      0x24\n        /* \"#utility.yul\":3596:3597   */\n      0x00\n        /* \"#utility.yul\":3589:3604   */\n      revert\n        /* \"#utility.yul\":3739:3856   */\n    tag_50:\n        /* \"#utility.yul\":3848:3849   */\n      0x00\n        /* \"#utility.yul\":3845:3846   */\n      dup1\n        /* \"#utility.yul\":3838:3850   */\n      revert\n        /* \"#utility.yul\":3862:3964   */\n    tag_66:\n        /* \"#utility.yul\":3903:3909   */\n      0x00\n        /* \"#utility.yul\":3954:3956   */\n      0x1f\n        /* \"#utility.yul\":3950:3957   */\n      not\n        /* \"#utility.yul\":3945:3947   */\n      0x1f\n        /* \"#utility.yul\":3938:3943   */\n      dup4\n        /* \"#utility.yul\":3934:3948   */\n      add\n        /* \"#utility.yul\":3930:3958   */\n      and\n        /* \"#utility.yul\":3920:3958   */\n      swap1\n      pop\n        /* \"#utility.yul\":3862:3964   */\n      swap2\n      swap1\n      pop\n      jump\t// out\n        /* \"#utility.yul\":3970:4092   */\n    tag_46:\n        /* \"#utility.yul\":4043:4067   */\n      tag_102\n        /* \"#utility.yul\":4061:4066   */\n      dup2\n        /* \"#utility.yul\":4043:4067   */\n      tag_70\n      jump\t// in\n    tag_102:\n        /* \"#utility.yul\":4036:4041   */\n      dup2\n        /* \"#utility.yul\":4033:4068   */\n      eq\n        /* \"#utility.yul\":4023:4086   */\n      tag_103\n      jumpi\n        /* \"#utility.yul\":4082:4083   */\n      0x00\n        /* \"#utility.yul\":4079:4080   */\n      dup1\n        /* \"#utility.yul\":4072:4084   */\n      revert\n        /* \"#utility.yul\":4023:4086   */\n    tag_103:\n        /* \"#utility.yul\":3970:4092   */\n      pop\n      jump\t// out\n\n    auxdata: 0xa26469706673582212205d4ae3c05e9f4368d8230adfe9a943023898709bb3119b707fd059da97cdd68264736f6c63430008070033\n}\n",
				"bytecode": {
					"linkReferences": {},
					"object": "6080604052600360005534801561001557600080fd5b50610473806100256000396000f3fe608060405234801561001057600080fd5b50600436106100575760003560e01c80635965da771461005c5780637fffb7bd1461008c5780638381f58a146100aa578063eb825fa0146100c8578063f8190642146100f8575b600080fd5b610076600480360381019061007191906101e6565b610128565b60405161008391906102bd565b60405180910390f35b61009461013f565b6040516100a1919061029b565b60405180910390f35b6100b261017c565b6040516100bf91906102bd565b60405180910390f35b6100e260048036038101906100dd9190610213565b610182565b6040516100ef91906102bd565b60405180910390f35b610112600480360381019061010d9190610213565b6101a4565b60405161011f91906102bd565b60405180910390f35b60008160005461013891906102f4565b9050919050565b60606040518060400160405280600c81526020017f48656c6c6f20576f726c64210000000000000000000000000000000000000000815250905090565b60005481565b6000602a8261019191906102f4565b8361019c919061034a565b905092915050565b600042602a836101b491906102f4565b846101bf919061034a565b6101c991906102f4565b905092915050565b6000813590506101e081610426565b92915050565b6000602082840312156101fc576101fb610410565b5b600061020a848285016101d1565b91505092915050565b6000806040838503121561022a57610229610410565b5b6000610238858286016101d1565b9250506020610249858286016101d1565b9150509250929050565b600061025e826102d8565b61026881856102e3565b93506102788185602086016103ae565b61028181610415565b840191505092915050565b610295816103a4565b82525050565b600060208201905081810360008301526102b58184610253565b905092915050565b60006020820190506102d2600083018461028c565b92915050565b600081519050919050565b600082825260208201905092915050565b60006102ff826103a4565b915061030a836103a4565b9250827fffffffffffffffffffffffffffffffffffffffffffffffffffffffffffffffff0382111561033f5761033e6103e1565b5b828201905092915050565b6000610355826103a4565b9150610360836103a4565b9250817fffffffffffffffffffffffffffffffffffffffffffffffffffffffffffffffff0483118215151615610399576103986103e1565b5b828202905092915050565b6000819050919050565b60005b838110156103cc5780820151818401526020810190506103b1565b838111156103db576000848401525b50505050565b7f4e487b7100000000000000000000000000000000000000000000000000000000600052601160045260246000fd5b600080fd5b6000601f19601f8301169050919050565b61042f816103a4565b811461043a57600080fd5b5056fea26469706673582212205d4ae3c05e9f4368d8230adfe9a943023898709bb3119b707fd059da97cdd68264736f6c63430008070033",
					"opcodes": "PUSH1 0x80 PUSH1 0x40 MSTORE PUSH1 0x3 PUSH1 0x0 SSTORE CALLVALUE DUP1 ISZERO PUSH2 0x15 JUMPI PUSH1 0x0 DUP1 REVERT JUMPDEST POP PUSH2 0x473 DUP1 PUSH2 0x25 PUSH1 0x0 CODECOPY PUSH1 0x0 RETURN INVALID PUSH1 0x80 PUSH1 0x40 MSTORE CALLVALUE DUP1 ISZERO PUSH2 0x10 JUMPI PUSH1 0x0 DUP1 REVERT JUMPDEST POP PUSH1 0x4 CALLDATASIZE LT PUSH2 0x57 JUMPI PUSH1 0x0 CALLDATALOAD PUSH1 0xE0 SHR DUP1 PUSH4 0x5965DA77 EQ PUSH2 0x5C JUMPI DUP1 PUSH4 0x7FFFB7BD EQ PUSH2 0x8C JUMPI DUP1 PUSH4 0x8381F58A EQ PUSH2 0xAA JUMPI DUP1 PUSH4 0xEB825FA0 EQ PUSH2 0xC8 JUMPI DUP1 PUSH4 0xF8190642 EQ PUSH2 0xF8 JUMPI JUMPDEST PUSH1 0x0 DUP1 REVERT JUMPDEST PUSH2 0x76 PUSH1 0x4 DUP1 CALLDATASIZE SUB DUP2 ADD SWAP1 PUSH2 0x71 SWAP2 SWAP1 PUSH2 0x1E6 JUMP JUMPDEST PUSH2 0x128 JUMP JUMPDEST PUSH1 0x40 MLOAD PUSH2 0x83 SWAP2 SWAP1 PUSH2 0x2BD JUMP JUMPDEST PUSH1 0x40 MLOAD DUP1 SWAP2 SUB SWAP1 RETURN JUMPDEST PUSH2 0x94 PUSH2 0x13F JUMP JUMPDEST PUSH1 0x40 MLOAD PUSH2 0xA1 SWAP2 SWAP1 PUSH2 0x29B JUMP JUMPDEST PUSH1 0x40 MLOAD DUP1 SWAP2 SUB SWAP1 RETURN JUMPDEST PUSH2 0xB2 PUSH2 0x17C JUMP JUMPDEST PUSH1 0x40 MLOAD PUSH2 0xBF SWAP2 SWAP1 PUSH2 0x2BD JUMP JUMPDEST PUSH1 0x40 MLOAD DUP1 SWAP2 SUB SWAP1 RETURN JUMPDEST PUSH2 0xE2 PUSH1 0x4 DUP1 CALLDATASIZE SUB DUP2 ADD SWAP1 PUSH2 0xDD SWAP2 SWAP1 PUSH2 0x213 JUMP JUMPDEST PUSH2 0x182 JUMP JUMPDEST PUSH1 0x40 MLOAD PUSH2 0xEF SWAP2 SWAP1 PUSH2 0x2BD JUMP JUMPDEST PUSH1 0x40 MLOAD DUP1 SWAP2 SUB SWAP1 RETURN JUMPDEST PUSH2 0x112 PUSH1 0x4 DUP1 CALLDATASIZE SUB DUP2 ADD SWAP1 PUSH2 0x10D SWAP2 SWAP1 PUSH2 0x213 JUMP JUMPDEST PUSH2 0x1A4 JUMP JUMPDEST PUSH1 0x40 MLOAD PUSH2 0x11F SWAP2 SWAP1 PUSH2 0x2BD JUMP JUMPDEST PUSH1 0x40 MLOAD DUP1 SWAP2 SUB SWAP1 RETURN JUMPDEST PUSH1 0x0 DUP2 PUSH1 0x0 SLOAD PUSH2 0x138 SWAP2 SWAP1 PUSH2 0x2F4 JUMP JUMPDEST SWAP1 POP SWAP2 SWAP1 POP JUMP JUMPDEST PUSH1 0x60 PUSH1 0x40 MLOAD DUP1 PUSH1 0x40 ADD PUSH1 0x40 MSTORE DUP1 PUSH1 0xC DUP2 MSTORE PUSH1 0x20 ADD PUSH32 0x48656C6C6F20576F726C64210000000000000000000000000000000000000000 DUP2 MSTORE POP SWAP1 POP SWAP1 JUMP JUMPDEST PUSH1 0x0 SLOAD DUP2 JUMP JUMPDEST PUSH1 0x0 PUSH1 0x2A DUP3 PUSH2 0x191 SWAP2 SWAP1 PUSH2 0x2F4 JUMP JUMPDEST DUP4 PUSH2 0x19C SWAP2 SWAP1 PUSH2 0x34A JUMP JUMPDEST SWAP1 POP SWAP3 SWAP2 POP POP JUMP JUMPDEST PUSH1 0x0 TIMESTAMP PUSH1 0x2A DUP4 PUSH2 0x1B4 SWAP2 SWAP1 PUSH2 0x2F4 JUMP JUMPDEST DUP5 PUSH2 0x1BF SWAP2 SWAP1 PUSH2 0x34A JUMP JUMPDEST PUSH2 0x1C9 SWAP2 SWAP1 PUSH2 0x2F4 JUMP JUMPDEST SWAP1 POP SWAP3 SWAP2 POP POP JUMP JUMPDEST PUSH1 0x0 DUP2 CALLDATALOAD SWAP1 POP PUSH2 0x1E0 DUP2 PUSH2 0x426 JUMP JUMPDEST SWAP3 SWAP2 POP POP JUMP JUMPDEST PUSH1 0x0 PUSH1 0x20 DUP3 DUP5 SUB SLT ISZERO PUSH2 0x1FC JUMPI PUSH2 0x1FB PUSH2 0x410 JUMP JUMPDEST JUMPDEST PUSH1 0x0 PUSH2 0x20A DUP5 DUP3 DUP6 ADD PUSH2 0x1D1 JUMP JUMPDEST SWAP2 POP POP SWAP3 SWAP2 POP POP JUMP JUMPDEST PUSH1 0x0 DUP1 PUSH1 0x40 DUP4 DUP6 SUB SLT ISZERO PUSH2 0x22A JUMPI PUSH2 0x229 PUSH2 0x410 JUMP JUMPDEST JUMPDEST PUSH1 0x0 PUSH2 0x238 DUP6 DUP3 DUP7 ADD PUSH2 0x1D1 JUMP JUMPDEST SWAP3 POP POP PUSH1 0x20 PUSH2 0x249 DUP6 DUP3 DUP7 ADD PUSH2 0x1D1 JUMP JUMPDEST SWAP2 POP POP SWAP3 POP SWAP3 SWAP1 POP JUMP JUMPDEST PUSH1 0x0 PUSH2 0x25E DUP3 PUSH2 0x2D8 JUMP JUMPDEST PUSH2 0x268 DUP2 DUP6 PUSH2 0x2E3 JUMP JUMPDEST SWAP4 POP PUSH2 0x278 DUP2 DUP6 PUSH1 0x20 DUP7 ADD PUSH2 0x3AE JUMP JUMPDEST PUSH2 0x281 DUP2 PUSH2 0x415 JUMP JUMPDEST DUP5 ADD SWAP2 POP POP SWAP3 SWAP2 POP POP JUMP JUMPDEST PUSH2 0x295 DUP2 PUSH2 0x3A4 JUMP JUMPDEST DUP3 MSTORE POP POP JUMP JUMPDEST PUSH1 0x0 PUSH1 0x20 DUP3 ADD SWAP1 POP DUP2 DUP2 SUB PUSH1 0x0 DUP4 ADD MSTORE PUSH2 0x2B5 DUP2 DUP5 PUSH2 0x253 JUMP JUMPDEST SWAP1 POP SWAP3 SWAP2 POP POP JUMP JUMPDEST PUSH1 0x0 PUSH1 0x20 DUP3 ADD SWAP1 POP PUSH2 0x2D2 PUSH1 0x0 DUP4 ADD DUP5 PUSH2 0x28C JUMP JUMPDEST SWAP3 SWAP2 POP POP JUMP JUMPDEST PUSH1 0x0 DUP2 MLOAD SWAP1 POP SWAP2 SWAP1 POP JUMP JUMPDEST PUSH1 0x0 DUP3 DUP3 MSTORE PUSH1 0x20 DUP3 ADD SWAP1 POP SWAP3 SWAP2 POP POP JUMP JUMPDEST PUSH1 0x0 PUSH2 0x2FF DUP3 PUSH2 0x3A4 JUMP JUMPDEST SWAP2 POP PUSH2 0x30A DUP4 PUSH2 0x3A4 JUMP JUMPDEST SWAP3 POP DUP3 PUSH32 0xFFFFFFFFFFFFFFFFFFFFFFFFFFFFFFFFFFFFFFFFFFFFFFFFFFFFFFFFFFFFFFFF SUB DUP3 GT ISZERO PUSH2 0x33F JUMPI PUSH2 0x33E PUSH2 0x3E1 JUMP JUMPDEST JUMPDEST DUP3 DUP3 ADD SWAP1 POP SWAP3 SWAP2 POP POP JUMP JUMPDEST PUSH1 0x0 PUSH2 0x355 DUP3 PUSH2 0x3A4 JUMP JUMPDEST SWAP2 POP PUSH2 0x360 DUP4 PUSH2 0x3A4 JUMP JUMPDEST SWAP3 POP DUP2 PUSH32 0xFFFFFFFFFFFFFFFFFFFFFFFFFFFFFFFFFFFFFFFFFFFFFFFFFFFFFFFFFFFFFFFF DIV DUP4 GT DUP3 ISZERO ISZERO AND ISZERO PUSH2 0x399 JUMPI PUSH2 0x398 PUSH2 0x3E1 JUMP JUMPDEST JUMPDEST DUP3 DUP3 MUL SWAP1 POP SWAP3 SWAP2 POP POP JUMP JUMPDEST PUSH1 0x0 DUP2 SWAP1 POP SWAP2 SWAP1 POP JUMP JUMPDEST PUSH1 0x0 JUMPDEST DUP4 DUP2 LT ISZERO PUSH2 0x3CC JUMPI DUP1 DUP3 ADD MLOAD DUP2 DUP5 ADD MSTORE PUSH1 0x20 DUP2 ADD SWAP1 POP PUSH2 0x3B1 JUMP JUMPDEST DUP4 DUP2 GT ISZERO PUSH2 0x3DB JUMPI PUSH1 0x0 DUP5 DUP5 ADD MSTORE JUMPDEST POP POP POP POP JUMP JUMPDEST PUSH32 0x4E487B7100000000000000000000000000000000000000000000000000000000 PUSH1 0x0 MSTORE PUSH1 0x11 PUSH1 0x4 MSTORE PUSH1 0x24 PUSH1 0x0 REVERT JUMPDEST PUSH1 0x0 DUP1 REVERT JUMPDEST PUSH1 0x0 PUSH1 0x1F NOT PUSH1 0x1F DUP4 ADD AND SWAP1 POP SWAP2 SWAP1 POP JUMP JUMPDEST PUSH2 0x42F DUP2 PUSH2 0x3A4 JUMP JUMPDEST DUP2 EQ PUSH2 0x43A JUMPI PUSH1 0x0 DUP1 REVERT JUMPDEST POP JUMP INVALID LOG2 PUSH5 0x6970667358 0x22 SLT KECCAK256 0x5D 0x4A 0xE3 0xC0 0x5E SWAP16 NUMBER PUSH9 0xD8230ADFE9A9430238 SWAP9 PUSH17 0x9BB3119B707FD059DA97CDD68264736F6C PUSH4 0x43000807 STOP CALLER "
				},
				"gasEstimates": {
					"creation": {
						"codeDepositCost": "227800",
						"executionCost": "22375",
						"totalCost": "250175"
					},
					"external": {
						"HelloWorld()": "infinite",
						"addAndPure(uint256,uint256)": "infinite",
						"addAndView(uint256,uint256)": "infinite",
						"addToX(uint256)": "infinite",
						"number()": "2451"
					}
				},
				"methodIdentifiers": {
					"HelloWorld()": "7fffb7bd",
					"addAndPure(uint256,uint256)": "eb825fa0",
					"addAndView(uint256,uint256)": "f8190642",
					"addToX(uint256)": "5965da77",
					"number()": "8381f58a"
				}
			},
			"storageLayout": {
				"storage": [
					{
						"astId": 4,
						"contract": "FunctionAccessModifiers.sol:Functions",
						"label": "number",
						"offset": 0,
						"slot": "0",
						"type": "t_uint256"
					}
				],
				"types": {
					"t_uint256": {
						"encoding": "inplace",
						"label": "uint256",
						"numberOfBytes": "32"
					}
				}
			},
			"userdoc": {
				"kind": "user",
				"methods": {},
				"version": 1
			}
		}
	}
}