{
	"Call.sol": {
		"Caller": {
			"abi": [
				{
					"anonymous": false,
					"inputs": [
						{
							"indexed": false,
							"internalType": "bool",
							"name": "success",
							"type": "bool"
						},
						{
							"indexed": false,
							"internalType": "bytes",
							"name": "data",
							"type": "bytes"
						}
					],
					"name": "Response",
					"type": "event"
				},
				{
					"inputs": [
						{
							"internalType": "address",
							"name": "_addr",
							"type": "address"
						}
					],
					"name": "testCallDoesNotExist",
					"outputs": [],
					"stateMutability": "nonpayable",
					"type": "function"
				},
				{
					"inputs": [
						{
							"internalType": "address payable",
							"name": "_addr",
							"type": "address"
						}
					],
					"name": "testCallFoo",
					"outputs": [],
					"stateMutability": "payable",
					"type": "function"
				}
			],
			"devdoc": {
				"kind": "dev",
				"methods": {},
				"version": 1
			},
			"evm": {
				"assembly": "    /* \"Call.sol\":440:1355  contract Caller {\r... */\n  mstore(0x40, 0x80)\n  callvalue\n  dup1\n  iszero\n  tag_1\n  jumpi\n  0x00\n  dup1\n  revert\ntag_1:\n  pop\n  dataSize(sub_0)\n  dup1\n  dataOffset(sub_0)\n  0x00\n  codecopy\n  0x00\n  return\nstop\n\nsub_0: assembly {\n        /* \"Call.sol\":440:1355  contract Caller {\r... */\n      mstore(0x40, 0x80)\n      jumpi(tag_1, lt(calldatasize, 0x04))\n      shr(0xe0, calldataload(0x00))\n      dup1\n      0x87ba6179\n      eq\n      tag_2\n      jumpi\n      dup1\n      0xff00726c\n      eq\n      tag_3\n      jumpi\n    tag_1:\n      0x00\n      dup1\n      revert\n        /* \"Call.sol\":694:1040  function testCallFoo(address payable _addr) public payable {\r... */\n    tag_2:\n      tag_4\n      0x04\n      dup1\n      calldatasize\n      sub\n      dup2\n      add\n      swap1\n      tag_5\n      swap2\n      swap1\n      tag_6\n      jump\t// in\n    tag_5:\n      tag_7\n      jump\t// in\n    tag_4:\n      stop\n        /* \"Call.sol\":1127:1352  function testCallDoesNotExist(address _addr) public {\r... */\n    tag_3:\n      callvalue\n      dup1\n      iszero\n      tag_8\n      jumpi\n      0x00\n      dup1\n      revert\n    tag_8:\n      pop\n      tag_9\n      0x04\n      dup1\n      calldatasize\n      sub\n      dup2\n      add\n      swap1\n      tag_10\n      swap2\n      swap1\n      tag_11\n      jump\t// in\n    tag_10:\n      tag_12\n      jump\t// in\n    tag_9:\n      stop\n        /* \"Call.sol\":694:1040  function testCallFoo(address payable _addr) public payable {\r... */\n    tag_7:\n        /* \"Call.sol\":828:840  bool success */\n      0x00\n        /* \"Call.sol\":842:859  bytes memory data */\n      dup1\n        /* \"Call.sol\":863:868  _addr */\n      dup3\n        /* \"Call.sol\":863:873  _addr.call */\n      0xffffffffffffffffffffffffffffffffffffffff\n      and\n        /* \"Call.sol\":881:890  msg.value */\n      callvalue\n        /* \"Call.sol\":897:901  5000 */\n      0x1388\n        /* \"Call.sol\":863:991  _addr.call{value: msg.value, gas: 5000}(\r... */\n      swap1\n        /* \"Call.sol\":976:979  123 */\n      0x7b\n        /* \"Call.sol\":917:980  abi.encodeWithSignature(\"foo(string,uint256)\", \"call foo\", 123) */\n      add(0x24, mload(0x40))\n      tag_14\n      swap2\n      swap1\n      tag_15\n      jump\t// in\n    tag_14:\n      mload(0x40)\n      0x20\n      dup2\n      dup4\n      sub\n      sub\n      dup2\n      mstore\n      swap1\n      0x40\n      mstore\n      and(not(0xffffffffffffffffffffffffffffffffffffffffffffffffffffffff), 0x24ccab8f00000000000000000000000000000000000000000000000000000000)\n      0x20\n      dup3\n      add\n      dup1\n      mload\n      0xffffffffffffffffffffffffffffffffffffffffffffffffffffffff\n      dup4\n      dup2\n      dup4\n      and\n      or\n      dup4\n      mstore\n      pop\n      pop\n      pop\n      pop\n        /* \"Call.sol\":863:991  _addr.call{value: msg.value, gas: 5000}(\r... */\n      mload(0x40)\n      tag_16\n      swap2\n      swap1\n      tag_17\n      jump\t// in\n    tag_16:\n      0x00\n      mload(0x40)\n      dup1\n      dup4\n      sub\n      dup2\n      dup6\n      dup9\n      dup9\n      call\n      swap4\n      pop\n      pop\n      pop\n      pop\n      returndatasize\n      dup1\n      0x00\n      dup2\n      eq\n      tag_20\n      jumpi\n      mload(0x40)\n      swap2\n      pop\n      and(add(returndatasize, 0x3f), not(0x1f))\n      dup3\n      add\n      0x40\n      mstore\n      returndatasize\n      dup3\n      mstore\n      returndatasize\n      0x00\n      0x20\n      dup5\n      add\n      returndatacopy\n      jump(tag_19)\n    tag_20:\n      0x60\n      swap2\n      pop\n    tag_19:\n      pop\n        /* \"Call.sol\":827:991  (bool success, bytes memory data) = _addr.call{value: msg.value, gas: 5000}(\r... */\n      swap2\n      pop\n      swap2\n      pop\n        /* \"Call.sol\":1009:1032  Response(success, data) */\n      0x13848c3e38f8886f3f5d2ad9dff80d8092c2bbb8efd5b887a99c2c6cfc09ac2a\n        /* \"Call.sol\":1018:1025  success */\n      dup3\n        /* \"Call.sol\":1027:1031  data */\n      dup3\n        /* \"Call.sol\":1009:1032  Response(success, data) */\n      mload(0x40)\n      tag_21\n      swap3\n      swap2\n      swap1\n      tag_22\n      jump\t// in\n    tag_21:\n      mload(0x40)\n      dup1\n      swap2\n      sub\n      swap1\n      log1\n        /* \"Call.sol\":753:1040  {\r... */\n      pop\n      pop\n        /* \"Call.sol\":694:1040  function testCallFoo(address payable _addr) public payable {\r... */\n      pop\n      jump\t// out\n        /* \"Call.sol\":1127:1352  function testCallDoesNotExist(address _addr) public {\r... */\n    tag_12:\n        /* \"Call.sol\":1191:1203  bool success */\n      0x00\n        /* \"Call.sol\":1205:1222  bytes memory data */\n      dup1\n        /* \"Call.sol\":1226:1231  _addr */\n      dup3\n        /* \"Call.sol\":1226:1236  _addr.call */\n      0xffffffffffffffffffffffffffffffffffffffff\n      and\n        /* \"Call.sol\":1251:1292  abi.encodeWithSignature(\"doesNotExist()\") */\n      add(0x24, mload(0x40))\n      mload(0x40)\n      0x20\n      dup2\n      dup4\n      sub\n      sub\n      dup2\n      mstore\n      swap1\n      0x40\n      mstore\n      and(not(0xffffffffffffffffffffffffffffffffffffffffffffffffffffffff), 0x1dcc85ae00000000000000000000000000000000000000000000000000000000)\n      0x20\n      dup3\n      add\n      dup1\n      mload\n      0xffffffffffffffffffffffffffffffffffffffffffffffffffffffff\n      dup4\n      dup2\n      dup4\n      and\n      or\n      dup4\n      mstore\n      pop\n      pop\n      pop\n      pop\n        /* \"Call.sol\":1226:1303  _addr.call(\r... */\n      mload(0x40)\n      tag_24\n      swap2\n      swap1\n      tag_17\n      jump\t// in\n    tag_24:\n      0x00\n      mload(0x40)\n      dup1\n      dup4\n      sub\n      dup2\n      0x00\n      dup7\n      gas\n      call\n      swap2\n      pop\n      pop\n      returndatasize\n      dup1\n      0x00\n      dup2\n      eq\n      tag_27\n      jumpi\n      mload(0x40)\n      swap2\n      pop\n      and(add(returndatasize, 0x3f), not(0x1f))\n      dup3\n      add\n      0x40\n      mstore\n      returndatasize\n      dup3\n      mstore\n      returndatasize\n      0x00\n      0x20\n      dup5\n      add\n      returndatacopy\n      jump(tag_26)\n    tag_27:\n      0x60\n      swap2\n      pop\n    tag_26:\n      pop\n        /* \"Call.sol\":1190:1303  (bool success, bytes memory data) = _addr.call(\r... */\n      swap2\n      pop\n      swap2\n      pop\n        /* \"Call.sol\":1321:1344  Response(success, data) */\n      0x13848c3e38f8886f3f5d2ad9dff80d8092c2bbb8efd5b887a99c2c6cfc09ac2a\n        /* \"Call.sol\":1330:1337  success */\n      dup3\n        /* \"Call.sol\":1339:1343  data */\n      dup3\n        /* \"Call.sol\":1321:1344  Response(success, data) */\n      mload(0x40)\n      tag_28\n      swap3\n      swap2\n      swap1\n      tag_22\n      jump\t// in\n    tag_28:\n      mload(0x40)\n      dup1\n      swap2\n      sub\n      swap1\n      log1\n        /* \"Call.sol\":1179:1352  {\r... */\n      pop\n      pop\n        /* \"Call.sol\":1127:1352  function testCallDoesNotExist(address _addr) public {\r... */\n      pop\n      jump\t// out\n        /* \"#utility.yul\":7:146   */\n    tag_30:\n        /* \"#utility.yul\":53:58   */\n      0x00\n        /* \"#utility.yul\":91:97   */\n      dup2\n        /* \"#utility.yul\":78:98   */\n      calldataload\n        /* \"#utility.yul\":69:98   */\n      swap1\n      pop\n        /* \"#utility.yul\":107:140   */\n      tag_32\n        /* \"#utility.yul\":134:139   */\n      dup2\n        /* \"#utility.yul\":107:140   */\n      tag_33\n      jump\t// in\n    tag_32:\n        /* \"#utility.yul\":7:146   */\n      swap3\n      swap2\n      pop\n      pop\n      jump\t// out\n        /* \"#utility.yul\":152:307   */\n    tag_34:\n        /* \"#utility.yul\":206:211   */\n      0x00\n        /* \"#utility.yul\":244:250   */\n      dup2\n        /* \"#utility.yul\":231:251   */\n      calldataload\n        /* \"#utility.yul\":222:251   */\n      swap1\n      pop\n        /* \"#utility.yul\":260:301   */\n      tag_36\n        /* \"#utility.yul\":295:300   */\n      dup2\n        /* \"#utility.yul\":260:301   */\n      tag_37\n      jump\t// in\n    tag_36:\n        /* \"#utility.yul\":152:307   */\n      swap3\n      swap2\n      pop\n      pop\n      jump\t// out\n        /* \"#utility.yul\":313:642   */\n    tag_11:\n        /* \"#utility.yul\":372:378   */\n      0x00\n        /* \"#utility.yul\":421:423   */\n      0x20\n        /* \"#utility.yul\":409:418   */\n      dup3\n        /* \"#utility.yul\":400:407   */\n      dup5\n        /* \"#utility.yul\":396:419   */\n      sub\n        /* \"#utility.yul\":392:424   */\n      slt\n        /* \"#utility.yul\":389:508   */\n      iszero\n      tag_39\n      jumpi\n        /* \"#utility.yul\":427:506   */\n      tag_40\n      tag_41\n      jump\t// in\n    tag_40:\n        /* \"#utility.yul\":389:508   */\n    tag_39:\n        /* \"#utility.yul\":547:548   */\n      0x00\n        /* \"#utility.yul\":572:625   */\n      tag_42\n        /* \"#utility.yul\":617:624   */\n      dup5\n        /* \"#utility.yul\":608:614   */\n      dup3\n        /* \"#utility.yul\":597:606   */\n      dup6\n        /* \"#utility.yul\":593:615   */\n      add\n        /* \"#utility.yul\":572:625   */\n      tag_30\n      jump\t// in\n    tag_42:\n        /* \"#utility.yul\":562:625   */\n      swap2\n      pop\n        /* \"#utility.yul\":518:635   */\n      pop\n        /* \"#utility.yul\":313:642   */\n      swap3\n      swap2\n      pop\n      pop\n      jump\t// out\n        /* \"#utility.yul\":648:993   */\n    tag_6:\n        /* \"#utility.yul\":715:721   */\n      0x00\n        /* \"#utility.yul\":764:766   */\n      0x20\n        /* \"#utility.yul\":752:761   */\n      dup3\n        /* \"#utility.yul\":743:750   */\n      dup5\n        /* \"#utility.yul\":739:762   */\n      sub\n        /* \"#utility.yul\":735:767   */\n      slt\n        /* \"#utility.yul\":732:851   */\n      iszero\n      tag_44\n      jumpi\n        /* \"#utility.yul\":770:849   */\n      tag_45\n      tag_41\n      jump\t// in\n    tag_45:\n        /* \"#utility.yul\":732:851   */\n    tag_44:\n        /* \"#utility.yul\":890:891   */\n      0x00\n        /* \"#utility.yul\":915:976   */\n      tag_46\n        /* \"#utility.yul\":968:975   */\n      dup5\n        /* \"#utility.yul\":959:965   */\n      dup3\n        /* \"#utility.yul\":948:957   */\n      dup6\n        /* \"#utility.yul\":944:966   */\n      add\n        /* \"#utility.yul\":915:976   */\n      tag_34\n      jump\t// in\n    tag_46:\n        /* \"#utility.yul\":905:976   */\n      swap2\n      pop\n        /* \"#utility.yul\":861:986   */\n      pop\n        /* \"#utility.yul\":648:993   */\n      swap3\n      swap2\n      pop\n      pop\n      jump\t// out\n        /* \"#utility.yul\":999:1108   */\n    tag_47:\n        /* \"#utility.yul\":1080:1101   */\n      tag_49\n        /* \"#utility.yul\":1095:1100   */\n      dup2\n        /* \"#utility.yul\":1080:1101   */\n      tag_50\n      jump\t// in\n    tag_49:\n        /* \"#utility.yul\":1075:1078   */\n      dup3\n        /* \"#utility.yul\":1068:1102   */\n      mstore\n        /* \"#utility.yul\":999:1108   */\n      pop\n      pop\n      jump\t// out\n        /* \"#utility.yul\":1114:1474   */\n    tag_51:\n        /* \"#utility.yul\":1200:1203   */\n      0x00\n        /* \"#utility.yul\":1228:1266   */\n      tag_53\n        /* \"#utility.yul\":1260:1265   */\n      dup3\n        /* \"#utility.yul\":1228:1266   */\n      tag_54\n      jump\t// in\n    tag_53:\n        /* \"#utility.yul\":1282:1352   */\n      tag_55\n        /* \"#utility.yul\":1345:1351   */\n      dup2\n        /* \"#utility.yul\":1340:1343   */\n      dup6\n        /* \"#utility.yul\":1282:1352   */\n      tag_56\n      jump\t// in\n    tag_55:\n        /* \"#utility.yul\":1275:1352   */\n      swap4\n      pop\n        /* \"#utility.yul\":1361:1413   */\n      tag_57\n        /* \"#utility.yul\":1406:1412   */\n      dup2\n        /* \"#utility.yul\":1401:1404   */\n      dup6\n        /* \"#utility.yul\":1394:1398   */\n      0x20\n        /* \"#utility.yul\":1387:1392   */\n      dup7\n        /* \"#utility.yul\":1383:1399   */\n      add\n        /* \"#utility.yul\":1361:1413   */\n      tag_58\n      jump\t// in\n    tag_57:\n        /* \"#utility.yul\":1438:1467   */\n      tag_59\n        /* \"#utility.yul\":1460:1466   */\n      dup2\n        /* \"#utility.yul\":1438:1467   */\n      tag_60\n      jump\t// in\n    tag_59:\n        /* \"#utility.yul\":1433:1436   */\n      dup5\n        /* \"#utility.yul\":1429:1468   */\n      add\n        /* \"#utility.yul\":1422:1468   */\n      swap2\n      pop\n        /* \"#utility.yul\":1204:1474   */\n      pop\n        /* \"#utility.yul\":1114:1474   */\n      swap3\n      swap2\n      pop\n      pop\n      jump\t// out\n        /* \"#utility.yul\":1480:1853   */\n    tag_61:\n        /* \"#utility.yul\":1584:1587   */\n      0x00\n        /* \"#utility.yul\":1612:1650   */\n      tag_63\n        /* \"#utility.yul\":1644:1649   */\n      dup3\n        /* \"#utility.yul\":1612:1650   */\n      tag_54\n      jump\t// in\n    tag_63:\n        /* \"#utility.yul\":1666:1754   */\n      tag_64\n        /* \"#utility.yul\":1747:1753   */\n      dup2\n        /* \"#utility.yul\":1742:1745   */\n      dup6\n        /* \"#utility.yul\":1666:1754   */\n      tag_65\n      jump\t// in\n    tag_64:\n        /* \"#utility.yul\":1659:1754   */\n      swap4\n      pop\n        /* \"#utility.yul\":1763:1815   */\n      tag_66\n        /* \"#utility.yul\":1808:1814   */\n      dup2\n        /* \"#utility.yul\":1803:1806   */\n      dup6\n        /* \"#utility.yul\":1796:1800   */\n      0x20\n        /* \"#utility.yul\":1789:1794   */\n      dup7\n        /* \"#utility.yul\":1785:1801   */\n      add\n        /* \"#utility.yul\":1763:1815   */\n      tag_58\n      jump\t// in\n    tag_66:\n        /* \"#utility.yul\":1840:1846   */\n      dup1\n        /* \"#utility.yul\":1835:1838   */\n      dup5\n        /* \"#utility.yul\":1831:1847   */\n      add\n        /* \"#utility.yul\":1824:1847   */\n      swap2\n      pop\n        /* \"#utility.yul\":1588:1853   */\n      pop\n        /* \"#utility.yul\":1480:1853   */\n      swap3\n      swap2\n      pop\n      pop\n      jump\t// out\n        /* \"#utility.yul\":1859:2006   */\n    tag_67:\n        /* \"#utility.yul\":1954:1999   */\n      tag_69\n        /* \"#utility.yul\":1993:1998   */\n      dup2\n        /* \"#utility.yul\":1954:1999   */\n      tag_70\n      jump\t// in\n    tag_69:\n        /* \"#utility.yul\":1949:1952   */\n      dup3\n        /* \"#utility.yul\":1942:2000   */\n      mstore\n        /* \"#utility.yul\":1859:2006   */\n      pop\n      pop\n      jump\t// out\n        /* \"#utility.yul\":2012:2377   */\n    tag_71:\n        /* \"#utility.yul\":2154:2157   */\n      0x00\n        /* \"#utility.yul\":2175:2241   */\n      tag_73\n        /* \"#utility.yul\":2239:2240   */\n      0x08\n        /* \"#utility.yul\":2234:2237   */\n      dup4\n        /* \"#utility.yul\":2175:2241   */\n      tag_74\n      jump\t// in\n    tag_73:\n        /* \"#utility.yul\":2168:2241   */\n      swap2\n      pop\n        /* \"#utility.yul\":2250:2343   */\n      tag_75\n        /* \"#utility.yul\":2339:2342   */\n      dup3\n        /* \"#utility.yul\":2250:2343   */\n      tag_76\n      jump\t// in\n    tag_75:\n        /* \"#utility.yul\":2368:2370   */\n      0x20\n        /* \"#utility.yul\":2363:2366   */\n      dup3\n        /* \"#utility.yul\":2359:2371   */\n      add\n        /* \"#utility.yul\":2352:2371   */\n      swap1\n      pop\n        /* \"#utility.yul\":2012:2377   */\n      swap2\n      swap1\n      pop\n      jump\t// out\n        /* \"#utility.yul\":2383:2654   */\n    tag_17:\n        /* \"#utility.yul\":2513:2516   */\n      0x00\n        /* \"#utility.yul\":2535:2628   */\n      tag_78\n        /* \"#utility.yul\":2624:2627   */\n      dup3\n        /* \"#utility.yul\":2615:2621   */\n      dup5\n        /* \"#utility.yul\":2535:2628   */\n      tag_61\n      jump\t// in\n    tag_78:\n        /* \"#utility.yul\":2528:2628   */\n      swap2\n      pop\n        /* \"#utility.yul\":2645:2648   */\n      dup2\n        /* \"#utility.yul\":2638:2648   */\n      swap1\n      pop\n        /* \"#utility.yul\":2383:2654   */\n      swap3\n      swap2\n      pop\n      pop\n      jump\t// out\n        /* \"#utility.yul\":2660:3067   */\n    tag_22:\n        /* \"#utility.yul\":2793:2797   */\n      0x00\n        /* \"#utility.yul\":2831:2833   */\n      0x40\n        /* \"#utility.yul\":2820:2829   */\n      dup3\n        /* \"#utility.yul\":2816:2834   */\n      add\n        /* \"#utility.yul\":2808:2834   */\n      swap1\n      pop\n        /* \"#utility.yul\":2844:2909   */\n      tag_80\n        /* \"#utility.yul\":2906:2907   */\n      0x00\n        /* \"#utility.yul\":2895:2904   */\n      dup4\n        /* \"#utility.yul\":2891:2908   */\n      add\n        /* \"#utility.yul\":2882:2888   */\n      dup6\n        /* \"#utility.yul\":2844:2909   */\n      tag_47\n      jump\t// in\n    tag_80:\n        /* \"#utility.yul\":2956:2965   */\n      dup2\n        /* \"#utility.yul\":2950:2954   */\n      dup2\n        /* \"#utility.yul\":2946:2966   */\n      sub\n        /* \"#utility.yul\":2941:2943   */\n      0x20\n        /* \"#utility.yul\":2930:2939   */\n      dup4\n        /* \"#utility.yul\":2926:2944   */\n      add\n        /* \"#utility.yul\":2919:2967   */\n      mstore\n        /* \"#utility.yul\":2984:3060   */\n      tag_81\n        /* \"#utility.yul\":3055:3059   */\n      dup2\n        /* \"#utility.yul\":3046:3052   */\n      dup5\n        /* \"#utility.yul\":2984:3060   */\n      tag_51\n      jump\t// in\n    tag_81:\n        /* \"#utility.yul\":2976:3060   */\n      swap1\n      pop\n        /* \"#utility.yul\":2660:3067   */\n      swap4\n      swap3\n      pop\n      pop\n      pop\n      jump\t// out\n        /* \"#utility.yul\":3073:3618   */\n    tag_15:\n        /* \"#utility.yul\":3275:3279   */\n      0x00\n        /* \"#utility.yul\":3313:3315   */\n      0x40\n        /* \"#utility.yul\":3302:3311   */\n      dup3\n        /* \"#utility.yul\":3298:3316   */\n      add\n        /* \"#utility.yul\":3290:3316   */\n      swap1\n      pop\n        /* \"#utility.yul\":3362:3371   */\n      dup2\n        /* \"#utility.yul\":3356:3360   */\n      dup2\n        /* \"#utility.yul\":3352:3372   */\n      sub\n        /* \"#utility.yul\":3348:3349   */\n      0x00\n        /* \"#utility.yul\":3337:3346   */\n      dup4\n        /* \"#utility.yul\":3333:3350   */\n      add\n        /* \"#utility.yul\":3326:3373   */\n      mstore\n        /* \"#utility.yul\":3390:3521   */\n      tag_83\n        /* \"#utility.yul\":3516:3520   */\n      dup2\n        /* \"#utility.yul\":3390:3521   */\n      tag_71\n      jump\t// in\n    tag_83:\n        /* \"#utility.yul\":3382:3521   */\n      swap1\n      pop\n        /* \"#utility.yul\":3531:3611   */\n      tag_84\n        /* \"#utility.yul\":3607:3609   */\n      0x20\n        /* \"#utility.yul\":3596:3605   */\n      dup4\n        /* \"#utility.yul\":3592:3610   */\n      add\n        /* \"#utility.yul\":3583:3589   */\n      dup5\n        /* \"#utility.yul\":3531:3611   */\n      tag_67\n      jump\t// in\n    tag_84:\n        /* \"#utility.yul\":3073:3618   */\n      swap3\n      swap2\n      pop\n      pop\n      jump\t// out\n        /* \"#utility.yul\":3705:3803   */\n    tag_54:\n        /* \"#utility.yul\":3756:3762   */\n      0x00\n        /* \"#utility.yul\":3790:3795   */\n      dup2\n        /* \"#utility.yul\":3784:3796   */\n      mload\n        /* \"#utility.yul\":3774:3796   */\n      swap1\n      pop\n        /* \"#utility.yul\":3705:3803   */\n      swap2\n      swap1\n      pop\n      jump\t// out\n        /* \"#utility.yul\":3809:3977   */\n    tag_56:\n        /* \"#utility.yul\":3892:3903   */\n      0x00\n        /* \"#utility.yul\":3926:3932   */\n      dup3\n        /* \"#utility.yul\":3921:3924   */\n      dup3\n        /* \"#utility.yul\":3914:3933   */\n      mstore\n        /* \"#utility.yul\":3966:3970   */\n      0x20\n        /* \"#utility.yul\":3961:3964   */\n      dup3\n        /* \"#utility.yul\":3957:3971   */\n      add\n        /* \"#utility.yul\":3942:3971   */\n      swap1\n      pop\n        /* \"#utility.yul\":3809:3977   */\n      swap3\n      swap2\n      pop\n      pop\n      jump\t// out\n        /* \"#utility.yul\":3983:4130   */\n    tag_65:\n        /* \"#utility.yul\":4084:4095   */\n      0x00\n        /* \"#utility.yul\":4121:4124   */\n      dup2\n        /* \"#utility.yul\":4106:4124   */\n      swap1\n      pop\n        /* \"#utility.yul\":3983:4130   */\n      swap3\n      swap2\n      pop\n      pop\n      jump\t// out\n        /* \"#utility.yul\":4136:4305   */\n    tag_74:\n        /* \"#utility.yul\":4220:4231   */\n      0x00\n        /* \"#utility.yul\":4254:4260   */\n      dup3\n        /* \"#utility.yul\":4249:4252   */\n      dup3\n        /* \"#utility.yul\":4242:4261   */\n      mstore\n        /* \"#utility.yul\":4294:4298   */\n      0x20\n        /* \"#utility.yul\":4289:4292   */\n      dup3\n        /* \"#utility.yul\":4285:4299   */\n      add\n        /* \"#utility.yul\":4270:4299   */\n      swap1\n      pop\n        /* \"#utility.yul\":4136:4305   */\n      swap3\n      swap2\n      pop\n      pop\n      jump\t// out\n        /* \"#utility.yul\":4311:4407   */\n    tag_91:\n        /* \"#utility.yul\":4348:4355   */\n      0x00\n        /* \"#utility.yul\":4377:4401   */\n      tag_93\n        /* \"#utility.yul\":4395:4400   */\n      dup3\n        /* \"#utility.yul\":4377:4401   */\n      tag_94\n      jump\t// in\n    tag_93:\n        /* \"#utility.yul\":4366:4401   */\n      swap1\n      pop\n        /* \"#utility.yul\":4311:4407   */\n      swap2\n      swap1\n      pop\n      jump\t// out\n        /* \"#utility.yul\":4413:4517   */\n    tag_95:\n        /* \"#utility.yul\":4458:4465   */\n      0x00\n        /* \"#utility.yul\":4487:4511   */\n      tag_97\n        /* \"#utility.yul\":4505:4510   */\n      dup3\n        /* \"#utility.yul\":4487:4511   */\n      tag_94\n      jump\t// in\n    tag_97:\n        /* \"#utility.yul\":4476:4511   */\n      swap1\n      pop\n        /* \"#utility.yul\":4413:4517   */\n      swap2\n      swap1\n      pop\n      jump\t// out\n        /* \"#utility.yul\":4523:4613   */\n    tag_50:\n        /* \"#utility.yul\":4557:4564   */\n      0x00\n        /* \"#utility.yul\":4600:4605   */\n      dup2\n        /* \"#utility.yul\":4593:4606   */\n      iszero\n        /* \"#utility.yul\":4586:4607   */\n      iszero\n        /* \"#utility.yul\":4575:4607   */\n      swap1\n      pop\n        /* \"#utility.yul\":4523:4613   */\n      swap2\n      swap1\n      pop\n      jump\t// out\n        /* \"#utility.yul\":4619:4745   */\n    tag_94:\n        /* \"#utility.yul\":4656:4663   */\n      0x00\n        /* \"#utility.yul\":4696:4738   */\n      0xffffffffffffffffffffffffffffffffffffffff\n        /* \"#utility.yul\":4689:4694   */\n      dup3\n        /* \"#utility.yul\":4685:4739   */\n      and\n        /* \"#utility.yul\":4674:4739   */\n      swap1\n      pop\n        /* \"#utility.yul\":4619:4745   */\n      swap2\n      swap1\n      pop\n      jump\t// out\n        /* \"#utility.yul\":4751:4837   */\n    tag_100:\n        /* \"#utility.yul\":4786:4793   */\n      0x00\n        /* \"#utility.yul\":4826:4830   */\n      0xff\n        /* \"#utility.yul\":4819:4824   */\n      dup3\n        /* \"#utility.yul\":4815:4831   */\n      and\n        /* \"#utility.yul\":4804:4831   */\n      swap1\n      pop\n        /* \"#utility.yul\":4751:4837   */\n      swap2\n      swap1\n      pop\n      jump\t// out\n        /* \"#utility.yul\":4843:4962   */\n    tag_70:\n        /* \"#utility.yul\":4901:4910   */\n      0x00\n        /* \"#utility.yul\":4934:4956   */\n      tag_103\n        /* \"#utility.yul\":4950:4955   */\n      dup3\n        /* \"#utility.yul\":4934:4956   */\n      tag_100\n      jump\t// in\n    tag_103:\n        /* \"#utility.yul\":4921:4956   */\n      swap1\n      pop\n        /* \"#utility.yul\":4843:4962   */\n      swap2\n      swap1\n      pop\n      jump\t// out\n        /* \"#utility.yul\":4968:5275   */\n    tag_58:\n        /* \"#utility.yul\":5036:5037   */\n      0x00\n        /* \"#utility.yul\":5046:5159   */\n    tag_105:\n        /* \"#utility.yul\":5060:5066   */\n      dup4\n        /* \"#utility.yul\":5057:5058   */\n      dup2\n        /* \"#utility.yul\":5054:5067   */\n      lt\n        /* \"#utility.yul\":5046:5159   */\n      iszero\n      tag_107\n      jumpi\n        /* \"#utility.yul\":5145:5146   */\n      dup1\n        /* \"#utility.yul\":5140:5143   */\n      dup3\n        /* \"#utility.yul\":5136:5147   */\n      add\n        /* \"#utility.yul\":5130:5148   */\n      mload\n        /* \"#utility.yul\":5126:5127   */\n      dup2\n        /* \"#utility.yul\":5121:5124   */\n      dup5\n        /* \"#utility.yul\":5117:5128   */\n      add\n        /* \"#utility.yul\":5110:5149   */\n      mstore\n        /* \"#utility.yul\":5082:5084   */\n      0x20\n        /* \"#utility.yul\":5079:5080   */\n      dup2\n        /* \"#utility.yul\":5075:5085   */\n      add\n        /* \"#utility.yul\":5070:5085   */\n      swap1\n      pop\n        /* \"#utility.yul\":5046:5159   */\n      jump(tag_105)\n    tag_107:\n        /* \"#utility.yul\":5177:5183   */\n      dup4\n        /* \"#utility.yul\":5174:5175   */\n      dup2\n        /* \"#utility.yul\":5171:5184   */\n      gt\n        /* \"#utility.yul\":5168:5269   */\n      iszero\n      tag_108\n      jumpi\n        /* \"#utility.yul\":5257:5258   */\n      0x00\n        /* \"#utility.yul\":5248:5254   */\n      dup5\n        /* \"#utility.yul\":5243:5246   */\n      dup5\n        /* \"#utility.yul\":5239:5255   */\n      add\n        /* \"#utility.yul\":5232:5259   */\n      mstore\n        /* \"#utility.yul\":5168:5269   */\n    tag_108:\n        /* \"#utility.yul\":5017:5275   */\n      pop\n        /* \"#utility.yul\":4968:5275   */\n      pop\n      pop\n      pop\n      jump\t// out\n        /* \"#utility.yul\":5404:5521   */\n    tag_41:\n        /* \"#utility.yul\":5513:5514   */\n      0x00\n        /* \"#utility.yul\":5510:5511   */\n      dup1\n        /* \"#utility.yul\":5503:5515   */\n      revert\n        /* \"#utility.yul\":5527:5629   */\n    tag_60:\n        /* \"#utility.yul\":5568:5574   */\n      0x00\n        /* \"#utility.yul\":5619:5621   */\n      0x1f\n        /* \"#utility.yul\":5615:5622   */\n      not\n        /* \"#utility.yul\":5610:5612   */\n      0x1f\n        /* \"#utility.yul\":5603:5608   */\n      dup4\n        /* \"#utility.yul\":5599:5613   */\n      add\n        /* \"#utility.yul\":5595:5623   */\n      and\n        /* \"#utility.yul\":5585:5623   */\n      swap1\n      pop\n        /* \"#utility.yul\":5527:5629   */\n      swap2\n      swap1\n      pop\n      jump\t// out\n        /* \"#utility.yul\":5635:5793   */\n    tag_76:\n        /* \"#utility.yul\":5775:5785   */\n      0x63616c6c20666f6f000000000000000000000000000000000000000000000000\n        /* \"#utility.yul\":5771:5772   */\n      0x00\n        /* \"#utility.yul\":5763:5769   */\n      dup3\n        /* \"#utility.yul\":5759:5773   */\n      add\n        /* \"#utility.yul\":5752:5786   */\n      mstore\n        /* \"#utility.yul\":5635:5793   */\n      pop\n      jump\t// out\n        /* \"#utility.yul\":5799:5921   */\n    tag_33:\n        /* \"#utility.yul\":5872:5896   */\n      tag_115\n        /* \"#utility.yul\":5890:5895   */\n      dup2\n        /* \"#utility.yul\":5872:5896   */\n      tag_91\n      jump\t// in\n    tag_115:\n        /* \"#utility.yul\":5865:5870   */\n      dup2\n        /* \"#utility.yul\":5862:5897   */\n      eq\n        /* \"#utility.yul\":5852:5915   */\n      tag_116\n      jumpi\n        /* \"#utility.yul\":5911:5912   */\n      0x00\n        /* \"#utility.yul\":5908:5909   */\n      dup1\n        /* \"#utility.yul\":5901:5913   */\n      revert\n        /* \"#utility.yul\":5852:5915   */\n    tag_116:\n        /* \"#utility.yul\":5799:5921   */\n      pop\n      jump\t// out\n        /* \"#utility.yul\":5927:6065   */\n    tag_37:\n        /* \"#utility.yul\":6008:6040   */\n      tag_118\n        /* \"#utility.yul\":6034:6039   */\n      dup2\n        /* \"#utility.yul\":6008:6040   */\n      tag_95\n      jump\t// in\n    tag_118:\n        /* \"#utility.yul\":6001:6006   */\n      dup2\n        /* \"#utility.yul\":5998:6041   */\n      eq\n        /* \"#utility.yul\":5988:6059   */\n      tag_119\n      jumpi\n        /* \"#utility.yul\":6055:6056   */\n      0x00\n        /* \"#utility.yul\":6052:6053   */\n      dup1\n        /* \"#utility.yul\":6045:6057   */\n      revert\n        /* \"#utility.yul\":5988:6059   */\n    tag_119:\n        /* \"#utility.yul\":5927:6065   */\n      pop\n      jump\t// out\n\n    auxdata: 0xa2646970667358221220d78ab15c7c401cdb72544dcba47c447751d70818072656cc84fb1fde0012157e64736f6c63430008070033\n}\n",
				"bytecode": {
					"linkReferences": {},
					"object": "608060405234801561001057600080fd5b50610604806100206000396000f3fe6080604052600436106100295760003560e01c806387ba61791461002e578063ff00726c1461004a575b600080fd5b6100486004803603810190610043919061033a565b610073565b005b34801561005657600080fd5b50610071600480360381019061006c919061030d565b6101b4565b005b6000808273ffffffffffffffffffffffffffffffffffffffff163461138890607b6040516024016100a49190610459565b6040516020818303038152906040527f24ccab8f000000000000000000000000000000000000000000000000000000007bffffffffffffffffffffffffffffffffffffffffffffffffffffffff19166020820180517bffffffffffffffffffffffffffffffffffffffffffffffffffffffff838183161783525050505060405161012e9190610412565b600060405180830381858888f193505050503d806000811461016c576040519150601f19603f3d011682016040523d82523d6000602084013e610171565b606091505b50915091507f13848c3e38f8886f3f5d2ad9dff80d8092c2bbb8efd5b887a99c2c6cfc09ac2a82826040516101a7929190610429565b60405180910390a1505050565b6000808273ffffffffffffffffffffffffffffffffffffffff166040516024016040516020818303038152906040527f1dcc85ae000000000000000000000000000000000000000000000000000000007bffffffffffffffffffffffffffffffffffffffffffffffffffffffff19166020820180517bffffffffffffffffffffffffffffffffffffffffffffffffffffffff838183161783525050505060405161025e9190610412565b6000604051808303816000865af19150503d806000811461029b576040519150601f19603f3d011682016040523d82523d6000602084013e6102a0565b606091505b50915091507f13848c3e38f8886f3f5d2ad9dff80d8092c2bbb8efd5b887a99c2c6cfc09ac2a82826040516102d6929190610429565b60405180910390a1505050565b6000813590506102f2816105a0565b92915050565b600081359050610307816105b7565b92915050565b60006020828403121561032357610322610561565b5b6000610331848285016102e3565b91505092915050565b6000602082840312156103505761034f610561565b5b600061035e848285016102f8565b91505092915050565b610370816104e3565b82525050565b600061038182610487565b61038b8185610492565b935061039b81856020860161052e565b6103a481610566565b840191505092915050565b60006103ba82610487565b6103c481856104a3565b93506103d481856020860161052e565b80840191505092915050565b6103e98161051c565b82525050565b60006103fc6008836104ae565b915061040782610577565b602082019050919050565b600061041e82846103af565b915081905092915050565b600060408201905061043e6000830185610367565b81810360208301526104508184610376565b90509392505050565b60006040820190508181036000830152610472816103ef565b905061048160208301846103e0565b92915050565b600081519050919050565b600082825260208201905092915050565b600081905092915050565b600082825260208201905092915050565b60006104ca826104ef565b9050919050565b60006104dc826104ef565b9050919050565b60008115159050919050565b600073ffffffffffffffffffffffffffffffffffffffff82169050919050565b600060ff82169050919050565b60006105278261050f565b9050919050565b60005b8381101561054c578082015181840152602081019050610531565b8381111561055b576000848401525b50505050565b600080fd5b6000601f19601f8301169050919050565b7f63616c6c20666f6f000000000000000000000000000000000000000000000000600082015250565b6105a9816104bf565b81146105b457600080fd5b50565b6105c0816104d1565b81146105cb57600080fd5b5056fea2646970667358221220d78ab15c7c401cdb72544dcba47c447751d70818072656cc84fb1fde0012157e64736f6c63430008070033",
					"opcodes": "PUSH1 0x80 PUSH1 0x40 MSTORE CALLVALUE DUP1 ISZERO PUSH2 0x10 JUMPI PUSH1 0x0 DUP1 REVERT JUMPDEST POP PUSH2 0x604 DUP1 PUSH2 0x20 PUSH1 0x0 CODECOPY PUSH1 0x0 RETURN INVALID PUSH1 0x80 PUSH1 0x40 MSTORE PUSH1 0x4 CALLDATASIZE LT PUSH2 0x29 JUMPI PUSH1 0x0 CALLDATALOAD PUSH1 0xE0 SHR DUP1 PUSH4 0x87BA6179 EQ PUSH2 0x2E JUMPI DUP1 PUSH4 0xFF00726C EQ PUSH2 0x4A JUMPI JUMPDEST PUSH1 0x0 DUP1 REVERT JUMPDEST PUSH2 0x48 PUSH1 0x4 DUP1 CALLDATASIZE SUB DUP2 ADD SWAP1 PUSH2 0x43 SWAP2 SWAP1 PUSH2 0x33A JUMP JUMPDEST PUSH2 0x73 JUMP JUMPDEST STOP JUMPDEST CALLVALUE DUP1 ISZERO PUSH2 0x56 JUMPI PUSH1 0x0 DUP1 REVERT JUMPDEST POP PUSH2 0x71 PUSH1 0x4 DUP1 CALLDATASIZE SUB DUP2 ADD SWAP1 PUSH2 0x6C SWAP2 SWAP1 PUSH2 0x30D JUMP JUMPDEST PUSH2 0x1B4 JUMP JUMPDEST STOP JUMPDEST PUSH1 0x0 DUP1 DUP3 PUSH20 0xFFFFFFFFFFFFFFFFFFFFFFFFFFFFFFFFFFFFFFFF AND CALLVALUE PUSH2 0x1388 SWAP1 PUSH1 0x7B PUSH1 0x40 MLOAD PUSH1 0x24 ADD PUSH2 0xA4 SWAP2 SWAP1 PUSH2 0x459 JUMP JUMPDEST PUSH1 0x40 MLOAD PUSH1 0x20 DUP2 DUP4 SUB SUB DUP2 MSTORE SWAP1 PUSH1 0x40 MSTORE PUSH32 0x24CCAB8F00000000000000000000000000000000000000000000000000000000 PUSH28 0xFFFFFFFFFFFFFFFFFFFFFFFFFFFFFFFFFFFFFFFFFFFFFFFFFFFFFFFF NOT AND PUSH1 0x20 DUP3 ADD DUP1 MLOAD PUSH28 0xFFFFFFFFFFFFFFFFFFFFFFFFFFFFFFFFFFFFFFFFFFFFFFFFFFFFFFFF DUP4 DUP2 DUP4 AND OR DUP4 MSTORE POP POP POP POP PUSH1 0x40 MLOAD PUSH2 0x12E SWAP2 SWAP1 PUSH2 0x412 JUMP JUMPDEST PUSH1 0x0 PUSH1 0x40 MLOAD DUP1 DUP4 SUB DUP2 DUP6 DUP9 DUP9 CALL SWAP4 POP POP POP POP RETURNDATASIZE DUP1 PUSH1 0x0 DUP2 EQ PUSH2 0x16C JUMPI PUSH1 0x40 MLOAD SWAP2 POP PUSH1 0x1F NOT PUSH1 0x3F RETURNDATASIZE ADD AND DUP3 ADD PUSH1 0x40 MSTORE RETURNDATASIZE DUP3 MSTORE RETURNDATASIZE PUSH1 0x0 PUSH1 0x20 DUP5 ADD RETURNDATACOPY PUSH2 0x171 JUMP JUMPDEST PUSH1 0x60 SWAP2 POP JUMPDEST POP SWAP2 POP SWAP2 POP PUSH32 0x13848C3E38F8886F3F5D2AD9DFF80D8092C2BBB8EFD5B887A99C2C6CFC09AC2A DUP3 DUP3 PUSH1 0x40 MLOAD PUSH2 0x1A7 SWAP3 SWAP2 SWAP1 PUSH2 0x429 JUMP JUMPDEST PUSH1 0x40 MLOAD DUP1 SWAP2 SUB SWAP1 LOG1 POP POP POP JUMP JUMPDEST PUSH1 0x0 DUP1 DUP3 PUSH20 0xFFFFFFFFFFFFFFFFFFFFFFFFFFFFFFFFFFFFFFFF AND PUSH1 0x40 MLOAD PUSH1 0x24 ADD PUSH1 0x40 MLOAD PUSH1 0x20 DUP2 DUP4 SUB SUB DUP2 MSTORE SWAP1 PUSH1 0x40 MSTORE PUSH32 0x1DCC85AE00000000000000000000000000000000000000000000000000000000 PUSH28 0xFFFFFFFFFFFFFFFFFFFFFFFFFFFFFFFFFFFFFFFFFFFFFFFFFFFFFFFF NOT AND PUSH1 0x20 DUP3 ADD DUP1 MLOAD PUSH28 0xFFFFFFFFFFFFFFFFFFFFFFFFFFFFFFFFFFFFFFFFFFFFFFFFFFFFFFFF DUP4 DUP2 DUP4 AND OR DUP4 MSTORE POP POP POP POP PUSH1 0x40 MLOAD PUSH2 0x25E SWAP2 SWAP1 PUSH2 0x412 JUMP JUMPDEST PUSH1 0x0 PUSH1 0x40 MLOAD DUP1 DUP4 SUB DUP2 PUSH1 0x0 DUP7 GAS CALL SWAP2 POP POP RETURNDATASIZE DUP1 PUSH1 0x0 DUP2 EQ PUSH2 0x29B JUMPI PUSH1 0x40 MLOAD SWAP2 POP PUSH1 0x1F NOT PUSH1 0x3F RETURNDATASIZE ADD AND DUP3 ADD PUSH1 0x40 MSTORE RETURNDATASIZE DUP3 MSTORE RETURNDATASIZE PUSH1 0x0 PUSH1 0x20 DUP5 ADD RETURNDATACOPY PUSH2 0x2A0 JUMP JUMPDEST PUSH1 0x60 SWAP2 POP JUMPDEST POP SWAP2 POP SWAP2 POP PUSH32 0x13848C3E38F8886F3F5D2AD9DFF80D8092C2BBB8EFD5B887A99C2C6CFC09AC2A DUP3 DUP3 PUSH1 0x40 MLOAD PUSH2 0x2D6 SWAP3 SWAP2 SWAP1 PUSH2 0x429 JUMP JUMPDEST PUSH1 0x40 MLOAD DUP1 SWAP2 SUB SWAP1 LOG1 POP POP POP JUMP JUMPDEST PUSH1 0x0 DUP2 CALLDATALOAD SWAP1 POP PUSH2 0x2F2 DUP2 PUSH2 0x5A0 JUMP JUMPDEST SWAP3 SWAP2 POP POP JUMP JUMPDEST PUSH1 0x0 DUP2 CALLDATALOAD SWAP1 POP PUSH2 0x307 DUP2 PUSH2 0x5B7 JUMP JUMPDEST SWAP3 SWAP2 POP POP JUMP JUMPDEST PUSH1 0x0 PUSH1 0x20 DUP3 DUP5 SUB SLT ISZERO PUSH2 0x323 JUMPI PUSH2 0x322 PUSH2 0x561 JUMP JUMPDEST JUMPDEST PUSH1 0x0 PUSH2 0x331 DUP5 DUP3 DUP6 ADD PUSH2 0x2E3 JUMP JUMPDEST SWAP2 POP POP SWAP3 SWAP2 POP POP JUMP JUMPDEST PUSH1 0x0 PUSH1 0x20 DUP3 DUP5 SUB SLT ISZERO PUSH2 0x350 JUMPI PUSH2 0x34F PUSH2 0x561 JUMP JUMPDEST JUMPDEST PUSH1 0x0 PUSH2 0x35E DUP5 DUP3 DUP6 ADD PUSH2 0x2F8 JUMP JUMPDEST SWAP2 POP POP SWAP3 SWAP2 POP POP JUMP JUMPDEST PUSH2 0x370 DUP2 PUSH2 0x4E3 JUMP JUMPDEST DUP3 MSTORE POP POP JUMP JUMPDEST PUSH1 0x0 PUSH2 0x381 DUP3 PUSH2 0x487 JUMP JUMPDEST PUSH2 0x38B DUP2 DUP6 PUSH2 0x492 JUMP JUMPDEST SWAP4 POP PUSH2 0x39B DUP2 DUP6 PUSH1 0x20 DUP7 ADD PUSH2 0x52E JUMP JUMPDEST PUSH2 0x3A4 DUP2 PUSH2 0x566 JUMP JUMPDEST DUP5 ADD SWAP2 POP POP SWAP3 SWAP2 POP POP JUMP JUMPDEST PUSH1 0x0 PUSH2 0x3BA DUP3 PUSH2 0x487 JUMP JUMPDEST PUSH2 0x3C4 DUP2 DUP6 PUSH2 0x4A3 JUMP JUMPDEST SWAP4 POP PUSH2 0x3D4 DUP2 DUP6 PUSH1 0x20 DUP7 ADD PUSH2 0x52E JUMP JUMPDEST DUP1 DUP5 ADD SWAP2 POP POP SWAP3 SWAP2 POP POP JUMP JUMPDEST PUSH2 0x3E9 DUP2 PUSH2 0x51C JUMP JUMPDEST DUP3 MSTORE POP POP JUMP JUMPDEST PUSH1 0x0 PUSH2 0x3FC PUSH1 0x8 DUP4 PUSH2 0x4AE JUMP JUMPDEST SWAP2 POP PUSH2 0x407 DUP3 PUSH2 0x577 JUMP JUMPDEST PUSH1 0x20 DUP3 ADD SWAP1 POP SWAP2 SWAP1 POP JUMP JUMPDEST PUSH1 0x0 PUSH2 0x41E DUP3 DUP5 PUSH2 0x3AF JUMP JUMPDEST SWAP2 POP DUP2 SWAP1 POP SWAP3 SWAP2 POP POP JUMP JUMPDEST PUSH1 0x0 PUSH1 0x40 DUP3 ADD SWAP1 POP PUSH2 0x43E PUSH1 0x0 DUP4 ADD DUP6 PUSH2 0x367 JUMP JUMPDEST DUP2 DUP2 SUB PUSH1 0x20 DUP4 ADD MSTORE PUSH2 0x450 DUP2 DUP5 PUSH2 0x376 JUMP JUMPDEST SWAP1 POP SWAP4 SWAP3 POP POP POP JUMP JUMPDEST PUSH1 0x0 PUSH1 0x40 DUP3 ADD SWAP1 POP DUP2 DUP2 SUB PUSH1 0x0 DUP4 ADD MSTORE PUSH2 0x472 DUP2 PUSH2 0x3EF JUMP JUMPDEST SWAP1 POP PUSH2 0x481 PUSH1 0x20 DUP4 ADD DUP5 PUSH2 0x3E0 JUMP JUMPDEST SWAP3 SWAP2 POP POP JUMP JUMPDEST PUSH1 0x0 DUP2 MLOAD SWAP1 POP SWAP2 SWAP1 POP JUMP JUMPDEST PUSH1 0x0 DUP3 DUP3 MSTORE PUSH1 0x20 DUP3 ADD SWAP1 POP SWAP3 SWAP2 POP POP JUMP JUMPDEST PUSH1 0x0 DUP2 SWAP1 POP SWAP3 SWAP2 POP POP JUMP JUMPDEST PUSH1 0x0 DUP3 DUP3 MSTORE PUSH1 0x20 DUP3 ADD SWAP1 POP SWAP3 SWAP2 POP POP JUMP JUMPDEST PUSH1 0x0 PUSH2 0x4CA DUP3 PUSH2 0x4EF JUMP JUMPDEST SWAP1 POP SWAP2 SWAP1 POP JUMP JUMPDEST PUSH1 0x0 PUSH2 0x4DC DUP3 PUSH2 0x4EF JUMP JUMPDEST SWAP1 POP SWAP2 SWAP1 POP JUMP JUMPDEST PUSH1 0x0 DUP2 ISZERO ISZERO SWAP1 POP SWAP2 SWAP1 POP JUMP JUMPDEST PUSH1 0x0 PUSH20 0xFFFFFFFFFFFFFFFFFFFFFFFFFFFFFFFFFFFFFFFF DUP3 AND SWAP1 POP SWAP2 SWAP1 POP JUMP JUMPDEST PUSH1 0x0 PUSH1 0xFF DUP3 AND SWAP1 POP SWAP2 SWAP1 POP JUMP JUMPDEST PUSH1 0x0 PUSH2 0x527 DUP3 PUSH2 0x50F JUMP JUMPDEST SWAP1 POP SWAP2 SWAP1 POP JUMP JUMPDEST PUSH1 0x0 JUMPDEST DUP4 DUP2 LT ISZERO PUSH2 0x54C JUMPI DUP1 DUP3 ADD MLOAD DUP2 DUP5 ADD MSTORE PUSH1 0x20 DUP2 ADD SWAP1 POP PUSH2 0x531 JUMP JUMPDEST DUP4 DUP2 GT ISZERO PUSH2 0x55B JUMPI PUSH1 0x0 DUP5 DUP5 ADD MSTORE JUMPDEST POP POP POP POP JUMP JUMPDEST PUSH1 0x0 DUP1 REVERT JUMPDEST PUSH1 0x0 PUSH1 0x1F NOT PUSH1 0x1F DUP4 ADD AND SWAP1 POP SWAP2 SWAP1 POP JUMP JUMPDEST PUSH32 0x63616C6C20666F6F000000000000000000000000000000000000000000000000 PUSH1 0x0 DUP3 ADD MSTORE POP JUMP JUMPDEST PUSH2 0x5A9 DUP2 PUSH2 0x4BF JUMP JUMPDEST DUP2 EQ PUSH2 0x5B4 JUMPI PUSH1 0x0 DUP1 REVERT JUMPDEST POP JUMP JUMPDEST PUSH2 0x5C0 DUP2 PUSH2 0x4D1 JUMP JUMPDEST DUP2 EQ PUSH2 0x5CB JUMPI PUSH1 0x0 DUP1 REVERT JUMPDEST POP JUMP INVALID LOG2 PUSH5 0x6970667358 0x22 SLT KECCAK256 0xD7 DUP11 0xB1 0x5C PUSH29 0x401CDB72544DCBA47C447751D70818072656CC84FB1FDE0012157E6473 PUSH16 0x6C634300080700330000000000000000 "
				},
				"gasEstimates": {
					"creation": {
						"codeDepositCost": "308000",
						"executionCost": "349",
						"totalCost": "308349"
					},
					"external": {
						"testCallDoesNotExist(address)": "infinite",
						"testCallFoo(address)": "infinite"
					}
				},
				"methodIdentifiers": {
					"testCallDoesNotExist(address)": "ff00726c",
					"testCallFoo(address)": "87ba6179"
				}
			},
			"storageLayout": {
				"storage": [],
				"types": null
			},
			"userdoc": {
				"kind": "user",
				"methods": {},
				"version": 1
			}
		}
	}
}