{
	"FunctionVisibilities.sol": {
		"Functions": {
			"abi": [
				{
					"inputs": [
						{
							"internalType": "uint256",
							"name": "a",
							"type": "uint256"
						},
						{
							"internalType": "uint256",
							"name": "b",
							"type": "uint256"
						}
					],
					"name": "add",
					"outputs": [
						{
							"internalType": "uint256",
							"name": "",
							"type": "uint256"
						}
					],
					"stateMutability": "pure",
					"type": "function"
				},
				{
					"inputs": [
						{
							"internalType": "uint256",
							"name": "c",
							"type": "uint256"
						},
						{
							"internalType": "uint256",
							"name": "d",
							"type": "uint256"
						}
					],
					"name": "add2",
					"outputs": [
						{
							"internalType": "uint256",
							"name": "",
							"type": "uint256"
						}
					],
					"stateMutability": "pure",
					"type": "function"
				},
				{
					"inputs": [],
					"name": "callInternalKeyword",
					"outputs": [
						{
							"internalType": "string",
							"name": "",
							"type": "string"
						}
					],
					"stateMutability": "pure",
					"type": "function"
				},
				{
					"inputs": [],
					"name": "callPrivateKeyword",
					"outputs": [
						{
							"internalType": "string",
							"name": "",
							"type": "string"
						}
					],
					"stateMutability": "pure",
					"type": "function"
				},
				{
					"inputs": [],
					"name": "callPublicKeyword",
					"outputs": [
						{
							"internalType": "string",
							"name": "",
							"type": "string"
						}
					],
					"stateMutability": "pure",
					"type": "function"
				},
				{
					"inputs": [],
					"name": "externalKeyword",
					"outputs": [
						{
							"internalType": "string",
							"name": "",
							"type": "string"
						}
					],
					"stateMutability": "pure",
					"type": "function"
				},
				{
					"inputs": [],
					"name": "publicKeyword",
					"outputs": [
						{
							"internalType": "string",
							"name": "",
							"type": "string"
						}
					],
					"stateMutability": "pure",
					"type": "function"
				}
			],
			"devdoc": {
				"kind": "dev",
				"methods": {},
				"version": 1
			},
			"evm": {
				"assembly": "    /* \"FunctionVisibilities.sol\":62:1878  contract Functions {\r... */\n  mstore(0x40, 0x80)\n  callvalue\n  dup1\n  iszero\n  tag_1\n  jumpi\n  0x00\n  dup1\n  revert\ntag_1:\n  pop\n  dataSize(sub_0)\n  dup1\n  dataOffset(sub_0)\n  0x00\n  codecopy\n  0x00\n  return\nstop\n\nsub_0: assembly {\n        /* \"FunctionVisibilities.sol\":62:1878  contract Functions {\r... */\n      mstore(0x40, 0x80)\n      callvalue\n      dup1\n      iszero\n      tag_1\n      jumpi\n      0x00\n      dup1\n      revert\n    tag_1:\n      pop\n      jumpi(tag_2, lt(calldatasize, 0x04))\n      shr(0xe0, calldataload(0x00))\n      dup1\n      0x29fcda33\n      gt\n      tag_10\n      jumpi\n      dup1\n      0x29fcda33\n      eq\n      tag_6\n      jumpi\n      dup1\n      0x513e18ce\n      eq\n      tag_7\n      jumpi\n      dup1\n      0x771602f7\n      eq\n      tag_8\n      jumpi\n      dup1\n      0x79697ecc\n      eq\n      tag_9\n      jumpi\n      jump(tag_2)\n    tag_10:\n      dup1\n      0x0104590e\n      eq\n      tag_3\n      jumpi\n      dup1\n      0x148bc9e2\n      eq\n      tag_4\n      jumpi\n      dup1\n      0x20d6e703\n      eq\n      tag_5\n      jumpi\n    tag_2:\n      0x00\n      dup1\n      revert\n        /* \"FunctionVisibilities.sol\":1621:1749  function externalKeyword() external pure returns(string memory) {\r... */\n    tag_3:\n      tag_11\n      tag_12\n      jump\t// in\n    tag_11:\n      mload(0x40)\n      tag_13\n      swap2\n      swap1\n      tag_14\n      jump\t// in\n    tag_13:\n      mload(0x40)\n      dup1\n      swap2\n      sub\n      swap1\n      return\n        /* \"FunctionVisibilities.sol\":566:671  function callPublicKeyword() public pure returns(string memory) {\r... */\n    tag_4:\n      tag_15\n      tag_16\n      jump\t// in\n    tag_15:\n      mload(0x40)\n      tag_17\n      swap2\n      swap1\n      tag_14\n      jump\t// in\n    tag_17:\n      mload(0x40)\n      dup1\n      swap2\n      sub\n      swap1\n      return\n        /* \"FunctionVisibilities.sol\":1352:1461  function callInternalKeyword() public pure returns(string memory) {\r... */\n    tag_5:\n      tag_18\n      tag_19\n      jump\t// in\n    tag_18:\n      mload(0x40)\n      tag_20\n      swap2\n      swap1\n      tag_14\n      jump\t// in\n    tag_20:\n      mload(0x40)\n      dup1\n      swap2\n      sub\n      swap1\n      return\n        /* \"FunctionVisibilities.sol\":339:428  function add2(uint c, uint d) public pure returns(uint){\r... */\n    tag_6:\n      tag_21\n      0x04\n      dup1\n      calldatasize\n      sub\n      dup2\n      add\n      swap1\n      tag_22\n      swap2\n      swap1\n      tag_23\n      jump\t// in\n    tag_22:\n      tag_24\n      jump\t// in\n    tag_21:\n      mload(0x40)\n      tag_25\n      swap2\n      swap1\n      tag_26\n      jump\t// in\n    tag_25:\n      mload(0x40)\n      dup1\n      swap2\n      sub\n      swap1\n      return\n        /* \"FunctionVisibilities.sol\":921:1028  function callPrivateKeyword() public pure returns(string memory) {\r... */\n    tag_7:\n      tag_27\n      tag_28\n      jump\t// in\n    tag_27:\n      mload(0x40)\n      tag_29\n      swap2\n      swap1\n      tag_14\n      jump\t// in\n    tag_29:\n      mload(0x40)\n      dup1\n      swap2\n      sub\n      swap1\n      return\n        /* \"FunctionVisibilities.sol\":246:331  function add(uint a, uint b) public pure returns(uint){\r... */\n    tag_8:\n      tag_30\n      0x04\n      dup1\n      calldatasize\n      sub\n      dup2\n      add\n      swap1\n      tag_31\n      swap2\n      swap1\n      tag_23\n      jump\t// in\n    tag_31:\n      tag_32\n      jump\t// in\n    tag_30:\n      mload(0x40)\n      tag_33\n      swap2\n      swap1\n      tag_26\n      jump\t// in\n    tag_33:\n      mload(0x40)\n      dup1\n      swap2\n      sub\n      swap1\n      return\n        /* \"FunctionVisibilities.sol\":436:558  function publicKeyword() public pure returns(string memory) {\r... */\n    tag_9:\n      tag_34\n      tag_35\n      jump\t// in\n    tag_34:\n      mload(0x40)\n      tag_36\n      swap2\n      swap1\n      tag_14\n      jump\t// in\n    tag_36:\n      mload(0x40)\n      dup1\n      swap2\n      sub\n      swap1\n      return\n        /* \"FunctionVisibilities.sol\":1621:1749  function externalKeyword() external pure returns(string memory) {\r... */\n    tag_12:\n        /* \"FunctionVisibilities.sol\":1670:1683  string memory */\n      0x60\n        /* \"FunctionVisibilities.sol\":1696:1741  return \"bu bir external keyword fonskiyondur\" */\n      mload(0x40)\n      dup1\n      0x60\n      add\n      0x40\n      mstore\n      dup1\n      0x24\n      dup2\n      mstore\n      0x20\n      add\n      data_6915df27a92b68ab918ecf8bfc18591bd8b0f802b71d8dce1147d22105758278\n      0x24\n      swap2\n      codecopy\n      swap1\n      pop\n        /* \"FunctionVisibilities.sol\":1621:1749  function externalKeyword() external pure returns(string memory) {\r... */\n      swap1\n      jump\t// out\n        /* \"FunctionVisibilities.sol\":566:671  function callPublicKeyword() public pure returns(string memory) {\r... */\n    tag_16:\n        /* \"FunctionVisibilities.sol\":615:628  string memory */\n      0x60\n        /* \"FunctionVisibilities.sol\":648:663  publicKeyword() */\n      tag_39\n        /* \"FunctionVisibilities.sol\":648:661  publicKeyword */\n      tag_35\n        /* \"FunctionVisibilities.sol\":648:663  publicKeyword() */\n      jump\t// in\n    tag_39:\n        /* \"FunctionVisibilities.sol\":641:663  return publicKeyword() */\n      swap1\n      pop\n        /* \"FunctionVisibilities.sol\":566:671  function callPublicKeyword() public pure returns(string memory) {\r... */\n      swap1\n      jump\t// out\n        /* \"FunctionVisibilities.sol\":1352:1461  function callInternalKeyword() public pure returns(string memory) {\r... */\n    tag_19:\n        /* \"FunctionVisibilities.sol\":1403:1416  string memory */\n      0x60\n        /* \"FunctionVisibilities.sol\":1436:1453  internalKeyword() */\n      tag_41\n        /* \"FunctionVisibilities.sol\":1436:1451  internalKeyword */\n      tag_42\n        /* \"FunctionVisibilities.sol\":1436:1453  internalKeyword() */\n      jump\t// in\n    tag_41:\n        /* \"FunctionVisibilities.sol\":1429:1453  return internalKeyword() */\n      swap1\n      pop\n        /* \"FunctionVisibilities.sol\":1352:1461  function callInternalKeyword() public pure returns(string memory) {\r... */\n      swap1\n      jump\t// out\n        /* \"FunctionVisibilities.sol\":339:428  function add2(uint c, uint d) public pure returns(uint){\r... */\n    tag_24:\n        /* \"FunctionVisibilities.sol\":389:393  uint */\n      0x00\n        /* \"FunctionVisibilities.sol\":412:420  add(c,d) */\n      tag_44\n        /* \"FunctionVisibilities.sol\":416:417  c */\n      dup4\n        /* \"FunctionVisibilities.sol\":418:419  d */\n      dup4\n        /* \"FunctionVisibilities.sol\":412:415  add */\n      tag_32\n        /* \"FunctionVisibilities.sol\":412:420  add(c,d) */\n      jump\t// in\n    tag_44:\n        /* \"FunctionVisibilities.sol\":405:420  return add(c,d) */\n      swap1\n      pop\n        /* \"FunctionVisibilities.sol\":339:428  function add2(uint c, uint d) public pure returns(uint){\r... */\n      swap3\n      swap2\n      pop\n      pop\n      jump\t// out\n        /* \"FunctionVisibilities.sol\":921:1028  function callPrivateKeyword() public pure returns(string memory) {\r... */\n    tag_28:\n        /* \"FunctionVisibilities.sol\":971:984  string memory */\n      0x60\n        /* \"FunctionVisibilities.sol\":1004:1020  privateKeyword() */\n      tag_46\n        /* \"FunctionVisibilities.sol\":1004:1018  privateKeyword */\n      tag_47\n        /* \"FunctionVisibilities.sol\":1004:1020  privateKeyword() */\n      jump\t// in\n    tag_46:\n        /* \"FunctionVisibilities.sol\":997:1020  return privateKeyword() */\n      swap1\n      pop\n        /* \"FunctionVisibilities.sol\":921:1028  function callPrivateKeyword() public pure returns(string memory) {\r... */\n      swap1\n      jump\t// out\n        /* \"FunctionVisibilities.sol\":246:331  function add(uint a, uint b) public pure returns(uint){\r... */\n    tag_32:\n        /* \"FunctionVisibilities.sol\":295:299  uint */\n      0x00\n        /* \"FunctionVisibilities.sol\":322:323  b */\n      dup2\n        /* \"FunctionVisibilities.sol\":318:319  a */\n      dup4\n        /* \"FunctionVisibilities.sol\":318:323  a + b */\n      tag_49\n      swap2\n      swap1\n      tag_50\n      jump\t// in\n    tag_49:\n        /* \"FunctionVisibilities.sol\":311:323  return a + b */\n      swap1\n      pop\n        /* \"FunctionVisibilities.sol\":246:331  function add(uint a, uint b) public pure returns(uint){\r... */\n      swap3\n      swap2\n      pop\n      pop\n      jump\t// out\n        /* \"FunctionVisibilities.sol\":436:558  function publicKeyword() public pure returns(string memory) {\r... */\n    tag_35:\n        /* \"FunctionVisibilities.sol\":481:494  string memory */\n      0x60\n        /* \"FunctionVisibilities.sol\":507:550  return \"Bu bir public keyword fonksiyondur\" */\n      mload(0x40)\n      dup1\n      0x60\n      add\n      0x40\n      mstore\n      dup1\n      0x22\n      dup2\n      mstore\n      0x20\n      add\n      data_b115163c3ed9309ec5a5d5c71dfae3a36e331c6ffd58242e1251c39ce4864c3d\n      0x22\n      swap2\n      codecopy\n      swap1\n      pop\n        /* \"FunctionVisibilities.sol\":436:558  function publicKeyword() public pure returns(string memory) {\r... */\n      swap1\n      jump\t// out\n        /* \"FunctionVisibilities.sol\":1213:1344  function internalKeyword() internal pure returns(string memory) {\r... */\n    tag_42:\n        /* \"FunctionVisibilities.sol\":1262:1275  string memory */\n      0x60\n        /* \"FunctionVisibilities.sol\":1288:1336  return \"bu bir internal keyword fonskiyondur...\" */\n      mload(0x40)\n      dup1\n      0x60\n      add\n      0x40\n      mstore\n      dup1\n      0x27\n      dup2\n      mstore\n      0x20\n      add\n      data_b74e2500ca91aa5ddeea2d530ffb8eabb9d2a6c60d44a176c857d1fbc7f5daf8\n      0x27\n      swap2\n      codecopy\n      swap1\n      pop\n        /* \"FunctionVisibilities.sol\":1213:1344  function internalKeyword() internal pure returns(string memory) {\r... */\n      swap1\n      jump\t// out\n        /* \"FunctionVisibilities.sol\":786:911  function privateKeyword() private pure returns(string memory) {\r... */\n    tag_47:\n        /* \"FunctionVisibilities.sol\":833:846  string memory */\n      0x60\n        /* \"FunctionVisibilities.sol\":859:903  return \"Bu bir private keyword fonskiyondur\" */\n      mload(0x40)\n      dup1\n      0x60\n      add\n      0x40\n      mstore\n      dup1\n      0x23\n      dup2\n      mstore\n      0x20\n      add\n      data_0aba6e76c24e14d3dae07a717a5dd45e9b7b7eff7b13b36e68a1e8b30c3b01b9\n      0x23\n      swap2\n      codecopy\n      swap1\n      pop\n        /* \"FunctionVisibilities.sol\":786:911  function privateKeyword() private pure returns(string memory) {\r... */\n      swap1\n      jump\t// out\n        /* \"#utility.yul\":7:146   */\n    tag_55:\n        /* \"#utility.yul\":53:58   */\n      0x00\n        /* \"#utility.yul\":91:97   */\n      dup2\n        /* \"#utility.yul\":78:98   */\n      calldataload\n        /* \"#utility.yul\":69:98   */\n      swap1\n      pop\n        /* \"#utility.yul\":107:140   */\n      tag_57\n        /* \"#utility.yul\":134:139   */\n      dup2\n        /* \"#utility.yul\":107:140   */\n      tag_58\n      jump\t// in\n    tag_57:\n        /* \"#utility.yul\":7:146   */\n      swap3\n      swap2\n      pop\n      pop\n      jump\t// out\n        /* \"#utility.yul\":152:626   */\n    tag_23:\n        /* \"#utility.yul\":220:226   */\n      0x00\n        /* \"#utility.yul\":228:234   */\n      dup1\n        /* \"#utility.yul\":277:279   */\n      0x40\n        /* \"#utility.yul\":265:274   */\n      dup4\n        /* \"#utility.yul\":256:263   */\n      dup6\n        /* \"#utility.yul\":252:275   */\n      sub\n        /* \"#utility.yul\":248:280   */\n      slt\n        /* \"#utility.yul\":245:364   */\n      iszero\n      tag_60\n      jumpi\n        /* \"#utility.yul\":283:362   */\n      tag_61\n      tag_62\n      jump\t// in\n    tag_61:\n        /* \"#utility.yul\":245:364   */\n    tag_60:\n        /* \"#utility.yul\":403:404   */\n      0x00\n        /* \"#utility.yul\":428:481   */\n      tag_63\n        /* \"#utility.yul\":473:480   */\n      dup6\n        /* \"#utility.yul\":464:470   */\n      dup3\n        /* \"#utility.yul\":453:462   */\n      dup7\n        /* \"#utility.yul\":449:471   */\n      add\n        /* \"#utility.yul\":428:481   */\n      tag_55\n      jump\t// in\n    tag_63:\n        /* \"#utility.yul\":418:481   */\n      swap3\n      pop\n        /* \"#utility.yul\":374:491   */\n      pop\n        /* \"#utility.yul\":530:532   */\n      0x20\n        /* \"#utility.yul\":556:609   */\n      tag_64\n        /* \"#utility.yul\":601:608   */\n      dup6\n        /* \"#utility.yul\":592:598   */\n      dup3\n        /* \"#utility.yul\":581:590   */\n      dup7\n        /* \"#utility.yul\":577:599   */\n      add\n        /* \"#utility.yul\":556:609   */\n      tag_55\n      jump\t// in\n    tag_64:\n        /* \"#utility.yul\":546:609   */\n      swap2\n      pop\n        /* \"#utility.yul\":501:619   */\n      pop\n        /* \"#utility.yul\":152:626   */\n      swap3\n      pop\n      swap3\n      swap1\n      pop\n      jump\t// out\n        /* \"#utility.yul\":632:996   */\n    tag_65:\n        /* \"#utility.yul\":720:723   */\n      0x00\n        /* \"#utility.yul\":748:787   */\n      tag_67\n        /* \"#utility.yul\":781:786   */\n      dup3\n        /* \"#utility.yul\":748:787   */\n      tag_68\n      jump\t// in\n    tag_67:\n        /* \"#utility.yul\":803:874   */\n      tag_69\n        /* \"#utility.yul\":867:873   */\n      dup2\n        /* \"#utility.yul\":862:865   */\n      dup6\n        /* \"#utility.yul\":803:874   */\n      tag_70\n      jump\t// in\n    tag_69:\n        /* \"#utility.yul\":796:874   */\n      swap4\n      pop\n        /* \"#utility.yul\":883:935   */\n      tag_71\n        /* \"#utility.yul\":928:934   */\n      dup2\n        /* \"#utility.yul\":923:926   */\n      dup6\n        /* \"#utility.yul\":916:920   */\n      0x20\n        /* \"#utility.yul\":909:914   */\n      dup7\n        /* \"#utility.yul\":905:921   */\n      add\n        /* \"#utility.yul\":883:935   */\n      tag_72\n      jump\t// in\n    tag_71:\n        /* \"#utility.yul\":960:989   */\n      tag_73\n        /* \"#utility.yul\":982:988   */\n      dup2\n        /* \"#utility.yul\":960:989   */\n      tag_74\n      jump\t// in\n    tag_73:\n        /* \"#utility.yul\":955:958   */\n      dup5\n        /* \"#utility.yul\":951:990   */\n      add\n        /* \"#utility.yul\":944:990   */\n      swap2\n      pop\n        /* \"#utility.yul\":724:996   */\n      pop\n        /* \"#utility.yul\":632:996   */\n      swap3\n      swap2\n      pop\n      pop\n      jump\t// out\n        /* \"#utility.yul\":1002:1120   */\n    tag_75:\n        /* \"#utility.yul\":1089:1113   */\n      tag_77\n        /* \"#utility.yul\":1107:1112   */\n      dup2\n        /* \"#utility.yul\":1089:1113   */\n      tag_78\n      jump\t// in\n    tag_77:\n        /* \"#utility.yul\":1084:1087   */\n      dup3\n        /* \"#utility.yul\":1077:1114   */\n      mstore\n        /* \"#utility.yul\":1002:1120   */\n      pop\n      pop\n      jump\t// out\n        /* \"#utility.yul\":1126:1439   */\n    tag_14:\n        /* \"#utility.yul\":1239:1243   */\n      0x00\n        /* \"#utility.yul\":1277:1279   */\n      0x20\n        /* \"#utility.yul\":1266:1275   */\n      dup3\n        /* \"#utility.yul\":1262:1280   */\n      add\n        /* \"#utility.yul\":1254:1280   */\n      swap1\n      pop\n        /* \"#utility.yul\":1326:1335   */\n      dup2\n        /* \"#utility.yul\":1320:1324   */\n      dup2\n        /* \"#utility.yul\":1316:1336   */\n      sub\n        /* \"#utility.yul\":1312:1313   */\n      0x00\n        /* \"#utility.yul\":1301:1310   */\n      dup4\n        /* \"#utility.yul\":1297:1314   */\n      add\n        /* \"#utility.yul\":1290:1337   */\n      mstore\n        /* \"#utility.yul\":1354:1432   */\n      tag_80\n        /* \"#utility.yul\":1427:1431   */\n      dup2\n        /* \"#utility.yul\":1418:1424   */\n      dup5\n        /* \"#utility.yul\":1354:1432   */\n      tag_65\n      jump\t// in\n    tag_80:\n        /* \"#utility.yul\":1346:1432   */\n      swap1\n      pop\n        /* \"#utility.yul\":1126:1439   */\n      swap3\n      swap2\n      pop\n      pop\n      jump\t// out\n        /* \"#utility.yul\":1445:1667   */\n    tag_26:\n        /* \"#utility.yul\":1538:1542   */\n      0x00\n        /* \"#utility.yul\":1576:1578   */\n      0x20\n        /* \"#utility.yul\":1565:1574   */\n      dup3\n        /* \"#utility.yul\":1561:1579   */\n      add\n        /* \"#utility.yul\":1553:1579   */\n      swap1\n      pop\n        /* \"#utility.yul\":1589:1660   */\n      tag_82\n        /* \"#utility.yul\":1657:1658   */\n      0x00\n        /* \"#utility.yul\":1646:1655   */\n      dup4\n        /* \"#utility.yul\":1642:1659   */\n      add\n        /* \"#utility.yul\":1633:1639   */\n      dup5\n        /* \"#utility.yul\":1589:1660   */\n      tag_75\n      jump\t// in\n    tag_82:\n        /* \"#utility.yul\":1445:1667   */\n      swap3\n      swap2\n      pop\n      pop\n      jump\t// out\n        /* \"#utility.yul\":1754:1853   */\n    tag_68:\n        /* \"#utility.yul\":1806:1812   */\n      0x00\n        /* \"#utility.yul\":1840:1845   */\n      dup2\n        /* \"#utility.yul\":1834:1846   */\n      mload\n        /* \"#utility.yul\":1824:1846   */\n      swap1\n      pop\n        /* \"#utility.yul\":1754:1853   */\n      swap2\n      swap1\n      pop\n      jump\t// out\n        /* \"#utility.yul\":1859:2028   */\n    tag_70:\n        /* \"#utility.yul\":1943:1954   */\n      0x00\n        /* \"#utility.yul\":1977:1983   */\n      dup3\n        /* \"#utility.yul\":1972:1975   */\n      dup3\n        /* \"#utility.yul\":1965:1984   */\n      mstore\n        /* \"#utility.yul\":2017:2021   */\n      0x20\n        /* \"#utility.yul\":2012:2015   */\n      dup3\n        /* \"#utility.yul\":2008:2022   */\n      add\n        /* \"#utility.yul\":1993:2022   */\n      swap1\n      pop\n        /* \"#utility.yul\":1859:2028   */\n      swap3\n      swap2\n      pop\n      pop\n      jump\t// out\n        /* \"#utility.yul\":2034:2339   */\n    tag_50:\n        /* \"#utility.yul\":2074:2077   */\n      0x00\n        /* \"#utility.yul\":2093:2113   */\n      tag_88\n        /* \"#utility.yul\":2111:2112   */\n      dup3\n        /* \"#utility.yul\":2093:2113   */\n      tag_78\n      jump\t// in\n    tag_88:\n        /* \"#utility.yul\":2088:2113   */\n      swap2\n      pop\n        /* \"#utility.yul\":2127:2147   */\n      tag_89\n        /* \"#utility.yul\":2145:2146   */\n      dup4\n        /* \"#utility.yul\":2127:2147   */\n      tag_78\n      jump\t// in\n    tag_89:\n        /* \"#utility.yul\":2122:2147   */\n      swap3\n      pop\n        /* \"#utility.yul\":2281:2282   */\n      dup3\n        /* \"#utility.yul\":2213:2279   */\n      0xffffffffffffffffffffffffffffffffffffffffffffffffffffffffffffffff\n        /* \"#utility.yul\":2209:2283   */\n      sub\n        /* \"#utility.yul\":2206:2207   */\n      dup3\n        /* \"#utility.yul\":2203:2284   */\n      gt\n        /* \"#utility.yul\":2200:2307   */\n      iszero\n      tag_90\n      jumpi\n        /* \"#utility.yul\":2287:2305   */\n      tag_91\n      tag_92\n      jump\t// in\n    tag_91:\n        /* \"#utility.yul\":2200:2307   */\n    tag_90:\n        /* \"#utility.yul\":2331:2332   */\n      dup3\n        /* \"#utility.yul\":2328:2329   */\n      dup3\n        /* \"#utility.yul\":2324:2333   */\n      add\n        /* \"#utility.yul\":2317:2333   */\n      swap1\n      pop\n        /* \"#utility.yul\":2034:2339   */\n      swap3\n      swap2\n      pop\n      pop\n      jump\t// out\n        /* \"#utility.yul\":2345:2422   */\n    tag_78:\n        /* \"#utility.yul\":2382:2389   */\n      0x00\n        /* \"#utility.yul\":2411:2416   */\n      dup2\n        /* \"#utility.yul\":2400:2416   */\n      swap1\n      pop\n        /* \"#utility.yul\":2345:2422   */\n      swap2\n      swap1\n      pop\n      jump\t// out\n        /* \"#utility.yul\":2428:2735   */\n    tag_72:\n        /* \"#utility.yul\":2496:2497   */\n      0x00\n        /* \"#utility.yul\":2506:2619   */\n    tag_95:\n        /* \"#utility.yul\":2520:2526   */\n      dup4\n        /* \"#utility.yul\":2517:2518   */\n      dup2\n        /* \"#utility.yul\":2514:2527   */\n      lt\n        /* \"#utility.yul\":2506:2619   */\n      iszero\n      tag_97\n      jumpi\n        /* \"#utility.yul\":2605:2606   */\n      dup1\n        /* \"#utility.yul\":2600:2603   */\n      dup3\n        /* \"#utility.yul\":2596:2607   */\n      add\n        /* \"#utility.yul\":2590:2608   */\n      mload\n        /* \"#utility.yul\":2586:2587   */\n      dup2\n        /* \"#utility.yul\":2581:2584   */\n      dup5\n        /* \"#utility.yul\":2577:2588   */\n      add\n        /* \"#utility.yul\":2570:2609   */\n      mstore\n        /* \"#utility.yul\":2542:2544   */\n      0x20\n        /* \"#utility.yul\":2539:2540   */\n      dup2\n        /* \"#utility.yul\":2535:2545   */\n      add\n        /* \"#utility.yul\":2530:2545   */\n      swap1\n      pop\n        /* \"#utility.yul\":2506:2619   */\n      jump(tag_95)\n    tag_97:\n        /* \"#utility.yul\":2637:2643   */\n      dup4\n        /* \"#utility.yul\":2634:2635   */\n      dup2\n        /* \"#utility.yul\":2631:2644   */\n      gt\n        /* \"#utility.yul\":2628:2729   */\n      iszero\n      tag_98\n      jumpi\n        /* \"#utility.yul\":2717:2718   */\n      0x00\n        /* \"#utility.yul\":2708:2714   */\n      dup5\n        /* \"#utility.yul\":2703:2706   */\n      dup5\n        /* \"#utility.yul\":2699:2715   */\n      add\n        /* \"#utility.yul\":2692:2719   */\n      mstore\n        /* \"#utility.yul\":2628:2729   */\n    tag_98:\n        /* \"#utility.yul\":2477:2735   */\n      pop\n        /* \"#utility.yul\":2428:2735   */\n      pop\n      pop\n      pop\n      jump\t// out\n        /* \"#utility.yul\":2741:2921   */\n    tag_92:\n        /* \"#utility.yul\":2789:2866   */\n      0x4e487b7100000000000000000000000000000000000000000000000000000000\n        /* \"#utility.yul\":2786:2787   */\n      0x00\n        /* \"#utility.yul\":2779:2867   */\n      mstore\n        /* \"#utility.yul\":2886:2890   */\n      0x11\n        /* \"#utility.yul\":2883:2884   */\n      0x04\n        /* \"#utility.yul\":2876:2891   */\n      mstore\n        /* \"#utility.yul\":2910:2914   */\n      0x24\n        /* \"#utility.yul\":2907:2908   */\n      0x00\n        /* \"#utility.yul\":2900:2915   */\n      revert\n        /* \"#utility.yul\":3050:3167   */\n    tag_62:\n        /* \"#utility.yul\":3159:3160   */\n      0x00\n        /* \"#utility.yul\":3156:3157   */\n      dup1\n        /* \"#utility.yul\":3149:3161   */\n      revert\n        /* \"#utility.yul\":3173:3275   */\n    tag_74:\n        /* \"#utility.yul\":3214:3220   */\n      0x00\n        /* \"#utility.yul\":3265:3267   */\n      0x1f\n        /* \"#utility.yul\":3261:3268   */\n      not\n        /* \"#utility.yul\":3256:3258   */\n      0x1f\n        /* \"#utility.yul\":3249:3254   */\n      dup4\n        /* \"#utility.yul\":3245:3259   */\n      add\n        /* \"#utility.yul\":3241:3269   */\n      and\n        /* \"#utility.yul\":3231:3269   */\n      swap1\n      pop\n        /* \"#utility.yul\":3173:3275   */\n      swap2\n      swap1\n      pop\n      jump\t// out\n        /* \"#utility.yul\":3281:3403   */\n    tag_58:\n        /* \"#utility.yul\":3354:3378   */\n      tag_105\n        /* \"#utility.yul\":3372:3377   */\n      dup2\n        /* \"#utility.yul\":3354:3378   */\n      tag_78\n      jump\t// in\n    tag_105:\n        /* \"#utility.yul\":3347:3352   */\n      dup2\n        /* \"#utility.yul\":3344:3379   */\n      eq\n        /* \"#utility.yul\":3334:3397   */\n      tag_106\n      jumpi\n        /* \"#utility.yul\":3393:3394   */\n      0x00\n        /* \"#utility.yul\":3390:3391   */\n      dup1\n        /* \"#utility.yul\":3383:3395   */\n      revert\n        /* \"#utility.yul\":3334:3397   */\n    tag_106:\n        /* \"#utility.yul\":3281:3403   */\n      pop\n      jump\t// out\n    stop\n    data_0aba6e76c24e14d3dae07a717a5dd45e9b7b7eff7b13b36e68a1e8b30c3b01b9 4275206269722070726976617465206b6579776f726420666f6e736b69796f6e647572\n    data_6915df27a92b68ab918ecf8bfc18591bd8b0f802b71d8dce1147d22105758278 6275206269722065787465726e616c206b6579776f726420666f6e736b69796f6e647572\n    data_b115163c3ed9309ec5a5d5c71dfae3a36e331c6ffd58242e1251c39ce4864c3d 427520626972207075626c6963206b6579776f726420666f6e6b7369796f6e647572\n    data_b74e2500ca91aa5ddeea2d530ffb8eabb9d2a6c60d44a176c857d1fbc7f5daf8 62752062697220696e7465726e616c206b6579776f726420666f6e736b69796f6e6475722e2e2e\n\n    auxdata: 0xa26469706673582212208962bf8c987c1cc8e551f62cf096638b52300217aa4999b15a7530c45c123a4164736f6c63430008070033\n}\n",
				"bytecode": {
					"linkReferences": {},
					"object": "608060405234801561001057600080fd5b506104fa806100206000396000f3fe608060405234801561001057600080fd5b506004361061007d5760003560e01c806329fcda331161005b57806329fcda33146100dc578063513e18ce1461010c578063771602f71461012a57806379697ecc1461015a5761007d565b80630104590e14610082578063148bc9e2146100a057806320d6e703146100be575b600080fd5b61008a610178565b60405161009791906102ec565b60405180910390f35b6100a8610198565b6040516100b591906102ec565b60405180910390f35b6100c66101a7565b6040516100d391906102ec565b60405180910390f35b6100f660048036038101906100f19190610264565b6101b6565b604051610103919061030e565b60405180910390f35b6101146101ca565b60405161012191906102ec565b60405180910390f35b610144600480360381019061013f9190610264565b6101d9565b604051610151919061030e565b60405180910390f35b6101626101ef565b60405161016f91906102ec565b60405180910390f35b606060405180606001604052806024815260200161045860249139905090565b60606101a26101ef565b905090565b60606101b161020f565b905090565b60006101c283836101d9565b905092915050565b60606101d461022f565b905090565b600081836101e79190610345565b905092915050565b606060405180606001604052806022815260200161047c60229139905090565b606060405180606001604052806027815260200161049e60279139905090565b606060405180606001604052806023815260200161043560239139905090565b60008135905061025e8161041d565b92915050565b6000806040838503121561027b5761027a610407565b5b60006102898582860161024f565b925050602061029a8582860161024f565b9150509250929050565b60006102af82610329565b6102b98185610334565b93506102c98185602086016103a5565b6102d28161040c565b840191505092915050565b6102e68161039b565b82525050565b6000602082019050818103600083015261030681846102a4565b905092915050565b600060208201905061032360008301846102dd565b92915050565b600081519050919050565b600082825260208201905092915050565b60006103508261039b565b915061035b8361039b565b9250827fffffffffffffffffffffffffffffffffffffffffffffffffffffffffffffffff038211156103905761038f6103d8565b5b828201905092915050565b6000819050919050565b60005b838110156103c35780820151818401526020810190506103a8565b838111156103d2576000848401525b50505050565b7f4e487b7100000000000000000000000000000000000000000000000000000000600052601160045260246000fd5b600080fd5b6000601f19601f8301169050919050565b6104268161039b565b811461043157600080fd5b5056fe4275206269722070726976617465206b6579776f726420666f6e736b69796f6e6475726275206269722065787465726e616c206b6579776f726420666f6e736b69796f6e647572427520626972207075626c6963206b6579776f726420666f6e6b7369796f6e64757262752062697220696e7465726e616c206b6579776f726420666f6e736b69796f6e6475722e2e2ea26469706673582212208962bf8c987c1cc8e551f62cf096638b52300217aa4999b15a7530c45c123a4164736f6c63430008070033",
					"opcodes": "PUSH1 0x80 PUSH1 0x40 MSTORE CALLVALUE DUP1 ISZERO PUSH2 0x10 JUMPI PUSH1 0x0 DUP1 REVERT JUMPDEST POP PUSH2 0x4FA DUP1 PUSH2 0x20 PUSH1 0x0 CODECOPY PUSH1 0x0 RETURN INVALID PUSH1 0x80 PUSH1 0x40 MSTORE CALLVALUE DUP1 ISZERO PUSH2 0x10 JUMPI PUSH1 0x0 DUP1 REVERT JUMPDEST POP PUSH1 0x4 CALLDATASIZE LT PUSH2 0x7D JUMPI PUSH1 0x0 CALLDATALOAD PUSH1 0xE0 SHR DUP1 PUSH4 0x29FCDA33 GT PUSH2 0x5B JUMPI DUP1 PUSH4 0x29FCDA33 EQ PUSH2 0xDC JUMPI DUP1 PUSH4 0x513E18CE EQ PUSH2 0x10C JUMPI DUP1 PUSH4 0x771602F7 EQ PUSH2 0x12A JUMPI DUP1 PUSH4 0x79697ECC EQ PUSH2 0x15A JUMPI PUSH2 0x7D JUMP JUMPDEST DUP1 PUSH4 0x104590E EQ PUSH2 0x82 JUMPI DUP1 PUSH4 0x148BC9E2 EQ PUSH2 0xA0 JUMPI DUP1 PUSH4 0x20D6E703 EQ PUSH2 0xBE JUMPI JUMPDEST PUSH1 0x0 DUP1 REVERT JUMPDEST PUSH2 0x8A PUSH2 0x178 JUMP JUMPDEST PUSH1 0x40 MLOAD PUSH2 0x97 SWAP2 SWAP1 PUSH2 0x2EC JUMP JUMPDEST PUSH1 0x40 MLOAD DUP1 SWAP2 SUB SWAP1 RETURN JUMPDEST PUSH2 0xA8 PUSH2 0x198 JUMP JUMPDEST PUSH1 0x40 MLOAD PUSH2 0xB5 SWAP2 SWAP1 PUSH2 0x2EC JUMP JUMPDEST PUSH1 0x40 MLOAD DUP1 SWAP2 SUB SWAP1 RETURN JUMPDEST PUSH2 0xC6 PUSH2 0x1A7 JUMP JUMPDEST PUSH1 0x40 MLOAD PUSH2 0xD3 SWAP2 SWAP1 PUSH2 0x2EC JUMP JUMPDEST PUSH1 0x40 MLOAD DUP1 SWAP2 SUB SWAP1 RETURN JUMPDEST PUSH2 0xF6 PUSH1 0x4 DUP1 CALLDATASIZE SUB DUP2 ADD SWAP1 PUSH2 0xF1 SWAP2 SWAP1 PUSH2 0x264 JUMP JUMPDEST PUSH2 0x1B6 JUMP JUMPDEST PUSH1 0x40 MLOAD PUSH2 0x103 SWAP2 SWAP1 PUSH2 0x30E JUMP JUMPDEST PUSH1 0x40 MLOAD DUP1 SWAP2 SUB SWAP1 RETURN JUMPDEST PUSH2 0x114 PUSH2 0x1CA JUMP JUMPDEST PUSH1 0x40 MLOAD PUSH2 0x121 SWAP2 SWAP1 PUSH2 0x2EC JUMP JUMPDEST PUSH1 0x40 MLOAD DUP1 SWAP2 SUB SWAP1 RETURN JUMPDEST PUSH2 0x144 PUSH1 0x4 DUP1 CALLDATASIZE SUB DUP2 ADD SWAP1 PUSH2 0x13F SWAP2 SWAP1 PUSH2 0x264 JUMP JUMPDEST PUSH2 0x1D9 JUMP JUMPDEST PUSH1 0x40 MLOAD PUSH2 0x151 SWAP2 SWAP1 PUSH2 0x30E JUMP JUMPDEST PUSH1 0x40 MLOAD DUP1 SWAP2 SUB SWAP1 RETURN JUMPDEST PUSH2 0x162 PUSH2 0x1EF JUMP JUMPDEST PUSH1 0x40 MLOAD PUSH2 0x16F SWAP2 SWAP1 PUSH2 0x2EC JUMP JUMPDEST PUSH1 0x40 MLOAD DUP1 SWAP2 SUB SWAP1 RETURN JUMPDEST PUSH1 0x60 PUSH1 0x40 MLOAD DUP1 PUSH1 0x60 ADD PUSH1 0x40 MSTORE DUP1 PUSH1 0x24 DUP2 MSTORE PUSH1 0x20 ADD PUSH2 0x458 PUSH1 0x24 SWAP2 CODECOPY SWAP1 POP SWAP1 JUMP JUMPDEST PUSH1 0x60 PUSH2 0x1A2 PUSH2 0x1EF JUMP JUMPDEST SWAP1 POP SWAP1 JUMP JUMPDEST PUSH1 0x60 PUSH2 0x1B1 PUSH2 0x20F JUMP JUMPDEST SWAP1 POP SWAP1 JUMP JUMPDEST PUSH1 0x0 PUSH2 0x1C2 DUP4 DUP4 PUSH2 0x1D9 JUMP JUMPDEST SWAP1 POP SWAP3 SWAP2 POP POP JUMP JUMPDEST PUSH1 0x60 PUSH2 0x1D4 PUSH2 0x22F JUMP JUMPDEST SWAP1 POP SWAP1 JUMP JUMPDEST PUSH1 0x0 DUP2 DUP4 PUSH2 0x1E7 SWAP2 SWAP1 PUSH2 0x345 JUMP JUMPDEST SWAP1 POP SWAP3 SWAP2 POP POP JUMP JUMPDEST PUSH1 0x60 PUSH1 0x40 MLOAD DUP1 PUSH1 0x60 ADD PUSH1 0x40 MSTORE DUP1 PUSH1 0x22 DUP2 MSTORE PUSH1 0x20 ADD PUSH2 0x47C PUSH1 0x22 SWAP2 CODECOPY SWAP1 POP SWAP1 JUMP JUMPDEST PUSH1 0x60 PUSH1 0x40 MLOAD DUP1 PUSH1 0x60 ADD PUSH1 0x40 MSTORE DUP1 PUSH1 0x27 DUP2 MSTORE PUSH1 0x20 ADD PUSH2 0x49E PUSH1 0x27 SWAP2 CODECOPY SWAP1 POP SWAP1 JUMP JUMPDEST PUSH1 0x60 PUSH1 0x40 MLOAD DUP1 PUSH1 0x60 ADD PUSH1 0x40 MSTORE DUP1 PUSH1 0x23 DUP2 MSTORE PUSH1 0x20 ADD PUSH2 0x435 PUSH1 0x23 SWAP2 CODECOPY SWAP1 POP SWAP1 JUMP JUMPDEST PUSH1 0x0 DUP2 CALLDATALOAD SWAP1 POP PUSH2 0x25E DUP2 PUSH2 0x41D JUMP JUMPDEST SWAP3 SWAP2 POP POP JUMP JUMPDEST PUSH1 0x0 DUP1 PUSH1 0x40 DUP4 DUP6 SUB SLT ISZERO PUSH2 0x27B JUMPI PUSH2 0x27A PUSH2 0x407 JUMP JUMPDEST JUMPDEST PUSH1 0x0 PUSH2 0x289 DUP6 DUP3 DUP7 ADD PUSH2 0x24F JUMP JUMPDEST SWAP3 POP POP PUSH1 0x20 PUSH2 0x29A DUP6 DUP3 DUP7 ADD PUSH2 0x24F JUMP JUMPDEST SWAP2 POP POP SWAP3 POP SWAP3 SWAP1 POP JUMP JUMPDEST PUSH1 0x0 PUSH2 0x2AF DUP3 PUSH2 0x329 JUMP JUMPDEST PUSH2 0x2B9 DUP2 DUP6 PUSH2 0x334 JUMP JUMPDEST SWAP4 POP PUSH2 0x2C9 DUP2 DUP6 PUSH1 0x20 DUP7 ADD PUSH2 0x3A5 JUMP JUMPDEST PUSH2 0x2D2 DUP2 PUSH2 0x40C JUMP JUMPDEST DUP5 ADD SWAP2 POP POP SWAP3 SWAP2 POP POP JUMP JUMPDEST PUSH2 0x2E6 DUP2 PUSH2 0x39B JUMP JUMPDEST DUP3 MSTORE POP POP JUMP JUMPDEST PUSH1 0x0 PUSH1 0x20 DUP3 ADD SWAP1 POP DUP2 DUP2 SUB PUSH1 0x0 DUP4 ADD MSTORE PUSH2 0x306 DUP2 DUP5 PUSH2 0x2A4 JUMP JUMPDEST SWAP1 POP SWAP3 SWAP2 POP POP JUMP JUMPDEST PUSH1 0x0 PUSH1 0x20 DUP3 ADD SWAP1 POP PUSH2 0x323 PUSH1 0x0 DUP4 ADD DUP5 PUSH2 0x2DD JUMP JUMPDEST SWAP3 SWAP2 POP POP JUMP JUMPDEST PUSH1 0x0 DUP2 MLOAD SWAP1 POP SWAP2 SWAP1 POP JUMP JUMPDEST PUSH1 0x0 DUP3 DUP3 MSTORE PUSH1 0x20 DUP3 ADD SWAP1 POP SWAP3 SWAP2 POP POP JUMP JUMPDEST PUSH1 0x0 PUSH2 0x350 DUP3 PUSH2 0x39B JUMP JUMPDEST SWAP2 POP PUSH2 0x35B DUP4 PUSH2 0x39B JUMP JUMPDEST SWAP3 POP DUP3 PUSH32 0xFFFFFFFFFFFFFFFFFFFFFFFFFFFFFFFFFFFFFFFFFFFFFFFFFFFFFFFFFFFFFFFF SUB DUP3 GT ISZERO PUSH2 0x390 JUMPI PUSH2 0x38F PUSH2 0x3D8 JUMP JUMPDEST JUMPDEST DUP3 DUP3 ADD SWAP1 POP SWAP3 SWAP2 POP POP JUMP JUMPDEST PUSH1 0x0 DUP2 SWAP1 POP SWAP2 SWAP1 POP JUMP JUMPDEST PUSH1 0x0 JUMPDEST DUP4 DUP2 LT ISZERO PUSH2 0x3C3 JUMPI DUP1 DUP3 ADD MLOAD DUP2 DUP5 ADD MSTORE PUSH1 0x20 DUP2 ADD SWAP1 POP PUSH2 0x3A8 JUMP JUMPDEST DUP4 DUP2 GT ISZERO PUSH2 0x3D2 JUMPI PUSH1 0x0 DUP5 DUP5 ADD MSTORE JUMPDEST POP POP POP POP JUMP JUMPDEST PUSH32 0x4E487B7100000000000000000000000000000000000000000000000000000000 PUSH1 0x0 MSTORE PUSH1 0x11 PUSH1 0x4 MSTORE PUSH1 0x24 PUSH1 0x0 REVERT JUMPDEST PUSH1 0x0 DUP1 REVERT JUMPDEST PUSH1 0x0 PUSH1 0x1F NOT PUSH1 0x1F DUP4 ADD AND SWAP1 POP SWAP2 SWAP1 POP JUMP JUMPDEST PUSH2 0x426 DUP2 PUSH2 0x39B JUMP JUMPDEST DUP2 EQ PUSH2 0x431 JUMPI PUSH1 0x0 DUP1 REVERT JUMPDEST POP JUMP INVALID TIMESTAMP PUSH22 0x206269722070726976617465206B6579776F72642066 PUSH16 0x6E736B69796F6E647572627520626972 KECCAK256 PUSH6 0x787465726E61 PUSH13 0x206B6579776F726420666F6E73 PUSH12 0x69796F6E6475724275206269 PUSH19 0x207075626C6963206B6579776F726420666F6E PUSH12 0x7369796F6E64757262752062 PUSH10 0x7220696E7465726E616C KECCAK256 PUSH12 0x6579776F726420666F6E736B PUSH10 0x796F6E6475722E2E2EA2 PUSH5 0x6970667358 0x22 SLT KECCAK256 DUP10 PUSH3 0xBF8C98 PUSH29 0x1CC8E551F62CF096638B52300217AA4999B15A7530C45C123A4164736F PUSH13 0x63430008070033000000000000 "
				},
				"gasEstimates": {
					"creation": {
						"codeDepositCost": "254800",
						"executionCost": "294",
						"totalCost": "255094"
					},
					"external": {
						"add(uint256,uint256)": "infinite",
						"add2(uint256,uint256)": "infinite",
						"callInternalKeyword()": "infinite",
						"callPrivateKeyword()": "infinite",
						"callPublicKeyword()": "infinite",
						"externalKeyword()": "infinite",
						"publicKeyword()": "infinite"
					},
					"internal": {
						"internalKeyword()": "infinite",
						"privateKeyword()": "infinite"
					}
				},
				"methodIdentifiers": {
					"add(uint256,uint256)": "771602f7",
					"add2(uint256,uint256)": "29fcda33",
					"callInternalKeyword()": "20d6e703",
					"callPrivateKeyword()": "513e18ce",
					"callPublicKeyword()": "148bc9e2",
					"externalKeyword()": "0104590e",
					"publicKeyword()": "79697ecc"
				}
			},
			"storageLayout": {
				"storage": [],
				"types": null
			},
			"userdoc": {
				"kind": "user",
				"methods": {},
				"version": 1
			}
		}
	}
}