{
	"CallExp.sol": {
		"Caller": {
			"abi": [
				{
					"inputs": [
						{
							"internalType": "address",
							"name": "_contract",
							"type": "address"
						}
					],
					"name": "payToFallback",
					"outputs": [],
					"stateMutability": "payable",
					"type": "function"
				},
				{
					"inputs": [
						{
							"internalType": "address",
							"name": "_contract",
							"type": "address"
						},
						{
							"internalType": "uint256",
							"name": "_amount",
							"type": "uint256"
						},
						{
							"internalType": "string",
							"name": "_incrementer",
							"type": "string"
						}
					],
					"name": "testCall",
					"outputs": [
						{
							"internalType": "bool",
							"name": "",
							"type": "bool"
						},
						{
							"internalType": "uint256",
							"name": "",
							"type": "uint256"
						}
					],
					"stateMutability": "nonpayable",
					"type": "function"
				}
			],
			"devdoc": {
				"kind": "dev",
				"methods": {},
				"version": 1
			},
			"evm": {
				"assembly": "    /* \"CallExp.sol\":447:984  contract Caller {\r... */\n  mstore(0x40, 0x80)\n  callvalue\n  dup1\n  iszero\n  tag_1\n  jumpi\n  0x00\n  dup1\n  revert\ntag_1:\n  pop\n  dataSize(sub_0)\n  dup1\n  dataOffset(sub_0)\n  0x00\n  codecopy\n  0x00\n  return\nstop\n\nsub_0: assembly {\n        /* \"CallExp.sol\":447:984  contract Caller {\r... */\n      mstore(0x40, 0x80)\n      jumpi(tag_1, lt(calldatasize, 0x04))\n      shr(0xe0, calldataload(0x00))\n      dup1\n      0x13dcb81b\n      eq\n      tag_2\n      jumpi\n      dup1\n      0x9e4c4905\n      eq\n      tag_3\n      jumpi\n    tag_1:\n      0x00\n      dup1\n      revert\n        /* \"CallExp.sol\":476:811  function testCall(address _contract, uint256 _amount, string memory _incrementer) external returns (bool, uint256) {\r... */\n    tag_2:\n      callvalue\n      dup1\n      iszero\n      tag_4\n      jumpi\n      0x00\n      dup1\n      revert\n    tag_4:\n      pop\n      tag_5\n      0x04\n      dup1\n      calldatasize\n      sub\n      dup2\n      add\n      swap1\n      tag_6\n      swap2\n      swap1\n      tag_7\n      jump\t// in\n    tag_6:\n      tag_8\n      jump\t// in\n    tag_5:\n      mload(0x40)\n      tag_9\n      swap3\n      swap2\n      swap1\n      tag_10\n      jump\t// in\n    tag_9:\n      mload(0x40)\n      dup1\n      swap2\n      sub\n      swap1\n      return\n        /* \"CallExp.sol\":819:977  function payToFallback(address _contract) external payable {\r... */\n    tag_3:\n      tag_11\n      0x04\n      dup1\n      calldatasize\n      sub\n      dup2\n      add\n      swap1\n      tag_12\n      swap2\n      swap1\n      tag_13\n      jump\t// in\n    tag_12:\n      tag_14\n      jump\t// in\n    tag_11:\n      stop\n        /* \"CallExp.sol\":476:811  function testCall(address _contract, uint256 _amount, string memory _incrementer) external returns (bool, uint256) {\r... */\n    tag_8:\n        /* \"CallExp.sol\":576:580  bool */\n      0x00\n        /* \"CallExp.sol\":582:589  uint256 */\n      dup1\n        /* \"CallExp.sol\":602:610  bool err */\n      0x00\n        /* \"CallExp.sol\":612:628  bytes memory res */\n      dup1\n        /* \"CallExp.sol\":632:641  _contract */\n      dup7\n        /* \"CallExp.sol\":632:646  _contract.call */\n      0xffffffffffffffffffffffffffffffffffffffff\n      and\n        /* \"CallExp.sol\":695:702  _amount */\n      dup7\n        /* \"CallExp.sol\":704:716  _incrementer */\n      dup7\n        /* \"CallExp.sol\":647:717  abi.encodeWithSignature(\"inc(uint256, string)\", _amount, _incrementer) */\n      add(0x24, mload(0x40))\n      tag_16\n      swap3\n      swap2\n      swap1\n      tag_17\n      jump\t// in\n    tag_16:\n      mload(0x40)\n      0x20\n      dup2\n      dup4\n      sub\n      sub\n      dup2\n      mstore\n      swap1\n      0x40\n      mstore\n      and(not(0xffffffffffffffffffffffffffffffffffffffffffffffffffffffff), 0xffbab60000000000000000000000000000000000000000000000000000000000)\n      0x20\n      dup3\n      add\n      dup1\n      mload\n      0xffffffffffffffffffffffffffffffffffffffffffffffffffffffff\n      dup4\n      dup2\n      dup4\n      and\n      or\n      dup4\n      mstore\n      pop\n      pop\n      pop\n      pop\n        /* \"CallExp.sol\":632:718  _contract.call(abi.encodeWithSignature(\"inc(uint256, string)\", _amount, _incrementer)) */\n      mload(0x40)\n      tag_18\n      swap2\n      swap1\n      tag_19\n      jump\t// in\n    tag_18:\n      0x00\n      mload(0x40)\n      dup1\n      dup4\n      sub\n      dup2\n      0x00\n      dup7\n      gas\n      call\n      swap2\n      pop\n      pop\n      returndatasize\n      dup1\n      0x00\n      dup2\n      eq\n      tag_22\n      jumpi\n      mload(0x40)\n      swap2\n      pop\n      and(add(returndatasize, 0x3f), not(0x1f))\n      dup3\n      add\n      0x40\n      mstore\n      returndatasize\n      dup3\n      mstore\n      returndatasize\n      0x00\n      0x20\n      dup5\n      add\n      returndatacopy\n      jump(tag_21)\n    tag_22:\n      0x60\n      swap2\n      pop\n    tag_21:\n      pop\n        /* \"CallExp.sol\":601:718  (bool err, bytes memory res) = _contract.call(abi.encodeWithSignature(\"inc(uint256, string)\", _amount, _incrementer)) */\n      swap2\n      pop\n      swap2\n      pop\n        /* \"CallExp.sol\":729:743  uint256 _total */\n      0x00\n        /* \"CallExp.sol\":757:760  res */\n      dup2\n        /* \"CallExp.sol\":746:772  abi.decode(res, (uint256)) */\n      dup1\n      0x20\n      add\n      swap1\n      mload\n      dup2\n      add\n      swap1\n      tag_23\n      swap2\n      swap1\n      tag_24\n      jump\t// in\n    tag_23:\n        /* \"CallExp.sol\":729:772  uint256 _total = abi.decode(res, (uint256)) */\n      swap1\n      pop\n        /* \"CallExp.sol\":791:794  err */\n      dup3\n        /* \"CallExp.sol\":796:802  _total */\n      dup2\n        /* \"CallExp.sol\":783:803  return (err, _total) */\n      swap5\n      pop\n      swap5\n      pop\n      pop\n      pop\n      pop\n        /* \"CallExp.sol\":476:811  function testCall(address _contract, uint256 _amount, string memory _incrementer) external returns (bool, uint256) {\r... */\n      swap4\n      pop\n      swap4\n      swap2\n      pop\n      pop\n      jump\t// out\n        /* \"CallExp.sol\":819:977  function payToFallback(address _contract) external payable {\r... */\n    tag_14:\n        /* \"CallExp.sol\":890:898  bool err */\n      0x00\n        /* \"CallExp.sol\":903:912  _contract */\n      dup2\n        /* \"CallExp.sol\":903:917  _contract.call */\n      0xffffffffffffffffffffffffffffffffffffffff\n      and\n        /* \"CallExp.sol\":925:934  msg.value */\n      callvalue\n        /* \"CallExp.sol\":903:939  _contract.call{value: msg.value}(\"\") */\n      mload(0x40)\n      tag_26\n      swap1\n      tag_27\n      jump\t// in\n    tag_26:\n      0x00\n      mload(0x40)\n      dup1\n      dup4\n      sub\n      dup2\n      dup6\n      dup8\n      gas\n      call\n      swap3\n      pop\n      pop\n      pop\n      returndatasize\n      dup1\n      0x00\n      dup2\n      eq\n      tag_30\n      jumpi\n      mload(0x40)\n      swap2\n      pop\n      and(add(returndatasize, 0x3f), not(0x1f))\n      dup3\n      add\n      0x40\n      mstore\n      returndatasize\n      dup3\n      mstore\n      returndatasize\n      0x00\n      0x20\n      dup5\n      add\n      returndatacopy\n      jump(tag_29)\n    tag_30:\n      0x60\n      swap2\n      pop\n    tag_29:\n      pop\n        /* \"CallExp.sol\":889:939  (bool err,) = _contract.call{value: msg.value}(\"\") */\n      pop\n      swap1\n      pop\n        /* \"CallExp.sol\":956:959  err */\n      dup1\n        /* \"CallExp.sol\":952:969  if(!err) revert() */\n      tag_31\n      jumpi\n        /* \"CallExp.sol\":961:969  revert() */\n      0x00\n      dup1\n      revert\n        /* \"CallExp.sol\":952:969  if(!err) revert() */\n    tag_31:\n        /* \"CallExp.sol\":878:977  {\r... */\n      pop\n        /* \"CallExp.sol\":819:977  function payToFallback(address _contract) external payable {\r... */\n      pop\n      jump\t// out\n        /* \"#utility.yul\":7:419   */\n    tag_33:\n        /* \"#utility.yul\":85:90   */\n      0x00\n        /* \"#utility.yul\":110:176   */\n      tag_35\n        /* \"#utility.yul\":126:175   */\n      tag_36\n        /* \"#utility.yul\":168:174   */\n      dup5\n        /* \"#utility.yul\":126:175   */\n      tag_37\n      jump\t// in\n    tag_36:\n        /* \"#utility.yul\":110:176   */\n      tag_38\n      jump\t// in\n    tag_35:\n        /* \"#utility.yul\":101:176   */\n      swap1\n      pop\n        /* \"#utility.yul\":199:205   */\n      dup3\n        /* \"#utility.yul\":192:197   */\n      dup2\n        /* \"#utility.yul\":185:206   */\n      mstore\n        /* \"#utility.yul\":237:241   */\n      0x20\n        /* \"#utility.yul\":230:235   */\n      dup2\n        /* \"#utility.yul\":226:242   */\n      add\n        /* \"#utility.yul\":275:278   */\n      dup5\n        /* \"#utility.yul\":266:272   */\n      dup5\n        /* \"#utility.yul\":261:264   */\n      dup5\n        /* \"#utility.yul\":257:273   */\n      add\n        /* \"#utility.yul\":254:279   */\n      gt\n        /* \"#utility.yul\":251:363   */\n      iszero\n      tag_39\n      jumpi\n        /* \"#utility.yul\":282:361   */\n      tag_40\n      tag_41\n      jump\t// in\n    tag_40:\n        /* \"#utility.yul\":251:363   */\n    tag_39:\n        /* \"#utility.yul\":372:413   */\n      tag_42\n        /* \"#utility.yul\":406:412   */\n      dup5\n        /* \"#utility.yul\":401:404   */\n      dup3\n        /* \"#utility.yul\":396:399   */\n      dup6\n        /* \"#utility.yul\":372:413   */\n      tag_43\n      jump\t// in\n    tag_42:\n        /* \"#utility.yul\":91:419   */\n      pop\n        /* \"#utility.yul\":7:419   */\n      swap4\n      swap3\n      pop\n      pop\n      pop\n      jump\t// out\n        /* \"#utility.yul\":425:564   */\n    tag_44:\n        /* \"#utility.yul\":471:476   */\n      0x00\n        /* \"#utility.yul\":509:515   */\n      dup2\n        /* \"#utility.yul\":496:516   */\n      calldataload\n        /* \"#utility.yul\":487:516   */\n      swap1\n      pop\n        /* \"#utility.yul\":525:558   */\n      tag_46\n        /* \"#utility.yul\":552:557   */\n      dup2\n        /* \"#utility.yul\":525:558   */\n      tag_47\n      jump\t// in\n    tag_46:\n        /* \"#utility.yul\":425:564   */\n      swap3\n      swap2\n      pop\n      pop\n      jump\t// out\n        /* \"#utility.yul\":584:924   */\n    tag_48:\n        /* \"#utility.yul\":640:645   */\n      0x00\n        /* \"#utility.yul\":689:692   */\n      dup3\n        /* \"#utility.yul\":682:686   */\n      0x1f\n        /* \"#utility.yul\":674:680   */\n      dup4\n        /* \"#utility.yul\":670:687   */\n      add\n        /* \"#utility.yul\":666:693   */\n      slt\n        /* \"#utility.yul\":656:778   */\n      tag_50\n      jumpi\n        /* \"#utility.yul\":697:776   */\n      tag_51\n      tag_52\n      jump\t// in\n    tag_51:\n        /* \"#utility.yul\":656:778   */\n    tag_50:\n        /* \"#utility.yul\":814:820   */\n      dup2\n        /* \"#utility.yul\":801:821   */\n      calldataload\n        /* \"#utility.yul\":839:918   */\n      tag_53\n        /* \"#utility.yul\":914:917   */\n      dup5\n        /* \"#utility.yul\":906:912   */\n      dup3\n        /* \"#utility.yul\":899:903   */\n      0x20\n        /* \"#utility.yul\":891:897   */\n      dup7\n        /* \"#utility.yul\":887:904   */\n      add\n        /* \"#utility.yul\":839:918   */\n      tag_33\n      jump\t// in\n    tag_53:\n        /* \"#utility.yul\":830:918   */\n      swap2\n      pop\n        /* \"#utility.yul\":646:924   */\n      pop\n        /* \"#utility.yul\":584:924   */\n      swap3\n      swap2\n      pop\n      pop\n      jump\t// out\n        /* \"#utility.yul\":930:1069   */\n    tag_54:\n        /* \"#utility.yul\":976:981   */\n      0x00\n        /* \"#utility.yul\":1014:1020   */\n      dup2\n        /* \"#utility.yul\":1001:1021   */\n      calldataload\n        /* \"#utility.yul\":992:1021   */\n      swap1\n      pop\n        /* \"#utility.yul\":1030:1063   */\n      tag_56\n        /* \"#utility.yul\":1057:1062   */\n      dup2\n        /* \"#utility.yul\":1030:1063   */\n      tag_57\n      jump\t// in\n    tag_56:\n        /* \"#utility.yul\":930:1069   */\n      swap3\n      swap2\n      pop\n      pop\n      jump\t// out\n        /* \"#utility.yul\":1075:1218   */\n    tag_58:\n        /* \"#utility.yul\":1132:1137   */\n      0x00\n        /* \"#utility.yul\":1163:1169   */\n      dup2\n        /* \"#utility.yul\":1157:1170   */\n      mload\n        /* \"#utility.yul\":1148:1170   */\n      swap1\n      pop\n        /* \"#utility.yul\":1179:1212   */\n      tag_60\n        /* \"#utility.yul\":1206:1211   */\n      dup2\n        /* \"#utility.yul\":1179:1212   */\n      tag_57\n      jump\t// in\n    tag_60:\n        /* \"#utility.yul\":1075:1218   */\n      swap3\n      swap2\n      pop\n      pop\n      jump\t// out\n        /* \"#utility.yul\":1224:1553   */\n    tag_13:\n        /* \"#utility.yul\":1283:1289   */\n      0x00\n        /* \"#utility.yul\":1332:1334   */\n      0x20\n        /* \"#utility.yul\":1320:1329   */\n      dup3\n        /* \"#utility.yul\":1311:1318   */\n      dup5\n        /* \"#utility.yul\":1307:1330   */\n      sub\n        /* \"#utility.yul\":1303:1335   */\n      slt\n        /* \"#utility.yul\":1300:1419   */\n      iszero\n      tag_62\n      jumpi\n        /* \"#utility.yul\":1338:1417   */\n      tag_63\n      tag_64\n      jump\t// in\n    tag_63:\n        /* \"#utility.yul\":1300:1419   */\n    tag_62:\n        /* \"#utility.yul\":1458:1459   */\n      0x00\n        /* \"#utility.yul\":1483:1536   */\n      tag_65\n        /* \"#utility.yul\":1528:1535   */\n      dup5\n        /* \"#utility.yul\":1519:1525   */\n      dup3\n        /* \"#utility.yul\":1508:1517   */\n      dup6\n        /* \"#utility.yul\":1504:1526   */\n      add\n        /* \"#utility.yul\":1483:1536   */\n      tag_44\n      jump\t// in\n    tag_65:\n        /* \"#utility.yul\":1473:1536   */\n      swap2\n      pop\n        /* \"#utility.yul\":1429:1546   */\n      pop\n        /* \"#utility.yul\":1224:1553   */\n      swap3\n      swap2\n      pop\n      pop\n      jump\t// out\n        /* \"#utility.yul\":1559:2358   */\n    tag_7:\n        /* \"#utility.yul\":1646:1652   */\n      0x00\n        /* \"#utility.yul\":1654:1660   */\n      dup1\n        /* \"#utility.yul\":1662:1668   */\n      0x00\n        /* \"#utility.yul\":1711:1713   */\n      0x60\n        /* \"#utility.yul\":1699:1708   */\n      dup5\n        /* \"#utility.yul\":1690:1697   */\n      dup7\n        /* \"#utility.yul\":1686:1709   */\n      sub\n        /* \"#utility.yul\":1682:1714   */\n      slt\n        /* \"#utility.yul\":1679:1798   */\n      iszero\n      tag_67\n      jumpi\n        /* \"#utility.yul\":1717:1796   */\n      tag_68\n      tag_64\n      jump\t// in\n    tag_68:\n        /* \"#utility.yul\":1679:1798   */\n    tag_67:\n        /* \"#utility.yul\":1837:1838   */\n      0x00\n        /* \"#utility.yul\":1862:1915   */\n      tag_69\n        /* \"#utility.yul\":1907:1914   */\n      dup7\n        /* \"#utility.yul\":1898:1904   */\n      dup3\n        /* \"#utility.yul\":1887:1896   */\n      dup8\n        /* \"#utility.yul\":1883:1905   */\n      add\n        /* \"#utility.yul\":1862:1915   */\n      tag_44\n      jump\t// in\n    tag_69:\n        /* \"#utility.yul\":1852:1915   */\n      swap4\n      pop\n        /* \"#utility.yul\":1808:1925   */\n      pop\n        /* \"#utility.yul\":1964:1966   */\n      0x20\n        /* \"#utility.yul\":1990:2043   */\n      tag_70\n        /* \"#utility.yul\":2035:2042   */\n      dup7\n        /* \"#utility.yul\":2026:2032   */\n      dup3\n        /* \"#utility.yul\":2015:2024   */\n      dup8\n        /* \"#utility.yul\":2011:2033   */\n      add\n        /* \"#utility.yul\":1990:2043   */\n      tag_54\n      jump\t// in\n    tag_70:\n        /* \"#utility.yul\":1980:2043   */\n      swap3\n      pop\n        /* \"#utility.yul\":1935:2053   */\n      pop\n        /* \"#utility.yul\":2120:2122   */\n      0x40\n        /* \"#utility.yul\":2109:2118   */\n      dup5\n        /* \"#utility.yul\":2105:2123   */\n      add\n        /* \"#utility.yul\":2092:2124   */\n      calldataload\n        /* \"#utility.yul\":2151:2169   */\n      0xffffffffffffffff\n        /* \"#utility.yul\":2143:2149   */\n      dup2\n        /* \"#utility.yul\":2140:2170   */\n      gt\n        /* \"#utility.yul\":2137:2254   */\n      iszero\n      tag_71\n      jumpi\n        /* \"#utility.yul\":2173:2252   */\n      tag_72\n      tag_73\n      jump\t// in\n    tag_72:\n        /* \"#utility.yul\":2137:2254   */\n    tag_71:\n        /* \"#utility.yul\":2278:2341   */\n      tag_74\n        /* \"#utility.yul\":2333:2340   */\n      dup7\n        /* \"#utility.yul\":2324:2330   */\n      dup3\n        /* \"#utility.yul\":2313:2322   */\n      dup8\n        /* \"#utility.yul\":2309:2331   */\n      add\n        /* \"#utility.yul\":2278:2341   */\n      tag_48\n      jump\t// in\n    tag_74:\n        /* \"#utility.yul\":2268:2341   */\n      swap2\n      pop\n        /* \"#utility.yul\":2063:2351   */\n      pop\n        /* \"#utility.yul\":1559:2358   */\n      swap3\n      pop\n      swap3\n      pop\n      swap3\n      jump\t// out\n        /* \"#utility.yul\":2364:2715   */\n    tag_24:\n        /* \"#utility.yul\":2434:2440   */\n      0x00\n        /* \"#utility.yul\":2483:2485   */\n      0x20\n        /* \"#utility.yul\":2471:2480   */\n      dup3\n        /* \"#utility.yul\":2462:2469   */\n      dup5\n        /* \"#utility.yul\":2458:2481   */\n      sub\n        /* \"#utility.yul\":2454:2486   */\n      slt\n        /* \"#utility.yul\":2451:2570   */\n      iszero\n      tag_76\n      jumpi\n        /* \"#utility.yul\":2489:2568   */\n      tag_77\n      tag_64\n      jump\t// in\n    tag_77:\n        /* \"#utility.yul\":2451:2570   */\n    tag_76:\n        /* \"#utility.yul\":2609:2610   */\n      0x00\n        /* \"#utility.yul\":2634:2698   */\n      tag_78\n        /* \"#utility.yul\":2690:2697   */\n      dup5\n        /* \"#utility.yul\":2681:2687   */\n      dup3\n        /* \"#utility.yul\":2670:2679   */\n      dup6\n        /* \"#utility.yul\":2666:2688   */\n      add\n        /* \"#utility.yul\":2634:2698   */\n      tag_58\n      jump\t// in\n    tag_78:\n        /* \"#utility.yul\":2624:2698   */\n      swap2\n      pop\n        /* \"#utility.yul\":2580:2708   */\n      pop\n        /* \"#utility.yul\":2364:2715   */\n      swap3\n      swap2\n      pop\n      pop\n      jump\t// out\n        /* \"#utility.yul\":2721:2830   */\n    tag_79:\n        /* \"#utility.yul\":2802:2823   */\n      tag_81\n        /* \"#utility.yul\":2817:2822   */\n      dup2\n        /* \"#utility.yul\":2802:2823   */\n      tag_82\n      jump\t// in\n    tag_81:\n        /* \"#utility.yul\":2797:2800   */\n      dup3\n        /* \"#utility.yul\":2790:2824   */\n      mstore\n        /* \"#utility.yul\":2721:2830   */\n      pop\n      pop\n      jump\t// out\n        /* \"#utility.yul\":2836:3209   */\n    tag_83:\n        /* \"#utility.yul\":2940:2943   */\n      0x00\n        /* \"#utility.yul\":2968:3006   */\n      tag_85\n        /* \"#utility.yul\":3000:3005   */\n      dup3\n        /* \"#utility.yul\":2968:3006   */\n      tag_86\n      jump\t// in\n    tag_85:\n        /* \"#utility.yul\":3022:3110   */\n      tag_87\n        /* \"#utility.yul\":3103:3109   */\n      dup2\n        /* \"#utility.yul\":3098:3101   */\n      dup6\n        /* \"#utility.yul\":3022:3110   */\n      tag_88\n      jump\t// in\n    tag_87:\n        /* \"#utility.yul\":3015:3110   */\n      swap4\n      pop\n        /* \"#utility.yul\":3119:3171   */\n      tag_89\n        /* \"#utility.yul\":3164:3170   */\n      dup2\n        /* \"#utility.yul\":3159:3162   */\n      dup6\n        /* \"#utility.yul\":3152:3156   */\n      0x20\n        /* \"#utility.yul\":3145:3150   */\n      dup7\n        /* \"#utility.yul\":3141:3157   */\n      add\n        /* \"#utility.yul\":3119:3171   */\n      tag_90\n      jump\t// in\n    tag_89:\n        /* \"#utility.yul\":3196:3202   */\n      dup1\n        /* \"#utility.yul\":3191:3194   */\n      dup5\n        /* \"#utility.yul\":3187:3203   */\n      add\n        /* \"#utility.yul\":3180:3203   */\n      swap2\n      pop\n        /* \"#utility.yul\":2944:3209   */\n      pop\n        /* \"#utility.yul\":2836:3209   */\n      swap3\n      swap2\n      pop\n      pop\n      jump\t// out\n        /* \"#utility.yul\":3215:3579   */\n    tag_91:\n        /* \"#utility.yul\":3303:3306   */\n      0x00\n        /* \"#utility.yul\":3331:3370   */\n      tag_93\n        /* \"#utility.yul\":3364:3369   */\n      dup3\n        /* \"#utility.yul\":3331:3370   */\n      tag_94\n      jump\t// in\n    tag_93:\n        /* \"#utility.yul\":3386:3457   */\n      tag_95\n        /* \"#utility.yul\":3450:3456   */\n      dup2\n        /* \"#utility.yul\":3445:3448   */\n      dup6\n        /* \"#utility.yul\":3386:3457   */\n      tag_96\n      jump\t// in\n    tag_95:\n        /* \"#utility.yul\":3379:3457   */\n      swap4\n      pop\n        /* \"#utility.yul\":3466:3518   */\n      tag_97\n        /* \"#utility.yul\":3511:3517   */\n      dup2\n        /* \"#utility.yul\":3506:3509   */\n      dup6\n        /* \"#utility.yul\":3499:3503   */\n      0x20\n        /* \"#utility.yul\":3492:3497   */\n      dup7\n        /* \"#utility.yul\":3488:3504   */\n      add\n        /* \"#utility.yul\":3466:3518   */\n      tag_90\n      jump\t// in\n    tag_97:\n        /* \"#utility.yul\":3543:3572   */\n      tag_98\n        /* \"#utility.yul\":3565:3571   */\n      dup2\n        /* \"#utility.yul\":3543:3572   */\n      tag_99\n      jump\t// in\n    tag_98:\n        /* \"#utility.yul\":3538:3541   */\n      dup5\n        /* \"#utility.yul\":3534:3573   */\n      add\n        /* \"#utility.yul\":3527:3573   */\n      swap2\n      pop\n        /* \"#utility.yul\":3307:3579   */\n      pop\n        /* \"#utility.yul\":3215:3579   */\n      swap3\n      swap2\n      pop\n      pop\n      jump\t// out\n        /* \"#utility.yul\":3585:3983   */\n    tag_100:\n        /* \"#utility.yul\":3744:3747   */\n      0x00\n        /* \"#utility.yul\":3765:3848   */\n      tag_102\n        /* \"#utility.yul\":3846:3847   */\n      0x00\n        /* \"#utility.yul\":3841:3844   */\n      dup4\n        /* \"#utility.yul\":3765:3848   */\n      tag_88\n      jump\t// in\n    tag_102:\n        /* \"#utility.yul\":3758:3848   */\n      swap2\n      pop\n        /* \"#utility.yul\":3857:3950   */\n      tag_103\n        /* \"#utility.yul\":3946:3949   */\n      dup3\n        /* \"#utility.yul\":3857:3950   */\n      tag_104\n      jump\t// in\n    tag_103:\n        /* \"#utility.yul\":3975:3976   */\n      0x00\n        /* \"#utility.yul\":3970:3973   */\n      dup3\n        /* \"#utility.yul\":3966:3977   */\n      add\n        /* \"#utility.yul\":3959:3977   */\n      swap1\n      pop\n        /* \"#utility.yul\":3585:3983   */\n      swap2\n      swap1\n      pop\n      jump\t// out\n        /* \"#utility.yul\":3989:4107   */\n    tag_105:\n        /* \"#utility.yul\":4076:4100   */\n      tag_107\n        /* \"#utility.yul\":4094:4099   */\n      dup2\n        /* \"#utility.yul\":4076:4100   */\n      tag_108\n      jump\t// in\n    tag_107:\n        /* \"#utility.yul\":4071:4074   */\n      dup3\n        /* \"#utility.yul\":4064:4101   */\n      mstore\n        /* \"#utility.yul\":3989:4107   */\n      pop\n      pop\n      jump\t// out\n        /* \"#utility.yul\":4113:4384   */\n    tag_19:\n        /* \"#utility.yul\":4243:4246   */\n      0x00\n        /* \"#utility.yul\":4265:4358   */\n      tag_110\n        /* \"#utility.yul\":4354:4357   */\n      dup3\n        /* \"#utility.yul\":4345:4351   */\n      dup5\n        /* \"#utility.yul\":4265:4358   */\n      tag_83\n      jump\t// in\n    tag_110:\n        /* \"#utility.yul\":4258:4358   */\n      swap2\n      pop\n        /* \"#utility.yul\":4375:4378   */\n      dup2\n        /* \"#utility.yul\":4368:4378   */\n      swap1\n      pop\n        /* \"#utility.yul\":4113:4384   */\n      swap3\n      swap2\n      pop\n      pop\n      jump\t// out\n        /* \"#utility.yul\":4390:4769   */\n    tag_27:\n        /* \"#utility.yul\":4574:4577   */\n      0x00\n        /* \"#utility.yul\":4596:4743   */\n      tag_112\n        /* \"#utility.yul\":4739:4742   */\n      dup3\n        /* \"#utility.yul\":4596:4743   */\n      tag_100\n      jump\t// in\n    tag_112:\n        /* \"#utility.yul\":4589:4743   */\n      swap2\n      pop\n        /* \"#utility.yul\":4760:4763   */\n      dup2\n        /* \"#utility.yul\":4753:4763   */\n      swap1\n      pop\n        /* \"#utility.yul\":4390:4769   */\n      swap2\n      swap1\n      pop\n      jump\t// out\n        /* \"#utility.yul\":4775:5095   */\n    tag_10:\n        /* \"#utility.yul\":4890:4894   */\n      0x00\n        /* \"#utility.yul\":4928:4930   */\n      0x40\n        /* \"#utility.yul\":4917:4926   */\n      dup3\n        /* \"#utility.yul\":4913:4931   */\n      add\n        /* \"#utility.yul\":4905:4931   */\n      swap1\n      pop\n        /* \"#utility.yul\":4941:5006   */\n      tag_114\n        /* \"#utility.yul\":5003:5004   */\n      0x00\n        /* \"#utility.yul\":4992:5001   */\n      dup4\n        /* \"#utility.yul\":4988:5005   */\n      add\n        /* \"#utility.yul\":4979:4985   */\n      dup6\n        /* \"#utility.yul\":4941:5006   */\n      tag_79\n      jump\t// in\n    tag_114:\n        /* \"#utility.yul\":5016:5088   */\n      tag_115\n        /* \"#utility.yul\":5084:5086   */\n      0x20\n        /* \"#utility.yul\":5073:5082   */\n      dup4\n        /* \"#utility.yul\":5069:5087   */\n      add\n        /* \"#utility.yul\":5060:5066   */\n      dup5\n        /* \"#utility.yul\":5016:5088   */\n      tag_105\n      jump\t// in\n    tag_115:\n        /* \"#utility.yul\":4775:5095   */\n      swap4\n      swap3\n      pop\n      pop\n      pop\n      jump\t// out\n        /* \"#utility.yul\":5101:5524   */\n    tag_17:\n        /* \"#utility.yul\":5242:5246   */\n      0x00\n        /* \"#utility.yul\":5280:5282   */\n      0x40\n        /* \"#utility.yul\":5269:5278   */\n      dup3\n        /* \"#utility.yul\":5265:5283   */\n      add\n        /* \"#utility.yul\":5257:5283   */\n      swap1\n      pop\n        /* \"#utility.yul\":5293:5364   */\n      tag_117\n        /* \"#utility.yul\":5361:5362   */\n      0x00\n        /* \"#utility.yul\":5350:5359   */\n      dup4\n        /* \"#utility.yul\":5346:5363   */\n      add\n        /* \"#utility.yul\":5337:5343   */\n      dup6\n        /* \"#utility.yul\":5293:5364   */\n      tag_105\n      jump\t// in\n    tag_117:\n        /* \"#utility.yul\":5411:5420   */\n      dup2\n        /* \"#utility.yul\":5405:5409   */\n      dup2\n        /* \"#utility.yul\":5401:5421   */\n      sub\n        /* \"#utility.yul\":5396:5398   */\n      0x20\n        /* \"#utility.yul\":5385:5394   */\n      dup4\n        /* \"#utility.yul\":5381:5399   */\n      add\n        /* \"#utility.yul\":5374:5422   */\n      mstore\n        /* \"#utility.yul\":5439:5517   */\n      tag_118\n        /* \"#utility.yul\":5512:5516   */\n      dup2\n        /* \"#utility.yul\":5503:5509   */\n      dup5\n        /* \"#utility.yul\":5439:5517   */\n      tag_91\n      jump\t// in\n    tag_118:\n        /* \"#utility.yul\":5431:5517   */\n      swap1\n      pop\n        /* \"#utility.yul\":5101:5524   */\n      swap4\n      swap3\n      pop\n      pop\n      pop\n      jump\t// out\n        /* \"#utility.yul\":5530:5659   */\n    tag_38:\n        /* \"#utility.yul\":5564:5570   */\n      0x00\n        /* \"#utility.yul\":5591:5611   */\n      tag_120\n      tag_121\n      jump\t// in\n    tag_120:\n        /* \"#utility.yul\":5581:5611   */\n      swap1\n      pop\n        /* \"#utility.yul\":5620:5653   */\n      tag_122\n        /* \"#utility.yul\":5648:5652   */\n      dup3\n        /* \"#utility.yul\":5640:5646   */\n      dup3\n        /* \"#utility.yul\":5620:5653   */\n      tag_123\n      jump\t// in\n    tag_122:\n        /* \"#utility.yul\":5530:5659   */\n      swap2\n      swap1\n      pop\n      jump\t// out\n        /* \"#utility.yul\":5665:5740   */\n    tag_121:\n        /* \"#utility.yul\":5698:5704   */\n      0x00\n        /* \"#utility.yul\":5731:5733   */\n      0x40\n        /* \"#utility.yul\":5725:5734   */\n      mload\n        /* \"#utility.yul\":5715:5734   */\n      swap1\n      pop\n        /* \"#utility.yul\":5665:5740   */\n      swap1\n      jump\t// out\n        /* \"#utility.yul\":5746:6054   */\n    tag_37:\n        /* \"#utility.yul\":5808:5812   */\n      0x00\n        /* \"#utility.yul\":5898:5916   */\n      0xffffffffffffffff\n        /* \"#utility.yul\":5890:5896   */\n      dup3\n        /* \"#utility.yul\":5887:5917   */\n      gt\n        /* \"#utility.yul\":5884:5940   */\n      iszero\n      tag_126\n      jumpi\n        /* \"#utility.yul\":5920:5938   */\n      tag_127\n      tag_128\n      jump\t// in\n    tag_127:\n        /* \"#utility.yul\":5884:5940   */\n    tag_126:\n        /* \"#utility.yul\":5958:5987   */\n      tag_129\n        /* \"#utility.yul\":5980:5986   */\n      dup3\n        /* \"#utility.yul\":5958:5987   */\n      tag_99\n      jump\t// in\n    tag_129:\n        /* \"#utility.yul\":5950:5987   */\n      swap1\n      pop\n        /* \"#utility.yul\":6042:6046   */\n      0x20\n        /* \"#utility.yul\":6036:6040   */\n      dup2\n        /* \"#utility.yul\":6032:6047   */\n      add\n        /* \"#utility.yul\":6024:6047   */\n      swap1\n      pop\n        /* \"#utility.yul\":5746:6054   */\n      swap2\n      swap1\n      pop\n      jump\t// out\n        /* \"#utility.yul\":6060:6158   */\n    tag_86:\n        /* \"#utility.yul\":6111:6117   */\n      0x00\n        /* \"#utility.yul\":6145:6150   */\n      dup2\n        /* \"#utility.yul\":6139:6151   */\n      mload\n        /* \"#utility.yul\":6129:6151   */\n      swap1\n      pop\n        /* \"#utility.yul\":6060:6158   */\n      swap2\n      swap1\n      pop\n      jump\t// out\n        /* \"#utility.yul\":6164:6263   */\n    tag_94:\n        /* \"#utility.yul\":6216:6222   */\n      0x00\n        /* \"#utility.yul\":6250:6255   */\n      dup2\n        /* \"#utility.yul\":6244:6256   */\n      mload\n        /* \"#utility.yul\":6234:6256   */\n      swap1\n      pop\n        /* \"#utility.yul\":6164:6263   */\n      swap2\n      swap1\n      pop\n      jump\t// out\n        /* \"#utility.yul\":6269:6416   */\n    tag_88:\n        /* \"#utility.yul\":6370:6381   */\n      0x00\n        /* \"#utility.yul\":6407:6410   */\n      dup2\n        /* \"#utility.yul\":6392:6410   */\n      swap1\n      pop\n        /* \"#utility.yul\":6269:6416   */\n      swap3\n      swap2\n      pop\n      pop\n      jump\t// out\n        /* \"#utility.yul\":6422:6591   */\n    tag_96:\n        /* \"#utility.yul\":6506:6517   */\n      0x00\n        /* \"#utility.yul\":6540:6546   */\n      dup3\n        /* \"#utility.yul\":6535:6538   */\n      dup3\n        /* \"#utility.yul\":6528:6547   */\n      mstore\n        /* \"#utility.yul\":6580:6584   */\n      0x20\n        /* \"#utility.yul\":6575:6578   */\n      dup3\n        /* \"#utility.yul\":6571:6585   */\n      add\n        /* \"#utility.yul\":6556:6585   */\n      swap1\n      pop\n        /* \"#utility.yul\":6422:6591   */\n      swap3\n      swap2\n      pop\n      pop\n      jump\t// out\n        /* \"#utility.yul\":6597:6693   */\n    tag_134:\n        /* \"#utility.yul\":6634:6641   */\n      0x00\n        /* \"#utility.yul\":6663:6687   */\n      tag_136\n        /* \"#utility.yul\":6681:6686   */\n      dup3\n        /* \"#utility.yul\":6663:6687   */\n      tag_137\n      jump\t// in\n    tag_136:\n        /* \"#utility.yul\":6652:6687   */\n      swap1\n      pop\n        /* \"#utility.yul\":6597:6693   */\n      swap2\n      swap1\n      pop\n      jump\t// out\n        /* \"#utility.yul\":6699:6789   */\n    tag_82:\n        /* \"#utility.yul\":6733:6740   */\n      0x00\n        /* \"#utility.yul\":6776:6781   */\n      dup2\n        /* \"#utility.yul\":6769:6782   */\n      iszero\n        /* \"#utility.yul\":6762:6783   */\n      iszero\n        /* \"#utility.yul\":6751:6783   */\n      swap1\n      pop\n        /* \"#utility.yul\":6699:6789   */\n      swap2\n      swap1\n      pop\n      jump\t// out\n        /* \"#utility.yul\":6795:6921   */\n    tag_137:\n        /* \"#utility.yul\":6832:6839   */\n      0x00\n        /* \"#utility.yul\":6872:6914   */\n      0xffffffffffffffffffffffffffffffffffffffff\n        /* \"#utility.yul\":6865:6870   */\n      dup3\n        /* \"#utility.yul\":6861:6915   */\n      and\n        /* \"#utility.yul\":6850:6915   */\n      swap1\n      pop\n        /* \"#utility.yul\":6795:6921   */\n      swap2\n      swap1\n      pop\n      jump\t// out\n        /* \"#utility.yul\":6927:7004   */\n    tag_108:\n        /* \"#utility.yul\":6964:6971   */\n      0x00\n        /* \"#utility.yul\":6993:6998   */\n      dup2\n        /* \"#utility.yul\":6982:6998   */\n      swap1\n      pop\n        /* \"#utility.yul\":6927:7004   */\n      swap2\n      swap1\n      pop\n      jump\t// out\n        /* \"#utility.yul\":7010:7164   */\n    tag_43:\n        /* \"#utility.yul\":7094:7100   */\n      dup3\n        /* \"#utility.yul\":7089:7092   */\n      dup2\n        /* \"#utility.yul\":7084:7087   */\n      dup4\n        /* \"#utility.yul\":7071:7101   */\n      calldatacopy\n        /* \"#utility.yul\":7156:7157   */\n      0x00\n        /* \"#utility.yul\":7147:7153   */\n      dup4\n        /* \"#utility.yul\":7142:7145   */\n      dup4\n        /* \"#utility.yul\":7138:7154   */\n      add\n        /* \"#utility.yul\":7131:7158   */\n      mstore\n        /* \"#utility.yul\":7010:7164   */\n      pop\n      pop\n      pop\n      jump\t// out\n        /* \"#utility.yul\":7170:7477   */\n    tag_90:\n        /* \"#utility.yul\":7238:7239   */\n      0x00\n        /* \"#utility.yul\":7248:7361   */\n    tag_143:\n        /* \"#utility.yul\":7262:7268   */\n      dup4\n        /* \"#utility.yul\":7259:7260   */\n      dup2\n        /* \"#utility.yul\":7256:7269   */\n      lt\n        /* \"#utility.yul\":7248:7361   */\n      iszero\n      tag_145\n      jumpi\n        /* \"#utility.yul\":7347:7348   */\n      dup1\n        /* \"#utility.yul\":7342:7345   */\n      dup3\n        /* \"#utility.yul\":7338:7349   */\n      add\n        /* \"#utility.yul\":7332:7350   */\n      mload\n        /* \"#utility.yul\":7328:7329   */\n      dup2\n        /* \"#utility.yul\":7323:7326   */\n      dup5\n        /* \"#utility.yul\":7319:7330   */\n      add\n        /* \"#utility.yul\":7312:7351   */\n      mstore\n        /* \"#utility.yul\":7284:7286   */\n      0x20\n        /* \"#utility.yul\":7281:7282   */\n      dup2\n        /* \"#utility.yul\":7277:7287   */\n      add\n        /* \"#utility.yul\":7272:7287   */\n      swap1\n      pop\n        /* \"#utility.yul\":7248:7361   */\n      jump(tag_143)\n    tag_145:\n        /* \"#utility.yul\":7379:7385   */\n      dup4\n        /* \"#utility.yul\":7376:7377   */\n      dup2\n        /* \"#utility.yul\":7373:7386   */\n      gt\n        /* \"#utility.yul\":7370:7471   */\n      iszero\n      tag_146\n      jumpi\n        /* \"#utility.yul\":7459:7460   */\n      0x00\n        /* \"#utility.yul\":7450:7456   */\n      dup5\n        /* \"#utility.yul\":7445:7448   */\n      dup5\n        /* \"#utility.yul\":7441:7457   */\n      add\n        /* \"#utility.yul\":7434:7461   */\n      mstore\n        /* \"#utility.yul\":7370:7471   */\n    tag_146:\n        /* \"#utility.yul\":7219:7477   */\n      pop\n        /* \"#utility.yul\":7170:7477   */\n      pop\n      pop\n      pop\n      jump\t// out\n        /* \"#utility.yul\":7483:7764   */\n    tag_123:\n        /* \"#utility.yul\":7566:7593   */\n      tag_148\n        /* \"#utility.yul\":7588:7592   */\n      dup3\n        /* \"#utility.yul\":7566:7593   */\n      tag_99\n      jump\t// in\n    tag_148:\n        /* \"#utility.yul\":7558:7564   */\n      dup2\n        /* \"#utility.yul\":7554:7594   */\n      add\n        /* \"#utility.yul\":7696:7702   */\n      dup2\n        /* \"#utility.yul\":7684:7694   */\n      dup2\n        /* \"#utility.yul\":7681:7703   */\n      lt\n        /* \"#utility.yul\":7660:7678   */\n      0xffffffffffffffff\n        /* \"#utility.yul\":7648:7658   */\n      dup3\n        /* \"#utility.yul\":7645:7679   */\n      gt\n        /* \"#utility.yul\":7642:7704   */\n      or\n        /* \"#utility.yul\":7639:7727   */\n      iszero\n      tag_149\n      jumpi\n        /* \"#utility.yul\":7707:7725   */\n      tag_150\n      tag_128\n      jump\t// in\n    tag_150:\n        /* \"#utility.yul\":7639:7727   */\n    tag_149:\n        /* \"#utility.yul\":7747:7757   */\n      dup1\n        /* \"#utility.yul\":7743:7745   */\n      0x40\n        /* \"#utility.yul\":7736:7758   */\n      mstore\n        /* \"#utility.yul\":7526:7764   */\n      pop\n        /* \"#utility.yul\":7483:7764   */\n      pop\n      pop\n      jump\t// out\n        /* \"#utility.yul\":7770:7950   */\n    tag_128:\n        /* \"#utility.yul\":7818:7895   */\n      0x4e487b7100000000000000000000000000000000000000000000000000000000\n        /* \"#utility.yul\":7815:7816   */\n      0x00\n        /* \"#utility.yul\":7808:7896   */\n      mstore\n        /* \"#utility.yul\":7915:7919   */\n      0x41\n        /* \"#utility.yul\":7912:7913   */\n      0x04\n        /* \"#utility.yul\":7905:7920   */\n      mstore\n        /* \"#utility.yul\":7939:7943   */\n      0x24\n        /* \"#utility.yul\":7936:7937   */\n      0x00\n        /* \"#utility.yul\":7929:7944   */\n      revert\n        /* \"#utility.yul\":7956:8073   */\n    tag_52:\n        /* \"#utility.yul\":8065:8066   */\n      0x00\n        /* \"#utility.yul\":8062:8063   */\n      dup1\n        /* \"#utility.yul\":8055:8067   */\n      revert\n        /* \"#utility.yul\":8079:8196   */\n    tag_41:\n        /* \"#utility.yul\":8188:8189   */\n      0x00\n        /* \"#utility.yul\":8185:8186   */\n      dup1\n        /* \"#utility.yul\":8178:8190   */\n      revert\n        /* \"#utility.yul\":8202:8319   */\n    tag_73:\n        /* \"#utility.yul\":8311:8312   */\n      0x00\n        /* \"#utility.yul\":8308:8309   */\n      dup1\n        /* \"#utility.yul\":8301:8313   */\n      revert\n        /* \"#utility.yul\":8325:8442   */\n    tag_64:\n        /* \"#utility.yul\":8434:8435   */\n      0x00\n        /* \"#utility.yul\":8431:8432   */\n      dup1\n        /* \"#utility.yul\":8424:8436   */\n      revert\n        /* \"#utility.yul\":8448:8550   */\n    tag_99:\n        /* \"#utility.yul\":8489:8495   */\n      0x00\n        /* \"#utility.yul\":8540:8542   */\n      0x1f\n        /* \"#utility.yul\":8536:8543   */\n      not\n        /* \"#utility.yul\":8531:8533   */\n      0x1f\n        /* \"#utility.yul\":8524:8529   */\n      dup4\n        /* \"#utility.yul\":8520:8534   */\n      add\n        /* \"#utility.yul\":8516:8544   */\n      and\n        /* \"#utility.yul\":8506:8544   */\n      swap1\n      pop\n        /* \"#utility.yul\":8448:8550   */\n      swap2\n      swap1\n      pop\n      jump\t// out\n        /* \"#utility.yul\":8556:8670   */\n    tag_104:\n      pop\n      jump\t// out\n        /* \"#utility.yul\":8676:8798   */\n    tag_47:\n        /* \"#utility.yul\":8749:8773   */\n      tag_159\n        /* \"#utility.yul\":8767:8772   */\n      dup2\n        /* \"#utility.yul\":8749:8773   */\n      tag_134\n      jump\t// in\n    tag_159:\n        /* \"#utility.yul\":8742:8747   */\n      dup2\n        /* \"#utility.yul\":8739:8774   */\n      eq\n        /* \"#utility.yul\":8729:8792   */\n      tag_160\n      jumpi\n        /* \"#utility.yul\":8788:8789   */\n      0x00\n        /* \"#utility.yul\":8785:8786   */\n      dup1\n        /* \"#utility.yul\":8778:8790   */\n      revert\n        /* \"#utility.yul\":8729:8792   */\n    tag_160:\n        /* \"#utility.yul\":8676:8798   */\n      pop\n      jump\t// out\n        /* \"#utility.yul\":8804:8926   */\n    tag_57:\n        /* \"#utility.yul\":8877:8901   */\n      tag_162\n        /* \"#utility.yul\":8895:8900   */\n      dup2\n        /* \"#utility.yul\":8877:8901   */\n      tag_108\n      jump\t// in\n    tag_162:\n        /* \"#utility.yul\":8870:8875   */\n      dup2\n        /* \"#utility.yul\":8867:8902   */\n      eq\n        /* \"#utility.yul\":8857:8920   */\n      tag_163\n      jumpi\n        /* \"#utility.yul\":8916:8917   */\n      0x00\n        /* \"#utility.yul\":8913:8914   */\n      dup1\n        /* \"#utility.yul\":8906:8918   */\n      revert\n        /* \"#utility.yul\":8857:8920   */\n    tag_163:\n        /* \"#utility.yul\":8804:8926   */\n      pop\n      jump\t// out\n\n    auxdata: 0xa2646970667358221220cb71cdd7dd1f1cf29b4094a2d11277f9a93e4e23106e4853baacf3d0561a043864736f6c63430008070033\n}\n",
				"bytecode": {
					"linkReferences": {},
					"object": "608060405234801561001057600080fd5b506106d2806100206000396000f3fe6080604052600436106100295760003560e01c806313dcb81b1461002e5780639e4c49051461006c575b600080fd5b34801561003a57600080fd5b5061005560048036038101906100509190610308565b610088565b60405161006392919061047b565b60405180910390f35b610086600480360381019061008191906102db565b6101b2565b005b6000806000808673ffffffffffffffffffffffffffffffffffffffff1686866040516024016100b89291906104a4565b6040516020818303038152906040527fffbab600000000000000000000000000000000000000000000000000000000007bffffffffffffffffffffffffffffffffffffffffffffffffffffffff19166020820180517bffffffffffffffffffffffffffffffffffffffffffffffffffffffff8381831617835250505050604051610142919061044f565b6000604051808303816000865af19150503d806000811461017f576040519150601f19603f3d011682016040523d82523d6000602084013e610184565b606091505b509150915060008180602001905181019061019f9190610377565b9050828194509450505050935093915050565b60008173ffffffffffffffffffffffffffffffffffffffff16346040516101d890610466565b60006040518083038185875af1925050503d8060008114610215576040519150601f19603f3d011682016040523d82523d6000602084013e61021a565b606091505b505090508061022857600080fd5b5050565b600061023f61023a846104f9565b6104d4565b90508281526020810184848401111561025b5761025a61064b565b5b6102668482856105a4565b509392505050565b60008135905061027d8161066e565b92915050565b600082601f83011261029857610297610646565b5b81356102a884826020860161022c565b91505092915050565b6000813590506102c081610685565b92915050565b6000815190506102d581610685565b92915050565b6000602082840312156102f1576102f0610655565b5b60006102ff8482850161026e565b91505092915050565b60008060006060848603121561032157610320610655565b5b600061032f8682870161026e565b9350506020610340868287016102b1565b925050604084013567ffffffffffffffff81111561036157610360610650565b5b61036d86828701610283565b9150509250925092565b60006020828403121561038d5761038c610655565b5b600061039b848285016102c6565b91505092915050565b6103ad8161056e565b82525050565b60006103be8261052a565b6103c88185610540565b93506103d88185602086016105b3565b80840191505092915050565b60006103ef82610535565b6103f9818561054b565b93506104098185602086016105b3565b6104128161065a565b840191505092915050565b600061042a600083610540565b91506104358261066b565b600082019050919050565b6104498161059a565b82525050565b600061045b82846103b3565b915081905092915050565b60006104718261041d565b9150819050919050565b600060408201905061049060008301856103a4565b61049d6020830184610440565b9392505050565b60006040820190506104b96000830185610440565b81810360208301526104cb81846103e4565b90509392505050565b60006104de6104ef565b90506104ea82826105e6565b919050565b6000604051905090565b600067ffffffffffffffff82111561051457610513610617565b5b61051d8261065a565b9050602081019050919050565b600081519050919050565b600081519050919050565b600081905092915050565b600082825260208201905092915050565b60006105678261057a565b9050919050565b60008115159050919050565b600073ffffffffffffffffffffffffffffffffffffffff82169050919050565b6000819050919050565b82818337600083830152505050565b60005b838110156105d15780820151818401526020810190506105b6565b838111156105e0576000848401525b50505050565b6105ef8261065a565b810181811067ffffffffffffffff8211171561060e5761060d610617565b5b80604052505050565b7f4e487b7100000000000000000000000000000000000000000000000000000000600052604160045260246000fd5b600080fd5b600080fd5b600080fd5b600080fd5b6000601f19601f8301169050919050565b50565b6106778161055c565b811461068257600080fd5b50565b61068e8161059a565b811461069957600080fd5b5056fea2646970667358221220cb71cdd7dd1f1cf29b4094a2d11277f9a93e4e23106e4853baacf3d0561a043864736f6c63430008070033",
					"opcodes": "PUSH1 0x80 PUSH1 0x40 MSTORE CALLVALUE DUP1 ISZERO PUSH2 0x10 JUMPI PUSH1 0x0 DUP1 REVERT JUMPDEST POP PUSH2 0x6D2 DUP1 PUSH2 0x20 PUSH1 0x0 CODECOPY PUSH1 0x0 RETURN INVALID PUSH1 0x80 PUSH1 0x40 MSTORE PUSH1 0x4 CALLDATASIZE LT PUSH2 0x29 JUMPI PUSH1 0x0 CALLDATALOAD PUSH1 0xE0 SHR DUP1 PUSH4 0x13DCB81B EQ PUSH2 0x2E JUMPI DUP1 PUSH4 0x9E4C4905 EQ PUSH2 0x6C JUMPI JUMPDEST PUSH1 0x0 DUP1 REVERT JUMPDEST CALLVALUE DUP1 ISZERO PUSH2 0x3A JUMPI PUSH1 0x0 DUP1 REVERT JUMPDEST POP PUSH2 0x55 PUSH1 0x4 DUP1 CALLDATASIZE SUB DUP2 ADD SWAP1 PUSH2 0x50 SWAP2 SWAP1 PUSH2 0x308 JUMP JUMPDEST PUSH2 0x88 JUMP JUMPDEST PUSH1 0x40 MLOAD PUSH2 0x63 SWAP3 SWAP2 SWAP1 PUSH2 0x47B JUMP JUMPDEST PUSH1 0x40 MLOAD DUP1 SWAP2 SUB SWAP1 RETURN JUMPDEST PUSH2 0x86 PUSH1 0x4 DUP1 CALLDATASIZE SUB DUP2 ADD SWAP1 PUSH2 0x81 SWAP2 SWAP1 PUSH2 0x2DB JUMP JUMPDEST PUSH2 0x1B2 JUMP JUMPDEST STOP JUMPDEST PUSH1 0x0 DUP1 PUSH1 0x0 DUP1 DUP7 PUSH20 0xFFFFFFFFFFFFFFFFFFFFFFFFFFFFFFFFFFFFFFFF AND DUP7 DUP7 PUSH1 0x40 MLOAD PUSH1 0x24 ADD PUSH2 0xB8 SWAP3 SWAP2 SWAP1 PUSH2 0x4A4 JUMP JUMPDEST PUSH1 0x40 MLOAD PUSH1 0x20 DUP2 DUP4 SUB SUB DUP2 MSTORE SWAP1 PUSH1 0x40 MSTORE PUSH32 0xFFBAB60000000000000000000000000000000000000000000000000000000000 PUSH28 0xFFFFFFFFFFFFFFFFFFFFFFFFFFFFFFFFFFFFFFFFFFFFFFFFFFFFFFFF NOT AND PUSH1 0x20 DUP3 ADD DUP1 MLOAD PUSH28 0xFFFFFFFFFFFFFFFFFFFFFFFFFFFFFFFFFFFFFFFFFFFFFFFFFFFFFFFF DUP4 DUP2 DUP4 AND OR DUP4 MSTORE POP POP POP POP PUSH1 0x40 MLOAD PUSH2 0x142 SWAP2 SWAP1 PUSH2 0x44F JUMP JUMPDEST PUSH1 0x0 PUSH1 0x40 MLOAD DUP1 DUP4 SUB DUP2 PUSH1 0x0 DUP7 GAS CALL SWAP2 POP POP RETURNDATASIZE DUP1 PUSH1 0x0 DUP2 EQ PUSH2 0x17F JUMPI PUSH1 0x40 MLOAD SWAP2 POP PUSH1 0x1F NOT PUSH1 0x3F RETURNDATASIZE ADD AND DUP3 ADD PUSH1 0x40 MSTORE RETURNDATASIZE DUP3 MSTORE RETURNDATASIZE PUSH1 0x0 PUSH1 0x20 DUP5 ADD RETURNDATACOPY PUSH2 0x184 JUMP JUMPDEST PUSH1 0x60 SWAP2 POP JUMPDEST POP SWAP2 POP SWAP2 POP PUSH1 0x0 DUP2 DUP1 PUSH1 0x20 ADD SWAP1 MLOAD DUP2 ADD SWAP1 PUSH2 0x19F SWAP2 SWAP1 PUSH2 0x377 JUMP JUMPDEST SWAP1 POP DUP3 DUP2 SWAP5 POP SWAP5 POP POP POP POP SWAP4 POP SWAP4 SWAP2 POP POP JUMP JUMPDEST PUSH1 0x0 DUP2 PUSH20 0xFFFFFFFFFFFFFFFFFFFFFFFFFFFFFFFFFFFFFFFF AND CALLVALUE PUSH1 0x40 MLOAD PUSH2 0x1D8 SWAP1 PUSH2 0x466 JUMP JUMPDEST PUSH1 0x0 PUSH1 0x40 MLOAD DUP1 DUP4 SUB DUP2 DUP6 DUP8 GAS CALL SWAP3 POP POP POP RETURNDATASIZE DUP1 PUSH1 0x0 DUP2 EQ PUSH2 0x215 JUMPI PUSH1 0x40 MLOAD SWAP2 POP PUSH1 0x1F NOT PUSH1 0x3F RETURNDATASIZE ADD AND DUP3 ADD PUSH1 0x40 MSTORE RETURNDATASIZE DUP3 MSTORE RETURNDATASIZE PUSH1 0x0 PUSH1 0x20 DUP5 ADD RETURNDATACOPY PUSH2 0x21A JUMP JUMPDEST PUSH1 0x60 SWAP2 POP JUMPDEST POP POP SWAP1 POP DUP1 PUSH2 0x228 JUMPI PUSH1 0x0 DUP1 REVERT JUMPDEST POP POP JUMP JUMPDEST PUSH1 0x0 PUSH2 0x23F PUSH2 0x23A DUP5 PUSH2 0x4F9 JUMP JUMPDEST PUSH2 0x4D4 JUMP JUMPDEST SWAP1 POP DUP3 DUP2 MSTORE PUSH1 0x20 DUP2 ADD DUP5 DUP5 DUP5 ADD GT ISZERO PUSH2 0x25B JUMPI PUSH2 0x25A PUSH2 0x64B JUMP JUMPDEST JUMPDEST PUSH2 0x266 DUP5 DUP3 DUP6 PUSH2 0x5A4 JUMP JUMPDEST POP SWAP4 SWAP3 POP POP POP JUMP JUMPDEST PUSH1 0x0 DUP2 CALLDATALOAD SWAP1 POP PUSH2 0x27D DUP2 PUSH2 0x66E JUMP JUMPDEST SWAP3 SWAP2 POP POP JUMP JUMPDEST PUSH1 0x0 DUP3 PUSH1 0x1F DUP4 ADD SLT PUSH2 0x298 JUMPI PUSH2 0x297 PUSH2 0x646 JUMP JUMPDEST JUMPDEST DUP2 CALLDATALOAD PUSH2 0x2A8 DUP5 DUP3 PUSH1 0x20 DUP7 ADD PUSH2 0x22C JUMP JUMPDEST SWAP2 POP POP SWAP3 SWAP2 POP POP JUMP JUMPDEST PUSH1 0x0 DUP2 CALLDATALOAD SWAP1 POP PUSH2 0x2C0 DUP2 PUSH2 0x685 JUMP JUMPDEST SWAP3 SWAP2 POP POP JUMP JUMPDEST PUSH1 0x0 DUP2 MLOAD SWAP1 POP PUSH2 0x2D5 DUP2 PUSH2 0x685 JUMP JUMPDEST SWAP3 SWAP2 POP POP JUMP JUMPDEST PUSH1 0x0 PUSH1 0x20 DUP3 DUP5 SUB SLT ISZERO PUSH2 0x2F1 JUMPI PUSH2 0x2F0 PUSH2 0x655 JUMP JUMPDEST JUMPDEST PUSH1 0x0 PUSH2 0x2FF DUP5 DUP3 DUP6 ADD PUSH2 0x26E JUMP JUMPDEST SWAP2 POP POP SWAP3 SWAP2 POP POP JUMP JUMPDEST PUSH1 0x0 DUP1 PUSH1 0x0 PUSH1 0x60 DUP5 DUP7 SUB SLT ISZERO PUSH2 0x321 JUMPI PUSH2 0x320 PUSH2 0x655 JUMP JUMPDEST JUMPDEST PUSH1 0x0 PUSH2 0x32F DUP7 DUP3 DUP8 ADD PUSH2 0x26E JUMP JUMPDEST SWAP4 POP POP PUSH1 0x20 PUSH2 0x340 DUP7 DUP3 DUP8 ADD PUSH2 0x2B1 JUMP JUMPDEST SWAP3 POP POP PUSH1 0x40 DUP5 ADD CALLDATALOAD PUSH8 0xFFFFFFFFFFFFFFFF DUP2 GT ISZERO PUSH2 0x361 JUMPI PUSH2 0x360 PUSH2 0x650 JUMP JUMPDEST JUMPDEST PUSH2 0x36D DUP7 DUP3 DUP8 ADD PUSH2 0x283 JUMP JUMPDEST SWAP2 POP POP SWAP3 POP SWAP3 POP SWAP3 JUMP JUMPDEST PUSH1 0x0 PUSH1 0x20 DUP3 DUP5 SUB SLT ISZERO PUSH2 0x38D JUMPI PUSH2 0x38C PUSH2 0x655 JUMP JUMPDEST JUMPDEST PUSH1 0x0 PUSH2 0x39B DUP5 DUP3 DUP6 ADD PUSH2 0x2C6 JUMP JUMPDEST SWAP2 POP POP SWAP3 SWAP2 POP POP JUMP JUMPDEST PUSH2 0x3AD DUP2 PUSH2 0x56E JUMP JUMPDEST DUP3 MSTORE POP POP JUMP JUMPDEST PUSH1 0x0 PUSH2 0x3BE DUP3 PUSH2 0x52A JUMP JUMPDEST PUSH2 0x3C8 DUP2 DUP6 PUSH2 0x540 JUMP JUMPDEST SWAP4 POP PUSH2 0x3D8 DUP2 DUP6 PUSH1 0x20 DUP7 ADD PUSH2 0x5B3 JUMP JUMPDEST DUP1 DUP5 ADD SWAP2 POP POP SWAP3 SWAP2 POP POP JUMP JUMPDEST PUSH1 0x0 PUSH2 0x3EF DUP3 PUSH2 0x535 JUMP JUMPDEST PUSH2 0x3F9 DUP2 DUP6 PUSH2 0x54B JUMP JUMPDEST SWAP4 POP PUSH2 0x409 DUP2 DUP6 PUSH1 0x20 DUP7 ADD PUSH2 0x5B3 JUMP JUMPDEST PUSH2 0x412 DUP2 PUSH2 0x65A JUMP JUMPDEST DUP5 ADD SWAP2 POP POP SWAP3 SWAP2 POP POP JUMP JUMPDEST PUSH1 0x0 PUSH2 0x42A PUSH1 0x0 DUP4 PUSH2 0x540 JUMP JUMPDEST SWAP2 POP PUSH2 0x435 DUP3 PUSH2 0x66B JUMP JUMPDEST PUSH1 0x0 DUP3 ADD SWAP1 POP SWAP2 SWAP1 POP JUMP JUMPDEST PUSH2 0x449 DUP2 PUSH2 0x59A JUMP JUMPDEST DUP3 MSTORE POP POP JUMP JUMPDEST PUSH1 0x0 PUSH2 0x45B DUP3 DUP5 PUSH2 0x3B3 JUMP JUMPDEST SWAP2 POP DUP2 SWAP1 POP SWAP3 SWAP2 POP POP JUMP JUMPDEST PUSH1 0x0 PUSH2 0x471 DUP3 PUSH2 0x41D JUMP JUMPDEST SWAP2 POP DUP2 SWAP1 POP SWAP2 SWAP1 POP JUMP JUMPDEST PUSH1 0x0 PUSH1 0x40 DUP3 ADD SWAP1 POP PUSH2 0x490 PUSH1 0x0 DUP4 ADD DUP6 PUSH2 0x3A4 JUMP JUMPDEST PUSH2 0x49D PUSH1 0x20 DUP4 ADD DUP5 PUSH2 0x440 JUMP JUMPDEST SWAP4 SWAP3 POP POP POP JUMP JUMPDEST PUSH1 0x0 PUSH1 0x40 DUP3 ADD SWAP1 POP PUSH2 0x4B9 PUSH1 0x0 DUP4 ADD DUP6 PUSH2 0x440 JUMP JUMPDEST DUP2 DUP2 SUB PUSH1 0x20 DUP4 ADD MSTORE PUSH2 0x4CB DUP2 DUP5 PUSH2 0x3E4 JUMP JUMPDEST SWAP1 POP SWAP4 SWAP3 POP POP POP JUMP JUMPDEST PUSH1 0x0 PUSH2 0x4DE PUSH2 0x4EF JUMP JUMPDEST SWAP1 POP PUSH2 0x4EA DUP3 DUP3 PUSH2 0x5E6 JUMP JUMPDEST SWAP2 SWAP1 POP JUMP JUMPDEST PUSH1 0x0 PUSH1 0x40 MLOAD SWAP1 POP SWAP1 JUMP JUMPDEST PUSH1 0x0 PUSH8 0xFFFFFFFFFFFFFFFF DUP3 GT ISZERO PUSH2 0x514 JUMPI PUSH2 0x513 PUSH2 0x617 JUMP JUMPDEST JUMPDEST PUSH2 0x51D DUP3 PUSH2 0x65A JUMP JUMPDEST SWAP1 POP PUSH1 0x20 DUP2 ADD SWAP1 POP SWAP2 SWAP1 POP JUMP JUMPDEST PUSH1 0x0 DUP2 MLOAD SWAP1 POP SWAP2 SWAP1 POP JUMP JUMPDEST PUSH1 0x0 DUP2 MLOAD SWAP1 POP SWAP2 SWAP1 POP JUMP JUMPDEST PUSH1 0x0 DUP2 SWAP1 POP SWAP3 SWAP2 POP POP JUMP JUMPDEST PUSH1 0x0 DUP3 DUP3 MSTORE PUSH1 0x20 DUP3 ADD SWAP1 POP SWAP3 SWAP2 POP POP JUMP JUMPDEST PUSH1 0x0 PUSH2 0x567 DUP3 PUSH2 0x57A JUMP JUMPDEST SWAP1 POP SWAP2 SWAP1 POP JUMP JUMPDEST PUSH1 0x0 DUP2 ISZERO ISZERO SWAP1 POP SWAP2 SWAP1 POP JUMP JUMPDEST PUSH1 0x0 PUSH20 0xFFFFFFFFFFFFFFFFFFFFFFFFFFFFFFFFFFFFFFFF DUP3 AND SWAP1 POP SWAP2 SWAP1 POP JUMP JUMPDEST PUSH1 0x0 DUP2 SWAP1 POP SWAP2 SWAP1 POP JUMP JUMPDEST DUP3 DUP2 DUP4 CALLDATACOPY PUSH1 0x0 DUP4 DUP4 ADD MSTORE POP POP POP JUMP JUMPDEST PUSH1 0x0 JUMPDEST DUP4 DUP2 LT ISZERO PUSH2 0x5D1 JUMPI DUP1 DUP3 ADD MLOAD DUP2 DUP5 ADD MSTORE PUSH1 0x20 DUP2 ADD SWAP1 POP PUSH2 0x5B6 JUMP JUMPDEST DUP4 DUP2 GT ISZERO PUSH2 0x5E0 JUMPI PUSH1 0x0 DUP5 DUP5 ADD MSTORE JUMPDEST POP POP POP POP JUMP JUMPDEST PUSH2 0x5EF DUP3 PUSH2 0x65A JUMP JUMPDEST DUP2 ADD DUP2 DUP2 LT PUSH8 0xFFFFFFFFFFFFFFFF DUP3 GT OR ISZERO PUSH2 0x60E JUMPI PUSH2 0x60D PUSH2 0x617 JUMP JUMPDEST JUMPDEST DUP1 PUSH1 0x40 MSTORE POP POP POP JUMP JUMPDEST PUSH32 0x4E487B7100000000000000000000000000000000000000000000000000000000 PUSH1 0x0 MSTORE PUSH1 0x41 PUSH1 0x4 MSTORE PUSH1 0x24 PUSH1 0x0 REVERT JUMPDEST PUSH1 0x0 DUP1 REVERT JUMPDEST PUSH1 0x0 DUP1 REVERT JUMPDEST PUSH1 0x0 DUP1 REVERT JUMPDEST PUSH1 0x0 DUP1 REVERT JUMPDEST PUSH1 0x0 PUSH1 0x1F NOT PUSH1 0x1F DUP4 ADD AND SWAP1 POP SWAP2 SWAP1 POP JUMP JUMPDEST POP JUMP JUMPDEST PUSH2 0x677 DUP2 PUSH2 0x55C JUMP JUMPDEST DUP2 EQ PUSH2 0x682 JUMPI PUSH1 0x0 DUP1 REVERT JUMPDEST POP JUMP JUMPDEST PUSH2 0x68E DUP2 PUSH2 0x59A JUMP JUMPDEST DUP2 EQ PUSH2 0x699 JUMPI PUSH1 0x0 DUP1 REVERT JUMPDEST POP JUMP INVALID LOG2 PUSH5 0x6970667358 0x22 SLT KECCAK256 0xCB PUSH18 0xCDD7DD1F1CF29B4094A2D11277F9A93E4E23 LT PUSH15 0x4853BAACF3D0561A043864736F6C63 NUMBER STOP ADDMOD SMOD STOP CALLER "
				},
				"gasEstimates": {
					"creation": {
						"codeDepositCost": "349200",
						"executionCost": "386",
						"totalCost": "349586"
					},
					"external": {
						"payToFallback(address)": "infinite",
						"testCall(address,uint256,string)": "infinite"
					}
				},
				"methodIdentifiers": {
					"payToFallback(address)": "9e4c4905",
					"testCall(address,uint256,string)": "13dcb81b"
				}
			},
			"storageLayout": {
				"storage": [],
				"types": null
			},
			"userdoc": {
				"kind": "user",
				"methods": {},
				"version": 1
			}
		}
	}
}