{
	"data": {
		"bytecode": {
			"linkReferences": {},
			"object": "61052d610053600b82828239805160001a607314610046577f4e487b7100000000000000000000000000000000000000000000000000000000600052600060045260246000fd5b30600052607381538281f3fe730000000000000000000000000000000000000000301460806040526004361061006c5760003560e01c80635171762c1461007157806366098d4f146100a15780636d5433e6146100d15780637ae2b5c714610101578063f4f3bdc114610131578063f88e9fbf14610161575b600080fd5b61008b60048036038101906100869190610277565b610191565b6040516100989190610309565b60405180910390f35b6100bb60048036038101906100b69190610277565b6101a7565b6040516100c89190610309565b60405180910390f35b6100eb60048036038101906100e69190610277565b6101bd565b6040516100f89190610309565b60405180910390f35b61011b60048036038101906101169190610277565b6101d8565b6040516101289190610309565b60405180910390f35b61014b60048036038101906101469190610277565b6101f3565b6040516101589190610309565b60405180910390f35b61017b60048036038101906101769190610277565b610209565b6040516101889190610309565b60405180910390f35b6000818361019f91906103bc565b905092915050565b600081836101b59190610335565b905092915050565b60008183106101ce578290506101d2565b8190505b92915050565b60008183116101e9578290506101ed565b8190505b92915050565b600081836102019190610416565b905092915050565b60008082141561024e576040517f08c379a0000000000000000000000000000000000000000000000000000000008152600401610245906102e9565b60405180910390fd5b818361025a919061038b565b905092915050565b600081359050610271816104e0565b92915050565b6000806040838503121561028e5761028d6104b2565b5b600061029c85828601610262565b92505060206102ad85828601610262565b9150509250929050565b60006102c4601583610324565b91506102cf826104b7565b602082019050919050565b6102e38161044a565b82525050565b60006020820190508181036000830152610302816102b7565b9050919050565b600060208201905061031e60008301846102da565b92915050565b600082825260208201905092915050565b60006103408261044a565b915061034b8361044a565b9250827fffffffffffffffffffffffffffffffffffffffffffffffffffffffffffffffff038211156103805761037f610454565b5b828201905092915050565b60006103968261044a565b91506103a18361044a565b9250826103b1576103b0610483565b5b828204905092915050565b60006103c78261044a565b91506103d28361044a565b9250817fffffffffffffffffffffffffffffffffffffffffffffffffffffffffffffffff048311821515161561040b5761040a610454565b5b828202905092915050565b60006104218261044a565b915061042c8361044a565b92508282101561043f5761043e610454565b5b828203905092915050565b6000819050919050565b7f4e487b7100000000000000000000000000000000000000000000000000000000600052601160045260246000fd5b7f4e487b7100000000000000000000000000000000000000000000000000000000600052601260045260246000fd5b600080fd5b7f62752073617969736920626567656e6d6564696d210000000000000000000000600082015250565b6104e98161044a565b81146104f457600080fd5b5056fea26469706673582212205f05977354b6ce3816f62198892502679114d20b5dd0ad53a4fd8da30df530d364736f6c63430008070033",
			"opcodes": "PUSH2 0x52D PUSH2 0x53 PUSH1 0xB DUP3 DUP3 DUP3 CODECOPY DUP1 MLOAD PUSH1 0x0 BYTE PUSH1 0x73 EQ PUSH2 0x46 JUMPI PUSH32 0x4E487B7100000000000000000000000000000000000000000000000000000000 PUSH1 0x0 MSTORE PUSH1 0x0 PUSH1 0x4 MSTORE PUSH1 0x24 PUSH1 0x0 REVERT JUMPDEST ADDRESS PUSH1 0x0 MSTORE PUSH1 0x73 DUP2 MSTORE8 DUP3 DUP2 RETURN INVALID PUSH20 0x0 ADDRESS EQ PUSH1 0x80 PUSH1 0x40 MSTORE PUSH1 0x4 CALLDATASIZE LT PUSH2 0x6C JUMPI PUSH1 0x0 CALLDATALOAD PUSH1 0xE0 SHR DUP1 PUSH4 0x5171762C EQ PUSH2 0x71 JUMPI DUP1 PUSH4 0x66098D4F EQ PUSH2 0xA1 JUMPI DUP1 PUSH4 0x6D5433E6 EQ PUSH2 0xD1 JUMPI DUP1 PUSH4 0x7AE2B5C7 EQ PUSH2 0x101 JUMPI DUP1 PUSH4 0xF4F3BDC1 EQ PUSH2 0x131 JUMPI DUP1 PUSH4 0xF88E9FBF EQ PUSH2 0x161 JUMPI JUMPDEST PUSH1 0x0 DUP1 REVERT JUMPDEST PUSH2 0x8B PUSH1 0x4 DUP1 CALLDATASIZE SUB DUP2 ADD SWAP1 PUSH2 0x86 SWAP2 SWAP1 PUSH2 0x277 JUMP JUMPDEST PUSH2 0x191 JUMP JUMPDEST PUSH1 0x40 MLOAD PUSH2 0x98 SWAP2 SWAP1 PUSH2 0x309 JUMP JUMPDEST PUSH1 0x40 MLOAD DUP1 SWAP2 SUB SWAP1 RETURN JUMPDEST PUSH2 0xBB PUSH1 0x4 DUP1 CALLDATASIZE SUB DUP2 ADD SWAP1 PUSH2 0xB6 SWAP2 SWAP1 PUSH2 0x277 JUMP JUMPDEST PUSH2 0x1A7 JUMP JUMPDEST PUSH1 0x40 MLOAD PUSH2 0xC8 SWAP2 SWAP1 PUSH2 0x309 JUMP JUMPDEST PUSH1 0x40 MLOAD DUP1 SWAP2 SUB SWAP1 RETURN JUMPDEST PUSH2 0xEB PUSH1 0x4 DUP1 CALLDATASIZE SUB DUP2 ADD SWAP1 PUSH2 0xE6 SWAP2 SWAP1 PUSH2 0x277 JUMP JUMPDEST PUSH2 0x1BD JUMP JUMPDEST PUSH1 0x40 MLOAD PUSH2 0xF8 SWAP2 SWAP1 PUSH2 0x309 JUMP JUMPDEST PUSH1 0x40 MLOAD DUP1 SWAP2 SUB SWAP1 RETURN JUMPDEST PUSH2 0x11B PUSH1 0x4 DUP1 CALLDATASIZE SUB DUP2 ADD SWAP1 PUSH2 0x116 SWAP2 SWAP1 PUSH2 0x277 JUMP JUMPDEST PUSH2 0x1D8 JUMP JUMPDEST PUSH1 0x40 MLOAD PUSH2 0x128 SWAP2 SWAP1 PUSH2 0x309 JUMP JUMPDEST PUSH1 0x40 MLOAD DUP1 SWAP2 SUB SWAP1 RETURN JUMPDEST PUSH2 0x14B PUSH1 0x4 DUP1 CALLDATASIZE SUB DUP2 ADD SWAP1 PUSH2 0x146 SWAP2 SWAP1 PUSH2 0x277 JUMP JUMPDEST PUSH2 0x1F3 JUMP JUMPDEST PUSH1 0x40 MLOAD PUSH2 0x158 SWAP2 SWAP1 PUSH2 0x309 JUMP JUMPDEST PUSH1 0x40 MLOAD DUP1 SWAP2 SUB SWAP1 RETURN JUMPDEST PUSH2 0x17B PUSH1 0x4 DUP1 CALLDATASIZE SUB DUP2 ADD SWAP1 PUSH2 0x176 SWAP2 SWAP1 PUSH2 0x277 JUMP JUMPDEST PUSH2 0x209 JUMP JUMPDEST PUSH1 0x40 MLOAD PUSH2 0x188 SWAP2 SWAP1 PUSH2 0x309 JUMP JUMPDEST PUSH1 0x40 MLOAD DUP1 SWAP2 SUB SWAP1 RETURN JUMPDEST PUSH1 0x0 DUP2 DUP4 PUSH2 0x19F SWAP2 SWAP1 PUSH2 0x3BC JUMP JUMPDEST SWAP1 POP SWAP3 SWAP2 POP POP JUMP JUMPDEST PUSH1 0x0 DUP2 DUP4 PUSH2 0x1B5 SWAP2 SWAP1 PUSH2 0x335 JUMP JUMPDEST SWAP1 POP SWAP3 SWAP2 POP POP JUMP JUMPDEST PUSH1 0x0 DUP2 DUP4 LT PUSH2 0x1CE JUMPI DUP3 SWAP1 POP PUSH2 0x1D2 JUMP JUMPDEST DUP2 SWAP1 POP JUMPDEST SWAP3 SWAP2 POP POP JUMP JUMPDEST PUSH1 0x0 DUP2 DUP4 GT PUSH2 0x1E9 JUMPI DUP3 SWAP1 POP PUSH2 0x1ED JUMP JUMPDEST DUP2 SWAP1 POP JUMPDEST SWAP3 SWAP2 POP POP JUMP JUMPDEST PUSH1 0x0 DUP2 DUP4 PUSH2 0x201 SWAP2 SWAP1 PUSH2 0x416 JUMP JUMPDEST SWAP1 POP SWAP3 SWAP2 POP POP JUMP JUMPDEST PUSH1 0x0 DUP1 DUP3 EQ ISZERO PUSH2 0x24E JUMPI PUSH1 0x40 MLOAD PUSH32 0x8C379A000000000000000000000000000000000000000000000000000000000 DUP2 MSTORE PUSH1 0x4 ADD PUSH2 0x245 SWAP1 PUSH2 0x2E9 JUMP JUMPDEST PUSH1 0x40 MLOAD DUP1 SWAP2 SUB SWAP1 REVERT JUMPDEST DUP2 DUP4 PUSH2 0x25A SWAP2 SWAP1 PUSH2 0x38B JUMP JUMPDEST SWAP1 POP SWAP3 SWAP2 POP POP JUMP JUMPDEST PUSH1 0x0 DUP2 CALLDATALOAD SWAP1 POP PUSH2 0x271 DUP2 PUSH2 0x4E0 JUMP JUMPDEST SWAP3 SWAP2 POP POP JUMP JUMPDEST PUSH1 0x0 DUP1 PUSH1 0x40 DUP4 DUP6 SUB SLT ISZERO PUSH2 0x28E JUMPI PUSH2 0x28D PUSH2 0x4B2 JUMP JUMPDEST JUMPDEST PUSH1 0x0 PUSH2 0x29C DUP6 DUP3 DUP7 ADD PUSH2 0x262 JUMP JUMPDEST SWAP3 POP POP PUSH1 0x20 PUSH2 0x2AD DUP6 DUP3 DUP7 ADD PUSH2 0x262 JUMP JUMPDEST SWAP2 POP POP SWAP3 POP SWAP3 SWAP1 POP JUMP JUMPDEST PUSH1 0x0 PUSH2 0x2C4 PUSH1 0x15 DUP4 PUSH2 0x324 JUMP JUMPDEST SWAP2 POP PUSH2 0x2CF DUP3 PUSH2 0x4B7 JUMP JUMPDEST PUSH1 0x20 DUP3 ADD SWAP1 POP SWAP2 SWAP1 POP JUMP JUMPDEST PUSH2 0x2E3 DUP2 PUSH2 0x44A JUMP JUMPDEST DUP3 MSTORE POP POP JUMP JUMPDEST PUSH1 0x0 PUSH1 0x20 DUP3 ADD SWAP1 POP DUP2 DUP2 SUB PUSH1 0x0 DUP4 ADD MSTORE PUSH2 0x302 DUP2 PUSH2 0x2B7 JUMP JUMPDEST SWAP1 POP SWAP2 SWAP1 POP JUMP JUMPDEST PUSH1 0x0 PUSH1 0x20 DUP3 ADD SWAP1 POP PUSH2 0x31E PUSH1 0x0 DUP4 ADD DUP5 PUSH2 0x2DA JUMP JUMPDEST SWAP3 SWAP2 POP POP JUMP JUMPDEST PUSH1 0x0 DUP3 DUP3 MSTORE PUSH1 0x20 DUP3 ADD SWAP1 POP SWAP3 SWAP2 POP POP JUMP JUMPDEST PUSH1 0x0 PUSH2 0x340 DUP3 PUSH2 0x44A JUMP JUMPDEST SWAP2 POP PUSH2 0x34B DUP4 PUSH2 0x44A JUMP JUMPDEST SWAP3 POP DUP3 PUSH32 0xFFFFFFFFFFFFFFFFFFFFFFFFFFFFFFFFFFFFFFFFFFFFFFFFFFFFFFFFFFFFFFFF SUB DUP3 GT ISZERO PUSH2 0x380 JUMPI PUSH2 0x37F PUSH2 0x454 JUMP JUMPDEST JUMPDEST DUP3 DUP3 ADD SWAP1 POP SWAP3 SWAP2 POP POP JUMP JUMPDEST PUSH1 0x0 PUSH2 0x396 DUP3 PUSH2 0x44A JUMP JUMPDEST SWAP2 POP PUSH2 0x3A1 DUP4 PUSH2 0x44A JUMP JUMPDEST SWAP3 POP DUP3 PUSH2 0x3B1 JUMPI PUSH2 0x3B0 PUSH2 0x483 JUMP JUMPDEST JUMPDEST DUP3 DUP3 DIV SWAP1 POP SWAP3 SWAP2 POP POP JUMP JUMPDEST PUSH1 0x0 PUSH2 0x3C7 DUP3 PUSH2 0x44A JUMP JUMPDEST SWAP2 POP PUSH2 0x3D2 DUP4 PUSH2 0x44A JUMP JUMPDEST SWAP3 POP DUP2 PUSH32 0xFFFFFFFFFFFFFFFFFFFFFFFFFFFFFFFFFFFFFFFFFFFFFFFFFFFFFFFFFFFFFFFF DIV DUP4 GT DUP3 ISZERO ISZERO AND ISZERO PUSH2 0x40B JUMPI PUSH2 0x40A PUSH2 0x454 JUMP JUMPDEST JUMPDEST DUP3 DUP3 MUL SWAP1 POP SWAP3 SWAP2 POP POP JUMP JUMPDEST PUSH1 0x0 PUSH2 0x421 DUP3 PUSH2 0x44A JUMP JUMPDEST SWAP2 POP PUSH2 0x42C DUP4 PUSH2 0x44A JUMP JUMPDEST SWAP3 POP DUP3 DUP3 LT ISZERO PUSH2 0x43F JUMPI PUSH2 0x43E PUSH2 0x454 JUMP JUMPDEST JUMPDEST DUP3 DUP3 SUB SWAP1 POP SWAP3 SWAP2 POP POP JUMP JUMPDEST PUSH1 0x0 DUP2 SWAP1 POP SWAP2 SWAP1 POP JUMP JUMPDEST PUSH32 0x4E487B7100000000000000000000000000000000000000000000000000000000 PUSH1 0x0 MSTORE PUSH1 0x11 PUSH1 0x4 MSTORE PUSH1 0x24 PUSH1 0x0 REVERT JUMPDEST PUSH32 0x4E487B7100000000000000000000000000000000000000000000000000000000 PUSH1 0x0 MSTORE PUSH1 0x12 PUSH1 0x4 MSTORE PUSH1 0x24 PUSH1 0x0 REVERT JUMPDEST PUSH1 0x0 DUP1 REVERT JUMPDEST PUSH32 0x62752073617969736920626567656E6D6564696D210000000000000000000000 PUSH1 0x0 DUP3 ADD MSTORE POP JUMP JUMPDEST PUSH2 0x4E9 DUP2 PUSH2 0x44A JUMP JUMPDEST DUP2 EQ PUSH2 0x4F4 JUMPI PUSH1 0x0 DUP1 REVERT JUMPDEST POP JUMP INVALID LOG2 PUSH5 0x6970667358 0x22 SLT KECCAK256 0x5F SDIV SWAP8 PUSH20 0x54B6CE3816F62198892502679114D20B5DD0AD53 LOG4 REVERT DUP14 LOG3 0xD CREATE2 ADDRESS 0xD3 PUSH5 0x736F6C6343 STOP ADDMOD SMOD STOP CALLER "
		},
		"gasEstimates": {
			"creation": {
				"codeDepositCost": "265000",
				"executionCost": "331",
				"totalCost": "265331"
			},
			"external": {
				"divide(uint256,uint256)": "infinite",
				"max(uint256,uint256)": "infinite",
				"min(uint256,uint256)": "infinite",
				"minus(uint256,uint256)": "infinite",
				"multi(uint256,uint256)": "infinite",
				"plus(uint256,uint256)": "infinite"
			}
		},
		"methodIdentifiers": {
			"divide(uint256,uint256)": "f88e9fbf",
			"max(uint256,uint256)": "6d5433e6",
			"min(uint256,uint256)": "7ae2b5c7",
			"minus(uint256,uint256)": "f4f3bdc1",
			"multi(uint256,uint256)": "5171762c",
			"plus(uint256,uint256)": "66098d4f"
		}
	},
	"abi": [
		{
			"inputs": [
				{
					"internalType": "uint256",
					"name": "x",
					"type": "uint256"
				},
				{
					"internalType": "uint256",
					"name": "y",
					"type": "uint256"
				}
			],
			"name": "divide",
			"outputs": [
				{
					"internalType": "uint256",
					"name": "",
					"type": "uint256"
				}
			],
			"stateMutability": "pure",
			"type": "function"
		},
		{
			"inputs": [
				{
					"internalType": "uint256",
					"name": "x",
					"type": "uint256"
				},
				{
					"internalType": "uint256",
					"name": "y",
					"type": "uint256"
				}
			],
			"name": "max",
			"outputs": [
				{
					"internalType": "uint256",
					"name": "",
					"type": "uint256"
				}
			],
			"stateMutability": "pure",
			"type": "function"
		},
		{
			"inputs": [
				{
					"internalType": "uint256",
					"name": "x",
					"type": "uint256"
				},
				{
					"internalType": "uint256",
					"name": "y",
					"type": "uint256"
				}
			],
			"name": "min",
			"outputs": [
				{
					"internalType": "uint256",
					"name": "",
					"type": "uint256"
				}
			],
			"stateMutability": "pure",
			"type": "function"
		},
		{
			"inputs": [
				{
					"internalType": "uint256",
					"name": "x",
					"type": "uint256"
				},
				{
					"internalType": "uint256",
					"name": "y",
					"type": "uint256"
				}
			],
			"name": "minus",
			"outputs": [
				{
					"internalType": "uint256",
					"name": "",
					"type": "uint256"
				}
			],
			"stateMutability": "pure",
			"type": "function"
		},
		{
			"inputs": [
				{
					"internalType": "uint256",
					"name": "x",
					"type": "uint256"
				},
				{
					"internalType": "uint256",
					"name": "y",
					"type": "uint256"
				}
			],
			"name": "multi",
			"outputs": [
				{
					"internalType": "uint256",
					"name": "",
					"type": "uint256"
				}
			],
			"stateMutability": "pure",
			"type": "function"
		},
		{
			"inputs": [
				{
					"internalType": "uint256",
					"name": "x",
					"type": "uint256"
				},
				{
					"internalType": "uint256",
					"name": "y",
					"type": "uint256"
				}
			],
			"name": "plus",
			"outputs": [
				{
					"internalType": "uint256",
					"name": "",
					"type": "uint256"
				}
			],
			"stateMutability": "pure",
			"type": "function"
		}
	]
}