{
	"data": {
		"bytecode": {
			"linkReferences": {},
			"object": "608060405234801561001057600080fd5b50610540806100206000396000f3fe6080604052600436106100225760003560e01c806324ccab8f1461005e57610023565b5b7f59e04c3f0d44b7caf6e8ef854b61d9a51cf1960d7a88ff6356cc5e946b4b58323334604051610054929190610279565b60405180910390a1005b61007860048036038101906100739190610165565b61008e565b60405161008591906102b5565b60405180910390f35b60007f59e04c3f0d44b7caf6e8ef854b61d9a51cf1960d7a88ff6356cc5e946b4b58323334856040516100c39392919061023b565b60405180910390a16001826100d89190610342565b905092915050565b60006100f36100ee846102f5565b6102d0565b90508281526020810184848401111561010f5761010e6104aa565b5b61011a8482856103d4565b509392505050565b600082601f830112610137576101366104a5565b5b81356101478482602086016100e0565b91505092915050565b60008135905061015f816104f3565b92915050565b6000806040838503121561017c5761017b6104b4565b5b600083013567ffffffffffffffff81111561019a576101996104af565b5b6101a685828601610122565b92505060206101b785828601610150565b9150509250929050565b6101ca81610398565b82525050565b60006101db82610326565b6101e58185610331565b93506101f58185602086016103e3565b6101fe816104b9565b840191505092915050565b6000610216601383610331565b9150610221826104ca565b602082019050919050565b610235816103ca565b82525050565b600060608201905061025060008301866101c1565b61025d602083018561022c565b818103604083015261026f81846101d0565b9050949350505050565b600060608201905061028e60008301856101c1565b61029b602083018461022c565b81810360408301526102ac81610209565b90509392505050565b60006020820190506102ca600083018461022c565b92915050565b60006102da6102eb565b90506102e68282610416565b919050565b6000604051905090565b600067ffffffffffffffff8211156103105761030f610476565b5b610319826104b9565b9050602081019050919050565b600081519050919050565b600082825260208201905092915050565b600061034d826103ca565b9150610358836103ca565b9250827fffffffffffffffffffffffffffffffffffffffffffffffffffffffffffffffff0382111561038d5761038c610447565b5b828201905092915050565b60006103a3826103aa565b9050919050565b600073ffffffffffffffffffffffffffffffffffffffff82169050919050565b6000819050919050565b82818337600083830152505050565b60005b838110156104015780820151818401526020810190506103e6565b83811115610410576000848401525b50505050565b61041f826104b9565b810181811067ffffffffffffffff8211171561043e5761043d610476565b5b80604052505050565b7f4e487b7100000000000000000000000000000000000000000000000000000000600052601160045260246000fd5b7f4e487b7100000000000000000000000000000000000000000000000000000000600052604160045260246000fd5b600080fd5b600080fd5b600080fd5b600080fd5b6000601f19601f8301169050919050565b7f46616c6c6261636b207761732063616c6c656400000000000000000000000000600082015250565b6104fc816103ca565b811461050757600080fd5b5056fea2646970667358221220e5f16365d4b2282c447d494ff98364a794a7dfe6ce50ccea3817780be0678ccd64736f6c63430008070033",
			"opcodes": "PUSH1 0x80 PUSH1 0x40 MSTORE CALLVALUE DUP1 ISZERO PUSH2 0x10 JUMPI PUSH1 0x0 DUP1 REVERT JUMPDEST POP PUSH2 0x540 DUP1 PUSH2 0x20 PUSH1 0x0 CODECOPY PUSH1 0x0 RETURN INVALID PUSH1 0x80 PUSH1 0x40 MSTORE PUSH1 0x4 CALLDATASIZE LT PUSH2 0x22 JUMPI PUSH1 0x0 CALLDATALOAD PUSH1 0xE0 SHR DUP1 PUSH4 0x24CCAB8F EQ PUSH2 0x5E JUMPI PUSH2 0x23 JUMP JUMPDEST JUMPDEST PUSH32 0x59E04C3F0D44B7CAF6E8EF854B61D9A51CF1960D7A88FF6356CC5E946B4B5832 CALLER CALLVALUE PUSH1 0x40 MLOAD PUSH2 0x54 SWAP3 SWAP2 SWAP1 PUSH2 0x279 JUMP JUMPDEST PUSH1 0x40 MLOAD DUP1 SWAP2 SUB SWAP1 LOG1 STOP JUMPDEST PUSH2 0x78 PUSH1 0x4 DUP1 CALLDATASIZE SUB DUP2 ADD SWAP1 PUSH2 0x73 SWAP2 SWAP1 PUSH2 0x165 JUMP JUMPDEST PUSH2 0x8E JUMP JUMPDEST PUSH1 0x40 MLOAD PUSH2 0x85 SWAP2 SWAP1 PUSH2 0x2B5 JUMP JUMPDEST PUSH1 0x40 MLOAD DUP1 SWAP2 SUB SWAP1 RETURN JUMPDEST PUSH1 0x0 PUSH32 0x59E04C3F0D44B7CAF6E8EF854B61D9A51CF1960D7A88FF6356CC5E946B4B5832 CALLER CALLVALUE DUP6 PUSH1 0x40 MLOAD PUSH2 0xC3 SWAP4 SWAP3 SWAP2 SWAP1 PUSH2 0x23B JUMP JUMPDEST PUSH1 0x40 MLOAD DUP1 SWAP2 SUB SWAP1 LOG1 PUSH1 0x1 DUP3 PUSH2 0xD8 SWAP2 SWAP1 PUSH2 0x342 JUMP JUMPDEST SWAP1 POP SWAP3 SWAP2 POP POP JUMP JUMPDEST PUSH1 0x0 PUSH2 0xF3 PUSH2 0xEE DUP5 PUSH2 0x2F5 JUMP JUMPDEST PUSH2 0x2D0 JUMP JUMPDEST SWAP1 POP DUP3 DUP2 MSTORE PUSH1 0x20 DUP2 ADD DUP5 DUP5 DUP5 ADD GT ISZERO PUSH2 0x10F JUMPI PUSH2 0x10E PUSH2 0x4AA JUMP JUMPDEST JUMPDEST PUSH2 0x11A DUP5 DUP3 DUP6 PUSH2 0x3D4 JUMP JUMPDEST POP SWAP4 SWAP3 POP POP POP JUMP JUMPDEST PUSH1 0x0 DUP3 PUSH1 0x1F DUP4 ADD SLT PUSH2 0x137 JUMPI PUSH2 0x136 PUSH2 0x4A5 JUMP JUMPDEST JUMPDEST DUP2 CALLDATALOAD PUSH2 0x147 DUP5 DUP3 PUSH1 0x20 DUP7 ADD PUSH2 0xE0 JUMP JUMPDEST SWAP2 POP POP SWAP3 SWAP2 POP POP JUMP JUMPDEST PUSH1 0x0 DUP2 CALLDATALOAD SWAP1 POP PUSH2 0x15F DUP2 PUSH2 0x4F3 JUMP JUMPDEST SWAP3 SWAP2 POP POP JUMP JUMPDEST PUSH1 0x0 DUP1 PUSH1 0x40 DUP4 DUP6 SUB SLT ISZERO PUSH2 0x17C JUMPI PUSH2 0x17B PUSH2 0x4B4 JUMP JUMPDEST JUMPDEST PUSH1 0x0 DUP4 ADD CALLDATALOAD PUSH8 0xFFFFFFFFFFFFFFFF DUP2 GT ISZERO PUSH2 0x19A JUMPI PUSH2 0x199 PUSH2 0x4AF JUMP JUMPDEST JUMPDEST PUSH2 0x1A6 DUP6 DUP3 DUP7 ADD PUSH2 0x122 JUMP JUMPDEST SWAP3 POP POP PUSH1 0x20 PUSH2 0x1B7 DUP6 DUP3 DUP7 ADD PUSH2 0x150 JUMP JUMPDEST SWAP2 POP POP SWAP3 POP SWAP3 SWAP1 POP JUMP JUMPDEST PUSH2 0x1CA DUP2 PUSH2 0x398 JUMP JUMPDEST DUP3 MSTORE POP POP JUMP JUMPDEST PUSH1 0x0 PUSH2 0x1DB DUP3 PUSH2 0x326 JUMP JUMPDEST PUSH2 0x1E5 DUP2 DUP6 PUSH2 0x331 JUMP JUMPDEST SWAP4 POP PUSH2 0x1F5 DUP2 DUP6 PUSH1 0x20 DUP7 ADD PUSH2 0x3E3 JUMP JUMPDEST PUSH2 0x1FE DUP2 PUSH2 0x4B9 JUMP JUMPDEST DUP5 ADD SWAP2 POP POP SWAP3 SWAP2 POP POP JUMP JUMPDEST PUSH1 0x0 PUSH2 0x216 PUSH1 0x13 DUP4 PUSH2 0x331 JUMP JUMPDEST SWAP2 POP PUSH2 0x221 DUP3 PUSH2 0x4CA JUMP JUMPDEST PUSH1 0x20 DUP3 ADD SWAP1 POP SWAP2 SWAP1 POP JUMP JUMPDEST PUSH2 0x235 DUP2 PUSH2 0x3CA JUMP JUMPDEST DUP3 MSTORE POP POP JUMP JUMPDEST PUSH1 0x0 PUSH1 0x60 DUP3 ADD SWAP1 POP PUSH2 0x250 PUSH1 0x0 DUP4 ADD DUP7 PUSH2 0x1C1 JUMP JUMPDEST PUSH2 0x25D PUSH1 0x20 DUP4 ADD DUP6 PUSH2 0x22C JUMP JUMPDEST DUP2 DUP2 SUB PUSH1 0x40 DUP4 ADD MSTORE PUSH2 0x26F DUP2 DUP5 PUSH2 0x1D0 JUMP JUMPDEST SWAP1 POP SWAP5 SWAP4 POP POP POP POP JUMP JUMPDEST PUSH1 0x0 PUSH1 0x60 DUP3 ADD SWAP1 POP PUSH2 0x28E PUSH1 0x0 DUP4 ADD DUP6 PUSH2 0x1C1 JUMP JUMPDEST PUSH2 0x29B PUSH1 0x20 DUP4 ADD DUP5 PUSH2 0x22C JUMP JUMPDEST DUP2 DUP2 SUB PUSH1 0x40 DUP4 ADD MSTORE PUSH2 0x2AC DUP2 PUSH2 0x209 JUMP JUMPDEST SWAP1 POP SWAP4 SWAP3 POP POP POP JUMP JUMPDEST PUSH1 0x0 PUSH1 0x20 DUP3 ADD SWAP1 POP PUSH2 0x2CA PUSH1 0x0 DUP4 ADD DUP5 PUSH2 0x22C JUMP JUMPDEST SWAP3 SWAP2 POP POP JUMP JUMPDEST PUSH1 0x0 PUSH2 0x2DA PUSH2 0x2EB JUMP JUMPDEST SWAP1 POP PUSH2 0x2E6 DUP3 DUP3 PUSH2 0x416 JUMP JUMPDEST SWAP2 SWAP1 POP JUMP JUMPDEST PUSH1 0x0 PUSH1 0x40 MLOAD SWAP1 POP SWAP1 JUMP JUMPDEST PUSH1 0x0 PUSH8 0xFFFFFFFFFFFFFFFF DUP3 GT ISZERO PUSH2 0x310 JUMPI PUSH2 0x30F PUSH2 0x476 JUMP JUMPDEST JUMPDEST PUSH2 0x319 DUP3 PUSH2 0x4B9 JUMP JUMPDEST SWAP1 POP PUSH1 0x20 DUP2 ADD SWAP1 POP SWAP2 SWAP1 POP JUMP JUMPDEST PUSH1 0x0 DUP2 MLOAD SWAP1 POP SWAP2 SWAP1 POP JUMP JUMPDEST PUSH1 0x0 DUP3 DUP3 MSTORE PUSH1 0x20 DUP3 ADD SWAP1 POP SWAP3 SWAP2 POP POP JUMP JUMPDEST PUSH1 0x0 PUSH2 0x34D DUP3 PUSH2 0x3CA JUMP JUMPDEST SWAP2 POP PUSH2 0x358 DUP4 PUSH2 0x3CA JUMP JUMPDEST SWAP3 POP DUP3 PUSH32 0xFFFFFFFFFFFFFFFFFFFFFFFFFFFFFFFFFFFFFFFFFFFFFFFFFFFFFFFFFFFFFFFF SUB DUP3 GT ISZERO PUSH2 0x38D JUMPI PUSH2 0x38C PUSH2 0x447 JUMP JUMPDEST JUMPDEST DUP3 DUP3 ADD SWAP1 POP SWAP3 SWAP2 POP POP JUMP JUMPDEST PUSH1 0x0 PUSH2 0x3A3 DUP3 PUSH2 0x3AA JUMP JUMPDEST SWAP1 POP SWAP2 SWAP1 POP JUMP JUMPDEST PUSH1 0x0 PUSH20 0xFFFFFFFFFFFFFFFFFFFFFFFFFFFFFFFFFFFFFFFF DUP3 AND SWAP1 POP SWAP2 SWAP1 POP JUMP JUMPDEST PUSH1 0x0 DUP2 SWAP1 POP SWAP2 SWAP1 POP JUMP JUMPDEST DUP3 DUP2 DUP4 CALLDATACOPY PUSH1 0x0 DUP4 DUP4 ADD MSTORE POP POP POP JUMP JUMPDEST PUSH1 0x0 JUMPDEST DUP4 DUP2 LT ISZERO PUSH2 0x401 JUMPI DUP1 DUP3 ADD MLOAD DUP2 DUP5 ADD MSTORE PUSH1 0x20 DUP2 ADD SWAP1 POP PUSH2 0x3E6 JUMP JUMPDEST DUP4 DUP2 GT ISZERO PUSH2 0x410 JUMPI PUSH1 0x0 DUP5 DUP5 ADD MSTORE JUMPDEST POP POP POP POP JUMP JUMPDEST PUSH2 0x41F DUP3 PUSH2 0x4B9 JUMP JUMPDEST DUP2 ADD DUP2 DUP2 LT PUSH8 0xFFFFFFFFFFFFFFFF DUP3 GT OR ISZERO PUSH2 0x43E JUMPI PUSH2 0x43D PUSH2 0x476 JUMP JUMPDEST JUMPDEST DUP1 PUSH1 0x40 MSTORE POP POP POP JUMP JUMPDEST PUSH32 0x4E487B7100000000000000000000000000000000000000000000000000000000 PUSH1 0x0 MSTORE PUSH1 0x11 PUSH1 0x4 MSTORE PUSH1 0x24 PUSH1 0x0 REVERT JUMPDEST PUSH32 0x4E487B7100000000000000000000000000000000000000000000000000000000 PUSH1 0x0 MSTORE PUSH1 0x41 PUSH1 0x4 MSTORE PUSH1 0x24 PUSH1 0x0 REVERT JUMPDEST PUSH1 0x0 DUP1 REVERT JUMPDEST PUSH1 0x0 DUP1 REVERT JUMPDEST PUSH1 0x0 DUP1 REVERT JUMPDEST PUSH1 0x0 DUP1 REVERT JUMPDEST PUSH1 0x0 PUSH1 0x1F NOT PUSH1 0x1F DUP4 ADD AND SWAP1 POP SWAP2 SWAP1 POP JUMP JUMPDEST PUSH32 0x46616C6C6261636B207761732063616C6C656400000000000000000000000000 PUSH1 0x0 DUP3 ADD MSTORE POP JUMP JUMPDEST PUSH2 0x4FC DUP2 PUSH2 0x3CA JUMP JUMPDEST DUP2 EQ PUSH2 0x507 JUMPI PUSH1 0x0 DUP1 REVERT JUMPDEST POP JUMP INVALID LOG2 PUSH5 0x6970667358 0x22 SLT KECCAK256 0xE5 CALL PUSH4 0x65D4B228 0x2C DIFFICULTY PUSH30 0x494FF98364A794A7DFE6CE50CCEA3817780BE0678CCD64736F6C63430008 SMOD STOP CALLER "
		},
		"gasEstimates": {
			"creation": {
				"codeDepositCost": "268800",
				"executionCost": "306",
				"totalCost": "269106"
			},
			"external": {
				"": "2652",
				"foo(string,uint256)": "infinite"
			}
		},
		"methodIdentifiers": {
			"foo(string,uint256)": "24ccab8f"
		}
	},
	"abi": [
		{
			"anonymous": false,
			"inputs": [
				{
					"indexed": false,
					"internalType": "address",
					"name": "caller",
					"type": "address"
				},
				{
					"indexed": false,
					"internalType": "uint256",
					"name": "amount",
					"type": "uint256"
				},
				{
					"indexed": false,
					"internalType": "string",
					"name": "message",
					"type": "string"
				}
			],
			"name": "Received",
			"type": "event"
		},
		{
			"stateMutability": "payable",
			"type": "fallback"
		},
		{
			"inputs": [
				{
					"internalType": "string",
					"name": "_message",
					"type": "string"
				},
				{
					"internalType": "uint256",
					"name": "_x",
					"type": "uint256"
				}
			],
			"name": "foo",
			"outputs": [
				{
					"internalType": "uint256",
					"name": "",
					"type": "uint256"
				}
			],
			"stateMutability": "payable",
			"type": "function"
		}
	]
}