{
	"data": {
		"bytecode": {
			"linkReferences": {},
			"object": "608060405234801561001057600080fd5b506102af806100206000396000f3fe608060405234801561001057600080fd5b50600436106100365760003560e01c80638163604a1461003b578063ef5fb05b1461006b575b600080fd5b61005560048036038101906100509190610102565b610089565b6040516100629190610168565b60405180910390f35b6100736100ad565b6040516100809190610168565b60405180910390f35b60608161009d576100986100cd565b6100a6565b6100a56100ad565b5b9050919050565b60606040518060600160405280602a8152602001610213602a9139905090565b60606040518060600160405280603d815260200161023d603d9139905090565b6000813590506100fc816101fb565b92915050565b600060208284031215610118576101176101e5565b5b6000610126848285016100ed565b91505092915050565b600061013a8261018a565b6101448185610195565b93506101548185602086016101b2565b61015d816101ea565b840191505092915050565b60006020820190508181036000830152610182818461012f565b905092915050565b600081519050919050565b600082825260208201905092915050565b60008115159050919050565b60005b838110156101d05780820151818401526020810190506101b5565b838111156101df576000848401525b50505050565b600080fd5b6000601f19601f8301169050919050565b610204816101a6565b811461020f57600080fd5b5056fe53656c616d6c6172206d79426c6f636b436861696e2075796573692c206e6173696c73696e203f203a296d79426c6f636b436861696e2e636f6d2061647265736920757a6572696e64656e206b756c75626520757965206f6c6162696c697273696e697a203a29a264697066735822122006e4fec19aa074590dd5f15562e0e47ecd237739e58685cf53cc8a51edcbabfb64736f6c63430008070033",
			"opcodes": "PUSH1 0x80 PUSH1 0x40 MSTORE CALLVALUE DUP1 ISZERO PUSH2 0x10 JUMPI PUSH1 0x0 DUP1 REVERT JUMPDEST POP PUSH2 0x2AF DUP1 PUSH2 0x20 PUSH1 0x0 CODECOPY PUSH1 0x0 RETURN INVALID PUSH1 0x80 PUSH1 0x40 MSTORE CALLVALUE DUP1 ISZERO PUSH2 0x10 JUMPI PUSH1 0x0 DUP1 REVERT JUMPDEST POP PUSH1 0x4 CALLDATASIZE LT PUSH2 0x36 JUMPI PUSH1 0x0 CALLDATALOAD PUSH1 0xE0 SHR DUP1 PUSH4 0x8163604A EQ PUSH2 0x3B JUMPI DUP1 PUSH4 0xEF5FB05B EQ PUSH2 0x6B JUMPI JUMPDEST PUSH1 0x0 DUP1 REVERT JUMPDEST PUSH2 0x55 PUSH1 0x4 DUP1 CALLDATASIZE SUB DUP2 ADD SWAP1 PUSH2 0x50 SWAP2 SWAP1 PUSH2 0x102 JUMP JUMPDEST PUSH2 0x89 JUMP JUMPDEST PUSH1 0x40 MLOAD PUSH2 0x62 SWAP2 SWAP1 PUSH2 0x168 JUMP JUMPDEST PUSH1 0x40 MLOAD DUP1 SWAP2 SUB SWAP1 RETURN JUMPDEST PUSH2 0x73 PUSH2 0xAD JUMP JUMPDEST PUSH1 0x40 MLOAD PUSH2 0x80 SWAP2 SWAP1 PUSH2 0x168 JUMP JUMPDEST PUSH1 0x40 MLOAD DUP1 SWAP2 SUB SWAP1 RETURN JUMPDEST PUSH1 0x60 DUP2 PUSH2 0x9D JUMPI PUSH2 0x98 PUSH2 0xCD JUMP JUMPDEST PUSH2 0xA6 JUMP JUMPDEST PUSH2 0xA5 PUSH2 0xAD JUMP JUMPDEST JUMPDEST SWAP1 POP SWAP2 SWAP1 POP JUMP JUMPDEST PUSH1 0x60 PUSH1 0x40 MLOAD DUP1 PUSH1 0x60 ADD PUSH1 0x40 MSTORE DUP1 PUSH1 0x2A DUP2 MSTORE PUSH1 0x20 ADD PUSH2 0x213 PUSH1 0x2A SWAP2 CODECOPY SWAP1 POP SWAP1 JUMP JUMPDEST PUSH1 0x60 PUSH1 0x40 MLOAD DUP1 PUSH1 0x60 ADD PUSH1 0x40 MSTORE DUP1 PUSH1 0x3D DUP2 MSTORE PUSH1 0x20 ADD PUSH2 0x23D PUSH1 0x3D SWAP2 CODECOPY SWAP1 POP SWAP1 JUMP JUMPDEST PUSH1 0x0 DUP2 CALLDATALOAD SWAP1 POP PUSH2 0xFC DUP2 PUSH2 0x1FB JUMP JUMPDEST SWAP3 SWAP2 POP POP JUMP JUMPDEST PUSH1 0x0 PUSH1 0x20 DUP3 DUP5 SUB SLT ISZERO PUSH2 0x118 JUMPI PUSH2 0x117 PUSH2 0x1E5 JUMP JUMPDEST JUMPDEST PUSH1 0x0 PUSH2 0x126 DUP5 DUP3 DUP6 ADD PUSH2 0xED JUMP JUMPDEST SWAP2 POP POP SWAP3 SWAP2 POP POP JUMP JUMPDEST PUSH1 0x0 PUSH2 0x13A DUP3 PUSH2 0x18A JUMP JUMPDEST PUSH2 0x144 DUP2 DUP6 PUSH2 0x195 JUMP JUMPDEST SWAP4 POP PUSH2 0x154 DUP2 DUP6 PUSH1 0x20 DUP7 ADD PUSH2 0x1B2 JUMP JUMPDEST PUSH2 0x15D DUP2 PUSH2 0x1EA JUMP JUMPDEST DUP5 ADD SWAP2 POP POP SWAP3 SWAP2 POP POP JUMP JUMPDEST PUSH1 0x0 PUSH1 0x20 DUP3 ADD SWAP1 POP DUP2 DUP2 SUB PUSH1 0x0 DUP4 ADD MSTORE PUSH2 0x182 DUP2 DUP5 PUSH2 0x12F JUMP JUMPDEST SWAP1 POP SWAP3 SWAP2 POP POP JUMP JUMPDEST PUSH1 0x0 DUP2 MLOAD SWAP1 POP SWAP2 SWAP1 POP JUMP JUMPDEST PUSH1 0x0 DUP3 DUP3 MSTORE PUSH1 0x20 DUP3 ADD SWAP1 POP SWAP3 SWAP2 POP POP JUMP JUMPDEST PUSH1 0x0 DUP2 ISZERO ISZERO SWAP1 POP SWAP2 SWAP1 POP JUMP JUMPDEST PUSH1 0x0 JUMPDEST DUP4 DUP2 LT ISZERO PUSH2 0x1D0 JUMPI DUP1 DUP3 ADD MLOAD DUP2 DUP5 ADD MSTORE PUSH1 0x20 DUP2 ADD SWAP1 POP PUSH2 0x1B5 JUMP JUMPDEST DUP4 DUP2 GT ISZERO PUSH2 0x1DF JUMPI PUSH1 0x0 DUP5 DUP5 ADD MSTORE JUMPDEST POP POP POP POP JUMP JUMPDEST PUSH1 0x0 DUP1 REVERT JUMPDEST PUSH1 0x0 PUSH1 0x1F NOT PUSH1 0x1F DUP4 ADD AND SWAP1 POP SWAP2 SWAP1 POP JUMP JUMPDEST PUSH2 0x204 DUP2 PUSH2 0x1A6 JUMP JUMPDEST DUP2 EQ PUSH2 0x20F JUMPI PUSH1 0x0 DUP1 REVERT JUMPDEST POP JUMP INVALID MSTORE8 PUSH6 0x6C616D6C6172 KECCAK256 PUSH14 0x79426C6F636B436861696E207579 PUSH6 0x73692C206E61 PUSH20 0x696C73696E203F203A296D79426C6F636B436861 PUSH10 0x6E2E636F6D2061647265 PUSH20 0x6920757A6572696E64656E206B756C7562652075 PUSH26 0x65206F6C6162696C697273696E697A203A29A264697066735822 SLT KECCAK256 MOD 0xE4 INVALID 0xC1 SWAP11 LOG0 PUSH21 0x590DD5F15562E0E47ECD237739E58685CF53CC8A51 0xED 0xCB 0xAB 0xFB PUSH5 0x736F6C6343 STOP ADDMOD SMOD STOP CALLER "
		},
		"gasEstimates": {
			"creation": {
				"codeDepositCost": "137400",
				"executionCost": "183",
				"totalCost": "137583"
			},
			"external": {
				"sayHello()": "infinite",
				"welcomeMsg(bool)": "infinite"
			}
		},
		"methodIdentifiers": {
			"sayHello()": "ef5fb05b",
			"welcomeMsg(bool)": "8163604a"
		}
	},
	"abi": [
		{
			"inputs": [],
			"name": "sayHello",
			"outputs": [
				{
					"internalType": "string",
					"name": "",
					"type": "string"
				}
			],
			"stateMutability": "pure",
			"type": "function"
		},
		{
			"inputs": [
				{
					"internalType": "bool",
					"name": "isMember",
					"type": "bool"
				}
			],
			"name": "welcomeMsg",
			"outputs": [
				{
					"internalType": "string",
					"name": "",
					"type": "string"
				}
			],
			"stateMutability": "pure",
			"type": "function"
		}
	]
}